:020000040800F2
:100000000000082481030008311E0008331E000888
:10001000351E0008371E0008391E000800000000C9
:10002000000000000000000000000000D18B00086C
:100030003B1E000800000000618C0008F9840008E5
:10004000D1030008D1030008D1030008D103000840
:10005000D1030008D1030008D1030008D103000830
:10006000D1030008D1030008D1030008D103000820
:10007000D1030008D1030008D1030008D103000810
:10008000D1030008D1030008D1030008D103000800
:10009000D1030008D1030008D1030008D1030008F0
:1000A000D1030008D1030008D1030008D1030008E0
:1000B000D1030008D1030008D1030008D1030008D0
:1000C000D1030008D1030008D1030008D1030008C0
:1000D000D1030008D1030008D1030008D1030008B0
:1000E000D1030008D103000800000000D10300087C
:1000F000D1030008D1030008D1030008D103000890
:10010000D1030008D1030008D1030008D10300087F
:10011000D1030008D10300083D1E0008D1030008E8
:10012000D1030008D1030008D1030008D10300085F
:10013000D1030008D1030008D1030008D10300084F
:1001400000000000000000000000000000000000AF
:10015000D1030008D1030008D1030008D10300082F
:10016000D1030008D1030008D1030008D10300081F
:10017000D1030008D1030008D103000800000000EB
:10018000D1030008D1030008D1030008D1030008FF
:10019000D1030008D1030008D1030008D1030008EF
:1001A000491E0008D1030008551E0008D1030008AD
:1001B000D1030008D1030008D1030008D1030008CF
:1001C000D1030008D1030008D1030008D1030008BF
:1001D000D1030008D1030008D1030008D1030008AF
:1001E000D1030008D1030008D1030008D10300089F
:1001F000D1030008D1030008D1030008D10300088F
:10020000D1030008D1030008D1030008D10300087E
:10021000D1030008D1030008D1030008D10300086E
:10022000D1030008D1030008D1030008000000003A
:10023000D1030008D103000800000000D10300082A
:10024000D1030008D1030008D1030008D10300083E
:10025000D1030008D1030008D1030008D10300082E
:10026000D1030008D1030008D1030008D10300081E
:10027000D1030008D1030008D103000800000000EA
:10028000D1030008D1030008D103000800000000DA
:0802900000000000D10300088A
:1002A00010B5054C237833B9044B13B10448AFF3B0
:1002B00000800123237010BD6001002400000000B5
:1002C0004C1E020808B5034B1BB103490348AFF3AA
:1002D000008008BD00000000640100244C1E0208DC
:1002E00001F0FF01102A2BDB10F0070F08D010F8E7
:1002F000013B013A8B422DD010F0070F42B3F6D1EB
:10030000F0B441EA012141EA014122F007047FF003
:1003100000070023F0E80256083C85EA010586EA5A
:10032000010685FA47F5A3FA87F586FA47F6A5FA96
:1003300087F68EB9EED1F0BC01F0FF0102F00702A2
:1003400032B110F8013B013A83EA010313B1F8D14D
:100350000020704701387047002D06BF354603382E
:10036000073815F0010F07D1013015F4807F02BF67
:10037000013015F4C03F0130F0BC0138704700BFB8
:10038000DFF834D0002103E00C4B5B5843500431BC
:100390000B480C4B42189A42F6D30B4A02E000235A
:1003A00042F8043B094B9A42F9D304F0FBFD20F0DC
:1003B000D1FF00F0CFFF704700000824883D0208FD
:1003C0000000002460010024600100245CF000248F
:1003D000FEE7704708B500F091FDBDE8084000F069
:1003E0001BBD00F08DBD4068704741607047000044
:1003F0004FF0E022D2F8FC3D43F08073C2F8FC3DA0
:10040000054B064AD3F8B01F0A43C3F8B02F1A6849
:1004100042F001021A607047001000E055CEACC5F2
:10042000511A01EB5301B1FBF3F07047014B5868CF
:10043000704700BF001000E0704710B504460C2163
:1004400020F0ABFC204610BD036810B51B690446C4
:1004500031B19847A26863689B1A1844606010BD68
:100460009847A060FBE7704710B50446042120F0D0
:1004700094FC204610BD000030B54FF4F07385B0F9
:100480004FF4207201210B25CDE900230523CDE98E
:1004900002136946002004F06FFC04460A20E4B20F
:1004A00004F0FCFD3CB1013DF3D1044B2E21044A84
:1004B000044820F0A1FC05B030BD00BFCC1E0208EE
:1004C000E51E02080F1F0208F0B585B00E46002099
:1004D000154601A9124F04F003FD019C74B1029B63
:1004E000104A33601360039B0F4A2B60136004F0C3
:1004F000CFFD38600124204605B0F0BD04F0C8FDF2
:100500003B6878339842F6D2064B1A68002AF2DD2F
:10051000054B1B68002BEEDD32602B60EAE700BF65
:10052000840100247C01002480010024032823D8B6
:10053000DFE800F0020A131A104B08211A68B2FA19
:1005400082F252090E4806E00C4B04215A68B2FAB6
:1005500082F252090B4805F021B9084B02219A6832
:10056000B2FA82F25209F5E7044B4FF48071DA686F
:10057000B2FA82F25209E5E7704700BF8801002411
:100580000004025800080258032823D8DFE800F0CE
:10059000020A131A104B08211A68003A18BF0122E8
:1005A0000E4806E00C4B04215A68003A18BF01229D
:1005B0000B4805F0F3B8084B02219A68003A18BFBF
:1005C0000122F5E7044B4FF48071DA68003A18BF56
:1005D0000122E5E7704700BF8801002400040258AB
:1005E0000008025803280FD8DFE800F00205090BC5
:1005F0000821064801E00421054805F0D4B802218D
:10060000FAE74FF48071F4E7704700BF0004025826
:100610000008025808B5032813D8DFE800F00205E7
:100620000D0F0821084801E00421084805F0B0F842
:10063000431E5842584108BD0221F6E74FF480712D
:10064000F0E70020F4E700BF000402580008025859
:1006500070B5084D00240126E0B2FFF7DBFF18B1AA
:100660002B68012B18BF2E6001340435052CF3D103
:1006700070BD00BF88010024012380F8781080F845
:10068000793070470020704741640039024B18BF31
:1006900001211970704700BF23E400240020704737
:1006A000836B0BB10846184770474FF6FF707047D1
:1006B000406803689B6918477047000038B50446D6
:1006C000FFF7C6FF204604F17C0500F00DFD23680E
:1006D00006492046D3F88C3098472846FFF788FE15
:1006E0000123256184F8703038BD00BF00C012D0EE
:1006F00008B503680446D3F88030984723689B6F99
:100700002046984700F010F923681B6FF8E710B5F2
:1007100004460BF067F823682046D3F8AC30BDE8F8
:100720001040184700F0D2BC00F0D6BC70B500F005
:10073000F9FC10490023C1F88430BFF34F8FD1F882
:10074000803043F6E074C3F3C900C3F34E335B015A
:1007500003EA0406024646EA8275013AC1F8745279
:10076000F9D2203B13F1200FF2D1BFF34F8FBFF32B
:100770006F8F70BD00ED00E000F084BC00F01ABD8A
:1007800000F004BD00F088BC0AF098BA10B5044629
:10079000882120F002FB204610BD90F87A301BB172
:1007A000406803681B6818471846704790F8341073
:1007B0000D4B10B590F878401A788C4209D03AB9B0
:1007C0000A490B4A08881488108001220C801A708C
:1007D00010BD002AFCD0064A0449148808880C8001
:1007E00010800022F3E700BF1CE400241AE4002478
:1007F00018E4002470B50D46194635B9094B40F28E
:10080000D221094A094820F0F7FAC0E90F52003A0C
:10081000074B18BF01221A700368BDE87040D3F877
:100820008C301847741F0208AC1F0208FA1F020818
:1008300022E4002408B5094B1B888B4203D8084BDF
:100840001B88934205D9074B9E21074A074820F091
:10085000D3FA074B1980074B1A8008BD18E400240F
:100860001AE400243F200208A2200208FA1F02080E
:100870001EE4002420E40024014608B5034B186858
:1008800001B101210AF0C8FF012008BD24E40024C1
:100890000121002208B5084607F0BBFE0A4B18608C
:1008A00028B90A4B28210A4A0A4820F0A5FA002252
:1008B0000421012007F04AFF074B186018B9074BC5
:1008C0002C21034AF0E708BD9C010024C021020846
:1008D0000922020838220208980100248222020814
:1008E000024B4FF0FF31186807F0DDBE9C01002479
:1008F000014B186807F002BF9C010024024B002145
:10090000186807F0D0BE00BF9C010024FFF7F0BFBD
:100910000023034803491A46006807F052BF00BF8E
:10092000980100240400002413B50023074C01A9FA
:100930001A46206807F075FF4FF0FF33002201A927
:10094000206807F06EFF02B010BD00BF98010024C0
:1009500003685B6C18470120704703689B6A18475F
:1009600040F2EF3070470000054B4FF080620360AB
:10097000044BC3F88820BFF34F8FBFF36F8F7047CE
:100980001C24020800E100E010B504464FF45A614F
:10099000FFF7EAFF204620F000FA204610BD0000D5
:1009A0000F4B82B0D3F8D42042F01002C3F8D42009
:1009B000D3F8D42002F010020192019ADA6F42F0CB
:1009C0001002DA67DA6F22F01002DA67054B064A86
:1009D0001A62064B4FF080629A6002B0704700BF07
:1009E00000440258E8470024F109000800E100E053
:1009F000024B1B68586803685B69184724E40024AD
:100A000070B504460A4B0C30002625466022606013
:100A10002672667245F8203B29460BF053F804F520
:100A20005A63EE602435AB42FBD1204670BD00BF57
:100A30001C24020808B50B290BD8DFE801F01206C8
:100A4000100A0A0A0A0808080808012008BD05203B
:100A5000FCE7054B6521054A054820F0CDF900204B
:100A6000F4E70220F2E700BFC4220208DF220208F6
:100A70002923020808B50A2909D8DFE801F0100681
:100A80000E080808080606060600012008BD054BEA
:100A90008621054A054820F0AFF90020F6E702203C
:100AA000F4E700BFC42202087123020829230208C8
:100AB0002DE9F84391F81D800C4607464146FFF7A3
:100AC000B9FF94F81E90054638464946FFF7B2FF35
:100AD000494606463846FFF7CDFFA18A628B434B55
:100AE000521A1A649A61228B521A1A61E28A586366
:100AF00042EA014220695A646268D863DA60276872
:100B0000802F28D0227F0FD8202F65D0402F63D090
:100B1000042F1AD045EA0265344BC84545F4003528
:100B2000DD615FD0324A44E0B7F5807F04D0B7F58D
:100B3000007FEFD12F4900E02F4941EA0262DA61DC
:100B4000E2681A625E62586132E045EA026242F48B
:100B50000032DA61F6E7A7683A1DDA62217F3A7857
:100B600045EA016545F40035DD615E62586142B1D8
:100B7000012A21D0214B4FF48871214A214820F0CD
:100B80003BF9DA69798822F47F42013922F01002B8
:100B900042EA01220121DA61144BDA6942F02002B3
:100BA000DA61DA699206FCD410229A600029B9D081
:100BB000154A1A60BDE8F883DA69FF39788822F4AB
:100BC0007F4218BF0121013822F0100242EA0022C0
:100BD00042F01002DA61DFE745EA0262034B42F4B9
:100BE0000032B6E740F20122E3E700BF00100052F6
:100BF00001020100090002000A000200BC230208F1
:100C0000D6230208292302080102020038B50C4647
:100C1000897FFFF72FFF174BA58AE28A586342EAC4
:100C2000054221695A64628BD963521B1A64256894
:100C3000082D0ED19A611A6158620F4A207F42EA4C
:100C40000062DA61E2681A620C4A5961D9601A607E
:100C500038BD0022D8611A61E1680A0A4809C1F367
:100C6000C40102F4784200F4FC6002430A439A6330
:100C7000034AECE7001000520900010001020200E3
:100C800001020300034B1A68D207FCD423229A60A6
:100C9000704700BF0010005230B5104C2568ED07BA
:100CA000FCD423250904FF2BA56041F001014FF07E
:100CB000020565636164E0630AD00949656241EA3F
:100CC0000363E361074B22626061E060236030BD33
:100CD000E561039BA363044BF8E700BF00100052DB
:100CE000090001000100020001000300012070471B
:100CF0000C2070470C2303FB0100083070470C23C5
:100D000003FB0100083070470120704743F2B850E0
:100D1000704743F2B85303FB01000830704743F2B9
:100D2000B85303FB010008307047012070471020C2
:100D3000704700EB01100830704700EB01100830DD
:100D40007047084601F0A8BB034B10B5044603608A
:100D500009F00DFD204610BDD424020810B504464C
:100D6000FFF7F2FF1421204620F017F8204610BDAF
:100D7000034B10B50446036009F0F9FC204610BD92
:100D8000A024020810B50446FFF7F2FF4FF45751B4
:100D9000204620F002F8204610BD0000034B10B59D
:100DA0000446036009F0E3FC204610BD6C240208F1
:100DB00010B50446FFF7F2FF182120461FF0EDFFA3
:100DC000204610BD094B10B50446036000F557508E
:100DD0002C30FFF7B9FF04F12C00FFF7C9FF04F135
:100DE0001400FFF7DBFF204610BD00BF08250208F6
:100DF00008B50248FFF7E6FF08BD00BFA4010024C4
:100E000010B50446FFF7DEFF43F2607120461FF085
:100E1000C4FF204610BD00002DE9F34101F08EF81B
:100E20000024054601F08EF8234601462246284656
:100E3000009412F027F8264B264A2046264D1A60C9
:100E400002F07EFB254811F085FF2B68BFF35B8F16
:100E5000DB0737D428461FF0A2FF98B3204C214B64
:100E600004F12C0804F11400236008F55757606062
:100E7000C4F8088007F11806E760266109F078FCDD
:100E8000194B4046636109F073FC184B3846E36226
:100E900009F06EFC04F54053154A04F55850C3F8A8
:100EA000EC2502F015FC224604F55851304602F0BC
:100EB000E5FB304601F0F0FA0E481FF0BBFF284674
:100EC0001FF079FF0C4802B0BDE8F041FFF7F6BB18
:100ED00088E4002430470024A001002408000024F6
:100EE000A4010024082502086C240208A02402089A
:100EF000D4240208F10D0008A84600247047000021
:100F00000148FFF7F5BB00BFA846002470B5254E89
:100F1000254B264C3046264D2360FFF771FD2846B1
:100F200016F08AFA234B00224FF4807122481A8669
:100F300083F858205A6683F87020DC60C3E91212E7
:100F40001E49C3E91A121E490B604FF4207101803B
:100F50001C4801804FF4F0711B4801801B48018040
:100F60001B49C3E90422C3E90622C3E90822C3E9F5
:100F70000A22C3E90E22C3E91022C3E91422C3E9FD
:100F80001722C3E901650A701249C3F8802083F86B
:100F9000342019605A671049C3F884200F4A9967B2
:100FA000DA6770BD08390024641F02080439002480
:100FB00034470024A846002418E40024010000015E
:100FC00024E400241EE400241AE4002420E4002485
:100FD0001CE40024F020020800000101AC1E0208FD
:100FE0000148FFF7C1BC00BF08390024002070474A
:100FF00081807047C180704701817047418170478F
:101000007047704770477047704710B4C4880368D2
:10101000121B84885B6D091B12B25DF8044B09B288
:1010200018474FF6FF7383814FF0FF330362136855
:10103000C3611060704790F825201AB190F8242001
:1010400002B118607047002070478B8883800120B0
:101050007047704780F82610704790F82600704758
:10106000002210B5B1F90840B1F90A10028042809F
:101070008480C18010BD0022028042808280C280B4
:1010800070470000034B902283F85A2383F85823BB
:10109000704700BF00E100E0094A0A49D3680A48E6
:1010A000C3F30A03013B9BB20B801169C1F30A0130
:1010B000013901801364536B43F00103536370479C
:1010C00000100050BA470024B8470024014BD3F861
:1010D000AC00704700100050024B0122C3F8AC1066
:1010E0005A6270470010005070B5044609F03BFE8C
:1010F00023685D6E0FF006F901462046A847236875
:101100002046054AD3F888504FF050410023AC46A2
:10111000BDE87040604700BF006009D009F00ABE1A
:1011200009F014BE09F0D0BD09F031BF90F82520B8
:1011300012B103685B69184770470000124A53698F
:10114000DB0370B51ED50023C2F88430BFF34F8F88
:10115000D2F8803043F6E074C3F3C900C3F34E33D2
:101160005B0103EA0406014646EA81750139C2F8CB
:101170007452F9D2203B13F1200FF2D1BFF34F8FFD
:10118000BFF36F8F70BD00BF00ED00E0084B4FF064
:101190008062C3F88820BFF34F8FBFF36F8F4FF08B
:1011A0008072C3F88820BFF34F8FBFF36F8F7047F3
:1011B00000E100E0034B4FF080629A604FF08072D4
:1011C0009A60704700E100E0002370B5124E0546BA
:1011D0008380124B0360336893F858200AB1D86CAF
:1011E00000B998680368DB6A98473368B0FA80F4FE
:1011F000D86C640930B10368DB6A9847002808BFDF
:1012000044F001042CB9064B2C21064A06481FF075
:10121000F3FD284670BD00BF24E400241826020810
:101220001425020872250208AB25020810B5144CDB
:10123000236823B3134B144A1B6C11888B4213D1C0
:10124000124B198804F0D2FF226892F86A300133F9
:1012500082F86A30FFF75CFB20680AF0C3FA0020CE
:10126000BDE81040FFF762B904F0C0FF20680368D2
:101270001B6A98470020BDE81040FFF785B910BDF4
:1012800024E4002400100050BA470024B84700248A
:101290000149002008F0F4BD7908000808B5642071
:1012A00007F0ABF9FBE7000070B59CB04C220021C1
:1012B00009A81FF0A6FF2022002101A81FF0A1FF0E
:1012C000022005F077F800230093204BDA6A22F021
:1012D0000102DA62DB6A03F0010300931C4B9A6996
:1012E00042F440429A619A6902F440420092009AA4
:1012F0009A699404FCD501224FF48033052102241D
:101300000025082609A816941B95CDE90923A023DA
:10131000CDE914130423CDE91244CDE91734CDE906
:10132000196505F081FB3F2003234FF480622146BD
:10133000CDE90103402301A8CDE90356CDE90533EA
:10134000CDE9072305F0BEFE1CB070BD00040058B7
:10135000004802580123D74A2DE98048C2F80831D5
:10136000A2F5783299B0C2F80831D34B5A6912F419
:10137000003211D1BFF34F8FBFF36F8FC3F85022EC
:10138000BFF34F8FBFF36F8F5A6942F400325A6137
:10139000BFF34F8FBFF36F8FC74A536913F4803386
:1013A00023D1C2F88430BFF34F8FD2F8803043F698
:1013B000E074C3F3C900C3F34E335B0103EA0406D0
:1013C000014646EA81750139C2F86052F9D2203BE4
:1013D00013F1200FF2D1BFF34F8F536943F48033E1
:1013E0005361BFF34F8FBFF36F8F102703F016FECB
:1013F00000210BA83A4601261FF003FF002403F04A
:10140000C9FE4FF01052AD4B0BA81C25ADF82C6057
:101410004FF002094FF003084FF01A0A4FF0400B4B
:10142000CDE90C23A64B0E9303F0D2FE4FF05043B0
:101430000BA88DF834500C938DF82D608DF8374043
:10144000ADF83A4003F0C4FE18230BA88DF82D9098
:101450008DF8343040F201138DF83780ADF83A3012
:1014600003F0B6FE4FF010430BA88DF8345004255E
:101470000C938DF82D808DF83740ADF83A4003F08D
:10148000A7FE0BA88DF82D508DF834A08DF837806D
:101490008DF83A6003F09CFE284603F089FEFFF7C2
:1014A00003FF142221460BA81FF0ABFE854B4FF41F
:1014B00084718548D3F8E02042F48072C3F8E020BC
:1014C000D3F8E02002F480720092009AD3F8E02072
:1014D00042EA0902C3F8E020D3F8E02002EA090258
:1014E0000192019AD3F8E02042F48062C3F8E02030
:1014F000D3F8E02002F480620292029AD3F8E0204E
:1015000042F04002C3F8E020D3F8E02002F04002AD
:101510000392039AD3F8E0203A43C3F8E020D3F8CB
:10152000E0203A400492049AD3F8E02042F400729A
:10153000C3F8E020D3F8E02002F400720592059A87
:10154000D3F8E0202A43C3F8E020D3F8E0202A4073
:101550000692069AD3F8E02042F08002C3F8E02019
:10156000D3F8E02002F080020792079AD3F8E02037
:1015700042F00802C3F8E020D3F8E02002F00802AD
:101580000892089AD3F8E02042F02002C3F8E02045
:10159000D3F8E02002F020020992099AD3F8E02063
:1015A0003243C3F8E0202246D3F8E03033400A93B8
:1015B0000A9B04F0F3F822460621444804F0EEF8B2
:1015C00029462246424804F0E9F832464021404884
:1015D00004F0E4F84FF484730BA93B48CDE90B36D3
:1015E000CDE90D4803F04AFF06230BA93748CDE9A2
:1015F0000B36CDE90D4803F041FF0BA93448CDE986
:101600000B56CDE90D4403F039FF0BA93048314D9D
:10161000CDE90BB6CDE90D4903F030FF2E482F4A36
:10162000848002600662C0E9054403F0FDFD3422B7
:1016300021460BA81FF0E5FD294A8F2140F20F300B
:1016400040F21F3CAC862C6185F83640C5E9002489
:101650001D22C5E905292222C5E9071240F202220E
:10166000C5E909024FF403722846C5E90BC2C5E972
:10167000024404F0C3FCFF204FF4806E4FF050434F
:101680004FF420714FF4F0720B941692ADF85C4059
:101690008DF85E40CDE910040520CDE91431CDE987
:1016A00012E0CDE90C14CDE90E290BA922462846FB
:1016B00018E000BF0060045100ED00E012000003DC
:1016C00001000101004402580004025800080258B9
:1016D0000000025850480024C4470024004C02581F
:1016E0000010005004F055FD3348344A0BA98462C1
:1016F0001197C0E900262022C0E904248022C0E915
:101700000244C0E90624C0E90844CDE90B77CDE9DD
:101710000D77CDE90F7706F05DFC294920460A6870
:1017200022F001020A6003F0DDF9204603F024FAFA
:10173000244B25484FF44032C0E90294C0E90032FE
:1017400003F0D2FD2148224AC0F810A0C0F820B012
:10175000C0E900284FF44072C0E90264C0E90524E2
:1017600004F02EFF204602F04BFF40F203120BA9BB
:101770002046ADF82C208DF82EB002F0E9FF20466F
:1017800002F0F2FE5C2003F0F3FCFEF723FEFEF70E
:1017900020FE06F0BFFE0F4A21460F4806F0E6FE87
:1017A0000E4B0F4A214618600E4806F0DFFE0E4B26
:1017B000186006F0C1FEFEE7F848002440410052E0
:1017C0000040005200100052E8470024D05400248A
:1017D00000500052702602089D120008C0470024E5
:1017E0004C260208E3030008BC4700240268034BB0
:1017F0009A4201D103F040BC704700BF0010004086
:10180000704700000A4B82B00F216FF00100D3F83F
:10181000F42042F00202C3F8F4200022D3F8F4309E
:1018200003F002030193019B02B003F061BC00BF0F
:1018300000440258026882B0094B9A420DD1A3F5C8
:101840000063D3F8E02042F40022C3F8E020D3F88C
:10185000E03003F400230193019B02B0704700BF06
:10186000004C02580F4B07B502689A4217D10E4B35
:1018700005215A20D3F8D42042F01002C3F8D42016
:101880000022D3F8D43003F010030193019B03F03E
:101890002FFC5A2003B05DF804EB03F05BBC03B0EF
:1018A0005DF804FB0010005200440258F0B5142209
:1018B000BBB0044600210DEB02001FF0A2FCC022C9
:1018C00000210AA81FF09DFC22683C4B9A4273D16C
:1018D0004FF00052002320210AA8CDE90A23A023BB
:1018E0000522CDE914230223CDE916334FF400631A
:1018F000CDE9181305F05AFE08B1FFF781FF304B10
:10190000002402270326D3F8E4200E2505A92D483C
:1019100042F00802C3F8E420D3F8E42002F0080201
:101920000192019AD3F8E02042F48062C3F8E020EB
:10193000D3F8E02002F480620292029AD3F8E02009
:1019400042F40072C3F8E020D3F8E02002F4007201
:101950000392039AD3F8E02042F48072C3F8E020A7
:10196000D3F8E030099503F480730493049BFF23BC
:10197000CDE90746CDE9053703F080FD48F67D63E4
:1019800005A911480995CDE90537CDE9074603F0CA
:1019900075FD4FF4704305A90C480995CDE905374D
:1019A000CDE9074603F06AFD582022460F2103F0D7
:1019B0009FFB582003F0CEFB3BB0F0BD0010005061
:1019C00000440258002802580024025800200258FF
:1019D0002DE9F041BCB004461422002107A81FF0F5
:1019E00010FCC02200210CA81FF00BFC2268574BF2
:1019F0009A4240F0A7804FF0007200230CA8CDE976
:101A00000C2305F0D3FD08B1FFF7FAFE504B022579
:101A100003240027D3F8D420092607A94D4842F40F
:101A200080424FF00108C3F8D420D3F8D42002F448
:101A300080420192019AD3F8E02042F04002C3F8BC
:101A4000E020D3F8E02002F040020292029AD3F89C
:101A5000E02042F00402C3F8E020D3F8E02002F0D6
:101A600004020392039AD3F8E02042F02002C3F864
:101A7000E020D3F8E02002F020020492049AD3F888
:101A8000E02042F08002C3F8E020D3F8E02002F02A
:101A900080020592059AD3F8E02042F00202C3F8D2
:101AA000E020D3F8E03003F002030693069B4FF4E6
:101AB0008443CDE90735CDE909740B9603F0DEFCCC
:101AC0004FF4006307A924480B96CDE90735CDE90B
:101AD000098403F0D3FC402307A91E48CDE90984FB
:101AE0004FF00A08CDE90735CDF82C8003F0C6FC8D
:101AF000C02307A919480B96CDE90735CDE909742C
:101B000003F0BCFC4FF4407307A91448CDF82C80B7
:101B1000CDE90735CDE9097403F0B0FC0C2307A922
:101B20000F480B96CDE90735CDE9097403F0A6FC03
:101B3000042307A90B480B96CDE90735CDE90974B5
:101B400003F09CFC3CB0BDE8F08100BF00500052A7
:101B500000440258001802580008025800140258A5
:101B6000001C025800040258026808B5114B9A4242
:101B70001FD1114A44F240211048D2F8D43023F446
:101B80008043C2F8D43003F063FD4FF400610C4889
:101B900003F05EFD4FF470710A4803F059FD0C210B
:101BA000094803F055FD04210848BDE8084003F04A
:101BB0004FBD08BD005000520044025800180258A2
:101BC0000008025800140258001C02580004025871
:101BD000F0B5B7B00021142201A81FF012FB3F4B53
:101BE0001968002977D1012208A81A60B8221FF0CD
:101BF00008FB4FF08072002306A8CDE9062305F00C
:101C0000D5FC08B1FFF7FCFD354B02270026032564
:101C1000D3F8D4200C2401A9324842F48052C3F8EE
:101C2000D420D3F8D430059403F480530093009B60
:101C300040F2FF63CDE90365CDE9013703F01EFCF7
:101C4000602301A928480594CDE90137CDE9036552
:101C500003F014FC4FF6837301A924480594CDE9E1
:101C60000137CDE9036503F009FC4FF47F4301A977
:101C70001F480594CDE90137CDE9036503F0FEFB6C
:101C800048F2111301A91B480594CDE90137CDE9AC
:101C9000036503F0F3FB4CF2037301A916480594A6
:101CA000CDE90137CDE9036503F0E8FB4FF63F03CB
:101CB00001A912480594CDE90137CDE9036503F088
:101CC000DDFB012301A90E480594CDE90137CDE9DB
:101CD000036503F0D3FB37B0F0BD00BF30490024EB
:101CE0000044025800200258000402580010025814
:101CF000001C025800180258000C02580014025828
:101D0000000802581A4B1A6810B582BB194A012400
:101D100040F2FF6118481C60D2F8D43023F480539D
:101D2000C2F8D43003F094FC6021144803F090FC16
:101D30004FF68371124803F08BFC4FF47F4111483A
:101D400003F086FC48F211110F4803F081FC4CF2BD
:101D500003710E4803F07CFC4FF63F010C4803F082
:101D600077FC21460B48BDE8104003F071BC10BD64
:101D70002C49002400440258002002580004025854
:101D800000100258001C025800180258000C02589B
:101D900000140258000802580F2810B504468AB0F3
:101DA00002D901200AB010BD01460022362003F0FE
:101DB0009FF9362003F0CEF9184B694602A81C6043
:101DC000174BD3F8E82042F01002C3F8E820D3F80C
:101DD000E83003F010030193019B05F0CDFA079B57
:101DE000C3B905F0B7FA0F4C0F4B236040F2E7334D
:101DF000E3600E4BB0FBF3F0013800236060204637
:101E00002361A36006F0ACFA0028CAD1204606F090
:101E10004FF9C7E705F09EFA4000E4E77800002498
:101E200000440258344900240010004040420F0092
:101E30007047FEE7FEE7FEE7FEE77047014806F061
:101E400079B900BF34490024014804F045B900BF06
:101E500050480024014803F086BA00BFE847002438
:101E60000120704708B51FF06FFA162303604FF08A
:101E7000FF3008BD08B51FF067FA16230360FEE7C0
:101E800070B50D4614460E46731B9C4201DC20467D
:101E900070BDAFF3008006F8010BF5E770B50D4695
:101EA00014460E46731B9C4201DC204670BD16F89A
:101EB000010BAFF30080F5E74FF0FF3070474FF4B0
:101EC000005300204B60704701207047002070478E
:101ED0000A4A116808B5034609B909491160106832
:101EE000694603448B4206D91FF02EFA0C23036087
:101EF0004FF0FF3008BD1360FCE700BF80490024AD
:101F000060F00024704710B5044604211EF045FF20
:101F1000204610BD012908B506D0022908D059B9BC
:101F200001F05AFB006808BD01F056FB4068FAE773
:101F300001F052FB8068F6E70020F4E700487047A4
:101F4000A82602080220704713B5002451B1036887
:101F500001AA01948DF803409C680DF10303A0478A
:101F600002B010BD0846FBE7C0897047008A704781
:101F7000C088704780887047807A00F07F00704783
:101F8000807AC0097047806A70477047704710B503
:101F9000044688211EF001FF204610BDF8B54FF41D
:101FA0008073044600250646838404F17407254B9C
:101FB0008562C0E90155C0E90355C0E90555C0E98E
:101FC000075546F82C3B304609F026FE3846FFF709
:101FD000FBF81D4B2946304663672433C4F8805014
:101FE000E3671A4BA360FFF703F829463046FFF773
:101FF00001F830469C21FEF7FFFF30466A21FEF7CC
:10200000FDFF4FF41C624FF4D4633046B421656683
:10201000C4E916234FF4C8632366A023E3664FF494
:102020003453A36609F010FE4FF0FF3320463146CB
:10203000C4F88030A4F88430676508F0ABFB204614
:10204000F8BD00BFD8260208683302089C006A0069
:102050007047704710B504464FF49A711EF09DFE0C
:10206000204610BD2DE9F0411D4603680446164682
:102070001B6BBDF9187098472368314620465B6B8F
:1020800098472368294620469B6B98472368394622
:102090002046DB6BBDE8F041184700004FF4807329
:1020A0002DE9F74F0446002506468384DFF8288192
:1020B00004F19C0A464B04F1B007856208F1240B39
:1020C00004F59079C0E90155C0E90355C0E905550B
:1020D000C0E9075546F82C3B30460AF04FFC504605
:1020E000FFF772F83846C4F8A850C4F89C80C4F8CA
:1020F000A4B00AF043FC4846FFF766F8354B2A4681
:102100002946A3606A233046C4F82C5100939C23CF
:10211000C4F82081C4F828B1FFF7A4FF4FF0FF33C3
:102120002A462946C4F8A8303046A4F8AC30C4F892
:1021300054A00AF039FD4FF454624FF49C513046DC
:102140000AF03DFDA36EB3F5A07F05D04FF4A07358
:102150003046A3660AF032FC012130460AF03AFD0F
:102160003146204608F016FB00226A233846114605
:1021700000939C23FFF776FF4FF0FF3300224FF4CC
:102180009C51C4F82C313846A4F83031C4F8D890AA
:102190000AF00AFD4FF45462002138460AF00FFDA0
:1021A000D4F8EC30B3F5A07F06D04FF4A0733846D6
:1021B000C4F8EC300AF002FC384601210AF00AFDAE
:1021C0002046394608F0E6FA204603B0BDE8F08F15
:1021D0006C2702089C006A0068330208704710B53B
:1021E000044608211EF0D9FD204610BD70477047F7
:1021F00000F598730868496803C3704770477047D3
:102200004160704770470000064BC0F84801C0F8B5
:102210004C310023C0F8503100F5A273C0F84031B2
:10222000704700BFCD22000801230372704770473A
:10223000704710B441680346C2689B68541001EBB4
:102240006200D20748BF0A595DF8044B48BFD35813
:10225000184743682BB183682BB9C06800F00100B0
:102260007047184670470120704710B504460C218E
:102270001EF093FD204610BD10B5044610211EF03F
:102280008CFD204610BD10B504464FF4AE711EF013
:1022900084FD204610BD10B50EF034F80368BDE88B
:1022A0001040DB6B184710B50446D0F8400158B118
:1022B0000368DB68984738B1D4F8400103689B682D
:1022C00098470023C4F8403110BD00002DE9F14FBC
:1022D000D0E9555A0746A86803681B6A984743F235
:1022E000B753984205D8464BA321464A46481EF0AC
:1022F00083FD686803681B6A98470F2803D8434B1F
:10230000A421404AF2E7E86803681B6A98470B2853
:1023100003D83F4BA5213B4AE8E7DFF8FC900DF0DE
:10232000F1FF04300EF013F8D9F8000010B1036883
:10233000DB689847D9F8000010B103681B6898471C
:10234000DFF8D880D8F8000010B103685B699847BF
:10235000D7F83C0110B103685B689847D8F80000D3
:1023600010B103681B689847D7F83C0110B10368A7
:102370009B689847E86800214FF0000B03685B6A90
:102380009847244B0446C0F804B00360594680F8CF
:1023900008B0A86803685B6A9847064601F08CFAA3
:1023A0006868594603685B6A98470546314601F0FC
:1023B000A1F9C9F80040C7F83C51C8F80060E5B180
:1023C0002B1DCAF8003030463368C5F808A0DB681A
:1023D000F56398472B6828461B6898472146304686
:1023E0000FF04CFD236820461B6998472368204660
:1023F0005B6901B0BDE8F04F18472B46E1E700BF2D
:1024000008280208962802089E290208E5290208E1
:10241000882A0208A02B02086CE4002468E4002447
:10242000044B1B6893F858200AB1D86C00B998681F
:10243000704700BF24E40024F8B5044617460E4652
:102440000EF026F8104B00251C6029460F4B236028
:102450000F4BC4E951350F4B1868C4E95355036855
:10246000C4E94F559B68C4E955769847284601F062
:1024700067F8FFF7D5FF16F00EFEFFF7D1FF16F055
:1024800085FE2046F8BD00BF78E400244C2B0208EE
:10249000342B020824E40024064BC0F84801C0F89D
:1024A0004C310023C0F8503100F5A273C0F8403120
:1024B000704700BFCD220008406A7047806A7047AD
:1024C00070478B88C069DB0A0A6850F82300104403
:1024D000704710B5C2B1137BB3B1547BD27A2402DA
:1024E00004F4E0641443026A98B202EB8402138895
:1024F0008B4202D192F9020010BD05D80138043296
:1025000080B20028F3D1F7E70020F5E710B50446C4
:102510002C211EF042FC204610BD000030B58BB0CF
:102520000446BDF860500895BDF85C5007959DF8CD
:10253000505006959DF84C5005959DF848500495CF
:102540009DF8445003959DF8405002959DF83C50ED
:102550000195BDF8385000950EF0FAFF064B204665
:102560002360159BE361169B2362199B63621A9B90
:10257000A3620BB030BD00BFC42B02087047704788
:1025800010B50446DC211EF008FC204610BD0000FA
:102590004FF480732DE9F04F044685B000250646C0
:1025A000838404F15809474B4FF6FF7A04F18408FD
:1025B000856203A904F1B007ADF80CA04FF0010B40
:1025C000C0E90155C0E90355C0E90555C0E9075503
:1025D00046F82C3B30460AF0FDFB03A94846ADF80F
:1025E0000CA00AF0F7FB03A94046ADF80CA00AF0D6
:1025F000F1FB03A93846ADF80CA00AF0EBFB324B17
:102600004FF0060A03A93046A360ADF80CB00BF0FA
:102610007DFA4FF4F073DA2229463046CDF800A057
:10262000FFF720FD294630460AF08FFB3146204651
:102630004FF4A57608F0AEF803A94846ADF80CB003
:102640000BF064FA53462A4648469C210096FFF751
:1026500009FD294648460AF078FB4946204608F01D
:1026600099F803A94046ADF80CB00BF04FFA534669
:102670002A4640464FF49F710096FFF7F3FC294627
:1026800040460AF062FB4146204608F083F803A961
:102690003846ADF80CB00BF039FA4FF4F0736A22FB
:1026A00029463846CDF800A0FFF7DCFC294638461D
:1026B0000AF04BFB2046394608F06CF8204605B07E
:1026C000BDE8F08F242C0208E0014A0170477047F2
:1026D0007047704770477047704770477047704742
:1026E0007047704770477047704790F82C304BB177
:1026F00000F16C021268C2653BB100F174031B6803
:102700000366704700F16802F4E700F17003F6E732
:102710007047704730B444680346C2689B685510E0
:1027200004EB6200D20748BF625930BC48BFD3589F
:10273000184743682BB183682BB9C06800F00100CB
:102740007047184670470120704790F82D3080F888
:102750005A30704710B5044678211EF01EFB204603
:1027600010BD10B5044610211EF017FB204610BD09
:1027700010B50446983000F0A9FF04F6040000F0FC
:1027800067FF04F6381000F057FF04F51C6000F0F6
:1027900053FF04F6482000F05BFF04F67C3000F0A5
:1027A0004BFF04F6044000F053FF04F6385000F0ED
:1027B00043FF04F55C6000F04BFF04F6F460BDE8F5
:1027C000104000F045BF10B50446006B50B10368DF
:1027D000DB68984730B1206B21460368BDE81040A4
:1027E0009B68184710BD0B7970B504460D4690F8EC
:1027F0002C609BB98EB9B3FA83F320465B0984F849
:102800002C302368D3F88C309847236820465B69C6
:10281000984716B12B79012B03D070BD002EFCD048
:10282000E9E723682046D3F88830BDE870401847B0
:10283000074A02600022C0E90122C0E90322C0E980
:102840000522C0E907224FF480728284704700BFDE
:10285000C0380208036870B504461B6B15469847DC
:102860002368204629465B6BBDE87040184700008E
:1028700010B50446262200211EF0C3FC2046FFF7B7
:10288000D7FF044B20462360FF2384F82630002323
:10289000A36210BD2037020810B50446262200218D
:1028A0001EF0AFFC2046FFF7C3FF0A4B4FF47F0238
:1028B00020462360084BA3624FF6FF73A3850023D5
:1028C000C4E90C324FF0FF322387E363C4E91023DD
:1028D00010BD00BF9036020800280208036880F887
:1028E0002D10D3F89030184700F55573994270B504
:1028F00004460D4602D10368DB6A984704F5377336
:10290000AB4206D12846FF21FFF7E8FF28460EF02C
:1029100072FD04F28C739D4203D1236820461B6B29
:10292000984704F214739D4203D1236820465B6BE1
:10293000984704F29C639D4203D1236820469B6B19
:10294000984704F224639D4203D123682046DB6B41
:10295000984704F2AC539D4203D1236820461B6C78
:10296000984704F234539D4203D1236820465B6CA0
:10297000984704F2BC439D4203D1236820469B6CD8
:10298000984704F244439D4203D123682046DB6C00
:10299000984704F573739D4205D1236820461B6D4B
:1029A000BDE87040184770BD034B10B50446036086
:1029B000FFF74EFB204610BD3C30020838B51D4BDA
:1029C00004461D4D03600BF09DFF04F6F460FFF715
:1029D000EBFF04F55C60FFF7E7FF04F63850C4F83E
:1029E000385DFFF7D2FA04F60440FFF7DDFF04F686
:1029F0007C30C4F87C5BFFF7C8FA04F64820FFF788
:102A0000D3FF04F51C60C4F8C059FFF7BEFA04F602
:102A10003810C4F83859FFF7B8FA04F60400FFF785
:102A2000C3FF2046054B40F8983FFFF7A7FD20461F
:102A300038BD00BF6C2D0208A82F020824310208FF
:102A400010B50446FFF7BAFF43F2B85120461EF016
:102A5000A4F9204610BD10B50446FFF7A5FF4FF4BA
:102A60009A7120461EF099F9204610BD70B50446B3
:102A7000FFF7DEFE4FF47F4300252646A3850123A2
:102A8000A56284F824300D4B256346F8343B30466C
:102A9000FFF7EEFE0A4B2A46294630466363256659
:102AA000A4F86450C4E91A55C4E91C55FFF7D2FED6
:102AB0002046314607F06EFE204670BDB82C020855
:102AC0008837020810B40367019B5DF8044B436725
:102AD0000368C0E91A12D3F88C3018472DE9F04F7B
:102AE000044600252DED108B91B0A2460FF01AF888
:102AF000ED4B04F16C09E5634AF8403B5046FFF7A3
:102B0000B7FE4FF6FF730EA94846ADF838300AF00D
:102B100061F904F1980304F5BA7804F5DE7704F559
:102B2000257B18460EEE903A00F0C6FD4046FFF7B2
:102B3000B3FE3846FFF7B0FE04F50173261D1846B4
:102B400008EE103AFFF7A8FE04F51373184608EED6
:102B5000903AFFF7A1FE5846FFF79EFE04F5377343
:102B600018460DEE903AFFF781FF04F555731846AD
:102B70000EEE103AFFF77AFF04F57373184609EE6C
:102B8000103AFFF773FF04F24443184609EE903AF7
:102B9000FFF76CFF04F2BC4318460AEE103AFFF749
:102BA00065FF04F2345318460AEE903AFFF75EFFD1
:102BB00004F2AC5318460BEE103AFFF757FF04F23D
:102BC000246318460BEE903AFFF750FF04F29C6323
:102BD00018460CEE103AFFF749FF04F2147318463A
:102BE0000CEE903AFFF742FF04F28C7318460DEE9C
:102BF000103AFFF73BFF04F6040318460FEE103AB5
:102C000000F01CFD04F6381318460FEE903A00F061
:102C100009FD04F51C631846039300F003FD04F658
:102C200048231846049300F009FD04F67C33184647
:102C3000059300F0F7FC04F604431846069300F0F1
:102C4000FDFC04F638531846079300F0EBFC04F53E
:102C50005C631846089300F0F1FC04F6F463184630
:102C6000099300F0EBFC04F54053904A04F58150C1
:102C7000C3F8AC454FF41651C3F8A82508308C4A68
:102C8000C3F8B455C3F8B0250BF032FE4FF4F0731F
:102C90002A462946504600934FF42073FFF7E2F985
:102CA0004FF07F4351463046A3664FF0FF3A07F09E
:102CB00071FD0EA94846ADF838500AF027FF4FF4D1
:102CC000F0732A462946484600934FF42073FFF7D5
:102CD000C9F9294648460AF038F8494630460DF108
:102CE000280907F057FD86221EEE900A5021FFF7B3
:102CF000B1FD1EEE901A304607F04CFD0E22404604
:102D0000F421FFF7A7FD41464846C4F8A4A1A4F862
:102D1000A8510AF063FB04F5D87399E8070083E82B
:102D20000700644B0EA940460E930423ADF83C30D7
:102D30000AF0FCFD4146304607F02CFD5222384691
:102D400040F20721FFF786FD39464846C4F8ECA15A
:102D5000A4F8F0510AF042FB04F5FC73DFF860813F
:102D600099E8070083E80700524B0EA938460E93F6
:102D70000323ADF83C300AF0D9FD3946304607F060
:102D800009FD522218EE100A1B21FFF763FD18EE11
:102D9000101A4846C4F834A2A4F838520AF01EFBB0
:102DA00004F51073434F99E8070083E807000223F6
:102DB0000EA918EE100A0E97ADF83C300AF0B6FDD9
:102DC00018EE101A304607F0E5FC442218EE900A7F
:102DD00040F21311FFF73EFD18EE901A4846C4F872
:102DE0007CA2A4F880520AF0F9FA04F5227399E85B
:102DF000070083E8070001230EA918EE900A0E973A
:102E0000ADF83C300AF092FD18EE901A304607F00B
:102E1000C1FC4422584640F21311FFF71BFD5946EE
:102E20004846C4F8C4A2A4F8C8524FF0440A0AF0B5
:102E3000D5FA04F5347399E8070083E807000EA972
:102E400058460E97ADF83C500AF070FD5946304692
:102E500007F0A0FC2A46294604F54470CDF800A0EE
:102E60006023FFF7FFF84FF0050304F5565B124FA0
:102E7000DFF850904246A4F840330BF1280B0F4B7B
:102E800039461DEE900A00934B46FFF71BFE602368
:102E90000E221DEE900ACDF800A04FF4FD71C4F88B
:102EA0000CB3FFF7DFF80FE06C2D0208542D020879
:102EB000E928000800280208996600FF996633FF98
:102EC000CC9900FF663300FF1DEE901A304607F0E4
:102ED00061FC2A46294604F56270CDF800A0602303
:102EE000FFF7C0F84FF00502EF4B39461EEE100A0F
:102EF000A4F8B823009342464B46FFF7E3FD602356
:102F00000E221EEE100ACDF800A032214FF06A0A00
:102F1000C4F884B3FFF7A6F81EEE101A304607F087
:102F200039FC2A46294604F580609C23CDF800A090
:102F3000FFF798F8DC4B4246394619EE100A009329
:102F4000A4F830544B46FFF7BDFD294619EE100A90
:102F5000FFF7C4FC9C234FF4B37219EE100A4FF430
:102F6000CA71C4F8FCB3CDF800A0FFF77BF819EEE6
:102F7000101A304607F00EFC2A46294604F58F60E9
:102F80009C23CDF800A0FFF76DF8C74B42463946A9
:102F900019EE900A0093A4F8A8544B46FFF792FD4F
:102FA000294619EE900AFFF799FC9C234FF4B3725F
:102FB00019EE900AF221C4F874B4CDF800A0FFF71E
:102FC00051F819EE901A304607F0E4FB2A462946DC
:102FD00004F59E609C23CDF800A0FFF743F8B24BA8
:102FE000424639461AEE100A0093A4F820554B4683
:102FF000FFF768FD29461AEE100AFFF76FFC9C23C5
:103000004FF4B3721AEE100A5021C4F8ECB4CDF8A4
:1030100000A0FFF727F81AEE101A304607F0BAFBA7
:103020002A46294604F5AD609C23CDF800A0FFF7A1
:1030300019F89D4B424639461AEE900A0093A4F8BF
:1030400098554B46FFF73EFD29461AEE900AFFF7CA
:1030500045FC9C23F6221AEE900A4FF4CA71C4F87C
:1030600064B5CDF800A0FEF7FDFF1AEE901A3046C9
:1030700007F090FB2A46294604F5BC609C23CDF856
:1030800000A0FEF7EFFF884B424639461BEE100AC0
:103090000093A4F810564B46FFF714FD29461BEE8B
:1030A000100AFFF71BFC9C23F6221BEE100AF121ED
:1030B000C4F8DCB5CDF800A0FEF7D4FF1BEE101A63
:1030C000304607F067FB2A46294604F5CB609C236F
:1030D000CDF800A0FEF7C6FF734B424639461BEE03
:1030E000900A0093A4F888564B46FFF7EBFC29465C
:1030F0001BEE900AFFF7F2FB9C23F5221BEE900AD1
:103100005021C4F854B6CDF800A0FEF7ABFF1BEE7B
:10311000901A304607F03EFB2A46294604F5DA604D
:103120009C23CDF800A0FEF79DFF5F4B4246394639
:103130001CEE100A0093A4F800574B46FFF7C2FCA0
:1031400029461CEE100AFFF7C9FB9C2386221CEEC1
:10315000100A4FF4CA71C4F8CCB6CDF800A0FEF73F
:1031600081FF1CEE101A304607F014FB2A46294650
:1031700004F5E9609C23CDF800A0FEF773FF4A4BED
:10318000424639461CEE900A0093A4F878574B4605
:10319000FFF798FC29461CEE900AFFF79FFB9C2343
:1031A00086221CEE900AF121C4F844B7CDF800A0A5
:1031B000FEF758FF1CEE901A304607F0EBFA2A464D
:1031C000294604F5F8609C23CDF800A0FEF74AFFDD
:1031D000354B424639461DEE100A0093A4F8F057CD
:1031E0004B46FFF76FFC29461DEE100AFFF776FBF2
:1031F0009C2386221DEE100A5021C4F8BCB7CDF8DE
:1032000000A0FEF72FFF1DEE101A304607F0C2FA9D
:1032100040F291121FEE100A6FF09B01FFF71AFBAC
:103220001FEE101A304607F0B5FA40F25F121FEE9B
:10323000900A4FF42071FFF70DFB1FEE901A3046F5
:1032400007F0A8FAF52203984FF42071FFF702FB6C
:103250000399304607F09EFA4FF4927204986FF08B
:103260009B01FFF7F7FA0499304607F093FA8B2297
:1032700005984FF42071FFF7EDFA0599304607F0F5
:1032800089FABA2206986FF09B01FFF7E3FA0699D4
:10329000304607F07FFA212207984FF42071FFF79C
:1032A000D9FA079902E000BF996633FF304607F06C
:1032B00071FA502208986FF09B01FFF7CBFA08993A
:1032C000304607F067FA6FF0190209986FF09B011A
:1032D000FFF7C0FA3046099907F05CFA204611B0B2
:1032E000BDEC108BBDE8F08F7047000030B5164D77
:1032F0008FB02C68BFF35B8F14F0010420D12846F7
:103300001DF04DFDE0B13F23012210490993104B00
:1033100010480893104B0A940594CDE90643042302
:10332000CDE903320A23CDE90B440093CDE90144F2
:10333000FFF7F4F809481DF07DFD28461DF03BFD20
:1033400004480FB030BD00BF84490024300600900F
:10335000543D020888490024603D0208E932000813
:103360007047000030B5174D8FB02C68BFF35B8FEE
:1033700014F0010422D128461DF011FDF0B13F23C5
:10338000012211490993114B11480893114B0A94DA
:103390000594CDE906430423CDE903321423132217
:1033A00000931823CDE90B44CDE90144FFF7B6F8AB
:1033B00009481DF03FFD28461DF0FDFC04480FB0F4
:1033C00030BD00BFB449002440060090583D0208BB
:1033D000B8490024643D02086133000870470000CA
:1033E00030B5164D8FB02C68BFF35B8F14F001041D
:1033F00020D128461DF0D3FCE0B13F230122104923
:103400000993104B10480893104B0A940594CDE98A
:1034100006430423CDE903322823CDE90B4400936E
:10342000CDE90144FFF77AF809481DF003FD28466D
:103430001DF0C1FC04480FB030BD00BFE4490024BA
:103440004C0700905C3D0208E8490024683D0208F2
:10345000DD33000800207047002070470EB403B52C
:1034600003AB002153F8042B01930DF099FE02B039
:103470005DF804EB03B070470CB407B504AB53F828
:10348000042B01930DF08CFE03B05DF804EB02B049
:1034900070470000436C10B5044673B3038F2BB91B
:1034A000184BC521184A19481DF0A6FCC38E00EB25
:1034B00043035B8C0BB30FF011FA238F012B03D85E
:1034C000134BCB21134AEEE7E28E40F63F10531C1C
:1034D0009BB2092B194688BFA3F10A0104EB4101F5
:1034E000498C814209D10A2B04EB420228BF0023F8
:1034F000508C04EB4303588451842046BDE81040AF
:103500000FF0EEB8C02D0208C92D0208742E020873
:10351000BE2E0208CC2E02080FF0ABB810B586B054
:1035200002AC84E806001A460AAB214605930193D3
:10353000099B0093089B0CF067FA06B010BD0000D1
:1035400038B518BB124B13481C681349B4B1226834
:1035500022440260626822440A60A26814440F4B4D
:1035600000221A8000F038F8054600F033F80C4BC2
:103570001C600C4B1D600C4B188007E00B4B03606C
:103580000B4B0B600B4B1C68002CE8D138BD00BF07
:10359000144A0024184A00241C4A0024204A00240B
:1035A0007CE4002484E4002480E40024700700907C
:1035B0005C070090E8070090044B1B6853F821005B
:1035C000034B1B6803EB4000704700BF1C4A0024FC
:1035D000184A00240520704700487047244A0024F8
:1035E00010B5054CFFF7BEFE2060FFF7F9FE6060E6
:1035F000FFF77CFEA06010BD244A0024034B10B5E9
:1036000004460360FEF7C1FC204610BDA82F020847
:1036100010B50446FFF7F2FF882120461DF0BDFBE0
:10362000204610BD10B50446FEF7B8FC014B2046FD
:10363000236010BDA82F0208FEF7A8BC10B50446F1
:10364000FEF72CFD014B2046236010BD3C300208E4
:10365000FEF7FFBC704710B504464FF4AE711DF085
:103660009CFB204610BD10B50446D0F8580100F070
:1036700032F82046BDE810400CF0C6BE10B5044636
:10368000FEF7DAFE014B2046236010BDD030020861
:10369000034B10B504460360FEF770FF204610BDD3
:1036A0002431020810B50446FFF7F2FFDC21204662
:1036B0001DF073FB204610BD10B50446FEF768FFF1
:1036C000014B2046236010BD24310208FEF757BF8E
:1036D0000022026070477047704704387047704797
:1036E00010B5044610211DF058FB204610BDA0F176
:1036F0000400F5E70022C1608260044A10B502F1BF
:10370000080420320460426010BD00BFB0310208DE
:103710007047000013B50B460022154C81F8242099
:10372000B3F906202368B1F90410D8070CD403EBD1
:10373000D37310485B1050F823000368CDE90012E2
:103740009B6D9847DDE900122368002B03F0010010
:10375000B8BF4042012806D15B10074850F823004B
:1037600003689B6D984723680133236002B010BD46
:10377000544A0024404A0024304A002400F28C714C
:10378000FFF7C8BF00F21471FFF7C4BF00F29C61DD
:10379000FFF7C0BF00F22461FFF7BCBF00F2AC51DD
:1037A000FFF7B8BF00F23451FFF7B4BF00F2BC41DD
:1037B000FFF7B0BF00F24441FFF7ACBF00F57371F3
:1037C000FFF7A8BF034B10B504460360FFF7F6F8F8
:1037D000204610BDE031020810B50446FFF7F2FFA5
:1037E00043F2B85120461DF0D8FA204610BD000023
:1037F00001236FF019026FF09B0110B5044680F8A9
:10380000B03780F8383780F8C03680F8483680F80E
:10381000D03580F8583580F8E03480F8683480F886
:10382000F03300F60400FDF7F0FB6FF019026FF0C3
:103830009B0104F64820FDF7E8FB6FF019026FF0DA
:103840009B0104F60440FDF7E0FB6FF019026FF0F6
:103850009B0104F55C60FDF7D8FB6FF019026FF077
:103860009B0104F6F460FDF7D0FB6FF019026FF0D6
:103870009B0104F63810FDF7C8FB6FF019026FF0DA
:103880009B0104F51C60FDF7C0FB6FF019026FF09F
:103890009B0104F67C30FDF7B8FB6FF019026FF066
:1038A0009B0104F63850FDF7B0FB024B00221A6072
:1038B00010BD00BF544A002410B50446FFF70EF9AE
:1038C000104B04F6040204F63811236020460E4B18
:1038D0001A600E4A116004F64821596004F51C6113
:1038E000516004F60441996004F67C31916004F55E
:1038F0005C61D96004F63851D16004F6F4621A6153
:1039000010BD00BFE0310208404A0024304A0024C4
:10391000FEF72EBF012300208B704FF480530880E8
:10392000C1E9013370474FF0FF3070474FF0FF306F
:10393000704710B404690089A4465DF8044B6047E1
:1039400010B4C4680089A4465DF8044B604713B501
:1039500001230C460DF107020921183000F088F808
:1039600020B94FF4E443236002B010BD4FF0FF30A4
:10397000FAE710B590F82430044633B90368984745
:1039800028B9012384F8243010BD0020FCE74FF053
:10399000FF30F9E710B590F824300446012B05D12B
:1039A0004368984720B984F8240010BD0020FCE744
:1039B0004FF0FF30F9E74FF0FF3070474FF0FF3026
:1039C00070474FF0FF3070474FF0FF3070474FF0B7
:1039D000FF30704730B500F1180585B00C460A235A
:1039E00001AA0921284600F043F808BB9DF80530DC
:1039F000A3F1830253425341236009219DF806300D
:103A000028469DF807201B0943EA02139DF8092068
:103A10005B0063609DF808301B0943EA021301AAAA
:103A20005B00A3600A2300F023F8002005B030BD3E
:103A30004FF0FF33E0E7000090B14A680B68426046
:103A40000A8903600281CA68C2600A6902614A6920
:103A500000624261044AC261044A826103B11847AC
:103A60004FF0FF30704700BF33390008413900087C
:103A700010B4D0E90140A4465DF8044B6047000053
:103A800008B50122074BC3E900219A6000221946BC
:103A9000DA604FF6FF7204F0D3FA003818BF012045
:103AA000404208BD584A002408B50222084BC3E929
:103AB000002101210022C3E902124FF6FF721946CC
:103AC00004F0BEFA003818BF0120404208BD00BF14
:103AD000584A0024D1E9033210B513434A690B4C0C
:103AE00013438A691343CA691343042222600A6894
:103AF000214662600122C4E902234FF6FF7204F0FE
:103B00009FFA003818BF0120404210BD584A0024D7
:103B100008B5084BC3E9002108210022C3E90212BD
:103B20004FF6FF72194604F08BFA003818BF0120D7
:103B3000404208BD584A002408B504F0A0FA0038F5
:103B400018BF0120404208BD70B50C460968054603
:103B5000FFF796FF10B14FF0FF3070BD01F098FAFB
:103B6000064601F095FA8642FBD021682846FFF709
:103B70009BFF0028EFD12846D4E90012FFF7C8FFC9
:103B80000028E8D121462846FFF7A4FF0028E2D10B
:103B9000A1682846FFF7D0FF003818BF0120404237
:103BA000DBE74FF000624FF400534FF48071C0E93F
:103BB00000234FF48043C0E902314FF40023036136
:103BC0000020704700B54FF4407395B04FF040723D
:103BD0000C9305230F920222069300230B9206A951
:103BE00013930093049303926A46CDE90D33CDE914
:103BF0001133102302934FF48003059340F2011315
:103C0000019341F2883302F035FE002814BF6FF0B3
:103C10000400002015B05DF804FB032941F288324E
:103C200030B508BF4FF4407395B018BF4FF48073A0
:103C30000C4606A905460C93062306930023CDE9FE
:103C40000D330F930B931393CDE9113302F017FD4E
:103C500020BB40F202230222032C4FF48001049087
:103C60002846CDE900334FF01003CDE902324FF082
:103C700005036A46CDE905130CBF4FF040734FF0C2
:103C8000807306A90F9341F2883302F0F3FD0028F8
:103C90000CBF00206FF0040015B030BD6FF00100C4
:103CA000FAE7032930B508BF4FF440738FB018BF4F
:103CB0004FF4807304460D460693B7230093002308
:103CC000CDE90733099305930D93CDE90B33FFF746
:103CD000A4FF58B941F288326946204602F0CFFC71
:103CE00020B929462046FFF76DFF08B16FF00100AB
:103CF0000FB030BD30B504468FB0154603290ED83D
:103D0000DFE801F0022E39444FF4807206920C2253
:103D100000924FF4806207924FF08072099208225D
:103D200001930023694605924FF4405220460893C0
:103D30000392129ACDE90A2341F28832CDE90C337D
:103D400002F09DFC38BB41F288322946204602F041
:103D500032FD00280CBF00206FF003000FB030BD13
:103D60004FF480720692BC2200924FF400620792D8
:103D70004FF00072D2E74FF480720692EC2200926C
:103D80004FF4406207924FF04072C7E74FF4407221
:103D90000692EB22F3E76FF00100DFE700B54FF486
:103DA00080738FB041F288320693352369460093C1
:103DB0000023CDE90733099305930D93CDE90B3328
:103DC00002F05DFC002814BF6FF0010000200FB06E
:103DD0005DF804FB00B54FF480738FB041F2883278
:103DE0000693F523694600930023CDE90733099331
:103DF00005930D93CDE90B3302F041FC002814BF6D
:103E00006FF0010000200FB05DF804FB00B591B029
:103E100003290ED8DFE801F00229343F4FF4807304
:103E200008930E2302934FF4806309934FF080733D
:103E30000B9308224FF440534FF0004C02A9079215
:103E40004FF0804205930023CDE90DC26A460A93E4
:103E50000F93CDE9003302F05DFD002814BF6FF031
:103E60000500002011B05DF804FB4FF48073089347
:103E70003D2302934FF4806309934FF00073D7E71B
:103E80004FF480730893EE2302934FF44063099339
:103E90004FF04073CCE74FF440730893ED23F3E702
:103EA00000B591B003290ED8DFE801F00225303BC0
:103EB0004FF4807308930C2302934FF480630993AB
:103EC0004FF080730B9308236A4602A907934FF4BF
:103ED0004053059300230A930F93CDE90D33CDE9A9
:103EE000003302F017FD002814BF6FF0050000201A
:103EF00011B05DF804FB4FF480730893BC23029368
:103F00004FF4006309934FF00073DBE74FF48073C5
:103F10000893EC2302934FF4406309934FF04073EE
:103F2000D0E74FF440730893EB23F3E7032941F202
:103F3000883200B508BF4FF440738FB018BF4FF4FC
:103F4000807369460693662300930023CDE9073307
:103F5000099305930D93CDE90B3302F090FB0028F4
:103F600014BF6FF0010000200FB05DF804FB0329BF
:103F700041F2883200B508BF4FF440738FB018BFCC
:103F80004FF4807369460693992300930023CDE98B
:103F90000733099305930D93CDE90B3302F06FFBC3
:103FA000002814BF6FF0010000200FB05DF804FB83
:103FB000012300208B704FF480530880C1E9013346
:103FC00070474FF0FF3070474FF0FF30704710B42C
:103FD00004690089A4465DF8044B604710B4C468C6
:103FE0000089A4465DF8044B604737B540F681036D
:103FF00000F118040D4601AAADF804308A2102230D
:10400000204600F0BEF818B14FF0FF3003B030BDCD
:1040100001230DF103028A21204600F0ABF80028AD
:10402000F2D143F210532B60F0E730B540F6810334
:1040300087B000F118050C46ADF8043002AAADF8BF
:10404000083000210223284600F09BF878B14FF099
:10405000FF33012B23603ED1022301AA0021284611
:1040600000F08FF8D0B14FF0FF3007B030BD0B2318
:1040700003AA8A21284600F07DF80028E7D19DF8A0
:104080000E209DF80D3013409DF80F2013409DF831
:1040900010201340FF3B18BF0123DAE70B2303AACC
:1040A0008A21284600F066F80028DCD1BDF80D30E2
:1040B0004FF420725BBA9BB21B03B3FBF2F3636055
:1040C0004FF4F072BDF80F305BBA9BB21B03B3FB29
:1040D000F2F3A360C9E70020C7E710B590F82430D9
:1040E000044633B90368984728B9012384F824307B
:1040F00010BD0020FCE74FF0FF30F9E710B590F855
:1041000024300446012B05D14368984720B984F830
:10411000240010BD0020FCE74FF0FF30F9E74FF01E
:10412000FF3070474FF0FF3070474FF0FF3070475F
:104130004FF0FF3070474FF0FF30704790B14A6842
:104140000B6842600A8903600281CA68C2600A691A
:1041500002614A6900624261044AC261044A8261A2
:1041600003B118474FF0FF30704700BFCF3F000842
:10417000DD3F000810B4D0E90140A4465DF8044BCF
:10418000604710B404688068A4465DF8044B60473B
:104190000F4A08B51368023B13600BB1002008BD3D
:1041A00040210C4801F054FA0A48802101F050FAED
:1041B000094A0A48D2F8E83023F40013C2F8E8307C
:1041C00001F078FC0028E9D06FF00700E7E700BFB6
:1041D000684A002400040258004402587054002425
:1041E0000023012210B5416004460362C0E9023297
:1041F000C0E90433C0E9063301F00AFC014608B106
:10420000012010BD204601F02CFE01460028F7D108
:10421000204601F04CFE003818BF0120F1E70000F5
:10422000A34BA4482DE9F04F036093B0A24B1C6848
:10423000002C40F0CD8001221A6001F00DFE002814
:1042400040F0C6809D4D4FF0120802270426D5F895
:10425000E0300DA99A4843F00203C5F8E030D5F8E4
:10426000E03003F002030A930A9BD5F8E03043F0F4
:104270000203C5F8E030D5F8E0300F9403F00203F4
:104280000B930B9B4023CDE91076CDE90D3801F05F
:10429000F5F880230DA98A481196CDE90D38CDE9AE
:1042A0000F4701F0EBF8D5F8E83043F40013C5F8F8
:1042B000E830D5F8E83003F400130C930C9BD5F8E4
:1042C000903043F40013C5F89030D5F8903023F4C3
:1042D0000013C5F8903003F03DF8002872D0794BF8
:1042E00040F6F6162246A14603EB50034FF0100AA3
:1042F000DFF8D8B1B3FBF0F06FF01D0300EB400521
:10430000A6EB800601465B1B26EAE67623EAE3730A
:1043100000936D4B1B6888464FF0000C40F27935D6
:10432000CDF804C00CF1010CA8455ED90027BE46AB
:10433000009DBD4253D8BE4251D392454FD0142563
:1043400005FB03FA0133019D0BEB0A097F2B4BF8A8
:104350000A20C9E9015E3FD95B4A13605A4B42F219
:1043600010725A4900271B6803924FF0FF320593E1
:104370004300019203F13205C3F5905BA3F511539D
:104380000BF10C0B09950A3B0293059B9F4238D118
:10439000019B7F2B16D81421019A4C4B4A43991844
:1043A0009B580C7C44EA03744B681B0503F47003B0
:1043B0001C438B681B0403F470231C43CB681B0253
:1043C0009BB21C4321463B48FFF70AFF00286CD1F3
:1043D000002013B0BDE8F08F92464FF001090EF1B6
:1043E000010E0F44BEF1100FA2D1BCF1100F884492
:1043F00094D101320144102A8DD1B9F1000FABD113
:10440000ACE70B684FF0000C099D03FB0003029E14
:104410001D441E440495ABEB030508966D00009502
:10442000049D41F25C22CDF818C0A5F132060CF1D2
:10443000010C95422ED9B0EB960F2BD2089E4FF06F
:10444000000EDDF810802E44DDF8009006F2836A3D
:1044500041F24702CDF81CE00EF1010E924512D850
:10446000B8F57A6F0FD340450DD236EA260A28BF39
:10447000CA46039A924506D2069ACDF80CA00A6164
:10448000079A0197CA60BEF5807F1E44A9EB030915
:104490009844DBD1009ABCF5807F1D44A2EB030257
:1044A0000092BED1013714316FE76FF0070090E73B
:1044B0000054004070540024684A0024004402580C
:1044C0000004025800CA9A3B6C5400246C4A002431
:1044D0001FB542F2107400920A4601460848CDE921
:1044E0000134012301F000FB40B1054801F0B7FCA5
:1044F00004280CBF6FF065006FF0030004B010BD1E
:10450000705400241FB542F2107400920A4601460E
:104510000848CDE90134012301F0C0FB40B1054852
:1045200001F09DFC04280CBF6FF065006FF00300E4
:1045300004B010BD7054002400F0AABD094A4FF425
:10454000407C02604A684260012282608A68C260E0
:104550000A6802610022C0E905C2C261CA6802623B
:1045600002F02EB80050005210B588B90A4C0B4822
:10457000A37861784BB9FFF793FC10B16FF004009A
:1045800010BD022300202370FAE7FFF73FFCF4E799
:104590006FF00100F4E700BFC4540024D05400249D
:1045A0007FB5F8B9144D2B78022B1ED1134C204641
:1045B00002F0F1F918B16FF0030004B070BD1023E0
:1045C0002046E36001F0FCFF03460028F3D10126FA
:1045D0000DF10F02697820460096FFF78BFB38B982
:1045E0002E70EAE76FF00100E7E76FF01A00E4E7EA
:1045F0006FF00400E1E700BFC4540024D05400244D
:1046000038B5002858D12E4C2378022B4DD00023EA
:10461000402504212B482380A370656001F018F821
:104620002946294801F014F84FF48071274801F019
:104630000FF84FF40071254801F00AF88021234853
:1046400001F006F82946214801F002F84FF4006114
:104650001F4800F0FDFF04211E4800F0F9FF08216B
:104660001C4800F0F5FF4FF40071174800F0F0FF10
:104670004FF48041144800F0EBFF174B1748DA6FF6
:1046800042F48042DA67DA6F22F48042DA67D3F8C4
:10469000D42022F48042C3F8D42001F0DFFF0028A8
:1046A0000CBF00206FF0030038BDFFF779FF002832
:1046B000ADD06FF00400F7E76FF00100F4E700BF42
:1046C000C454002400040258001802580014025870
:1046D00000080258001C025800440258D05400241C
:1046E000F8B50C46174630BB174D2B78022B25D05A
:1046F000B2FA82F3154E5B0930461B01F36001F0FC
:104700005FFFF0B96B78032B0FD1032C05D1012388
:1047100000206C702B70AF70F8BD3046FFF75AFB6D
:104720000028F4D06FF00400F6E7032CEFD13046F8
:10473000FFF734FBF4E76FF00100EDE76FF01900CD
:10474000EAE76FF00300E7E7C4540024D0540024E4
:104750002DE9F04F0C46A5B0002840F0BB81034D79
:104760002F782FB1002025B0BDE8F08FC45400246D
:10477000C44B09264FF0040A4FF0030BD3F8D420A2
:1047800016A9C1484FF0400842F480424FF00A0990
:10479000C3F8D420D3F8D42002F480420192019AC5
:1047A000DA6F42F48042DA67DA6F22F48042DA6725
:1047B000D3F8E02042F00202C3F8E020D3F8E02072
:1047C00002F002020292029AD3F8E02042F0400284
:1047D000C3F8E020D3F8E02002F040020392039AED
:1047E000D3F8E02042F02002C3F8E020D3F8E02024
:1047F00002F020020492049AD3F8E02042F0200252
:10480000C3F8E020D3F8E02002F020020592059AD8
:10481000D3F8E02042F02002C3F8E020D3F8E020F3
:1048200002F020020692069AD3F8E02042F020021D
:10483000C3F8E020D3F8E02002F020020792079AA4
:10484000D3F8E02042F00402C3F8E020D3F8E020DF
:1048500002F004020892089AD3F8E02042F08002A5
:10486000C3F8E020D3F8E02002F080020992099A10
:10487000D3F8E02042F08002C3F8E020D3F8E02033
:1048800002F080020A920A9AD3F8E02042F0400235
:10489000C3F8E020D3F8E02002F040020B920B9A1C
:1048A000D3F8E02042F04002C3F8E0200222D3F81F
:1048B000E03003F040030C930C9BCDE916A2CDE948
:1048C000187B1A9600F0DAFD012316A96F48189399
:1048D000CDF85880CDF8689000F0D0FD02224FF45A
:1048E000006101236A481A96CDE9161216A9CDE98E
:1048F000183B00F0C3FD4FF4807316A9654816936A
:104900001897CDF8689000F0B9FD16A9CDF858A019
:1049100061484FF4007A1A9600F0B0FD16A95D4880
:10492000CDF858A0CDF8689000F0A8FD082316A98E
:10493000594816931A9600F0A1FD802316A95548F0
:1049400016931A9600F09AFD16A95048CDF858A073
:1049500000F094FD16A94F48CDF8588000F08EFD68
:104960004FF4804316A94948169300F087FD3A4654
:104970000F215C2000F0BCFB5C2000F0EBFB11A8D9
:10498000FFF70FF96378454ACDF8408052F82320AD
:104990000E92119A92FAA2F2B3FA83F3B2FA82F269
:1049A0000DA93F485B09013A1B010D920F93FFF7D8
:1049B000C5FD002840F0918059463948FFF7B6FA06
:1049C00000287CD159463648FFF7D1FA002876D125
:1049D00069783348FFF7F6F8014600286FD1304870
:1049E000FFF7A4FA0146002869D12D48FFF7BFFA66
:1049F0000146002863D10123A87029482B80FFF7C6
:104A0000E1F800285BD169782548FFF74AF90028CA
:104A100055D14FF44073ADF802001B9041F288323B
:104A20001C93852316A916934FF040731F930223FE
:104A3000CDE91D00CDE92030CDE92200184801F074
:104A40001EFE00283BD141F288320DF102011448CC
:104A500001F0B1FE98BB69781148FFF7DEF870BB32
:104A6000812341F2883216A90D481693BDF8023011
:104A700023F0F0031B051B0D43F4004343F08003B8
:104A800010E000BF00440258000402580018025809
:104A90000008025800140258001C0258383202085C
:104AA000D0540024ADF8023001F0E9FD38B941F2EC
:104AB00088320DF102010A4801F024FE10B16FF0B6
:104AC000040050E662782178FFF70AFE00283FF4E0
:104AD00049AEF4E76FF0010045E66FF0030042E6EF
:104AE000D054002410B5044670B9094B094803603E
:104AF00003F098FA7A2000F03BFB0748074B03606D
:104B000001F001FC204610BD6FF00100FBE700BF83
:104B1000404100521C5500245055002440000052D2
:104B200001221449022310B5C0E900128260042159
:104B30002022402488B0C0E903124FF4C0720793CA
:104B4000C0E9054200224FF40064C0E907244FF495
:104B50008054C0E909420722CDE903126944CDE936
:104B60000132CDE9053303F035FA003818BF0120D2
:104B700008B010BD40410052F0B505468FB0002886
:104B800040F0DD80714B032709A97148D3F8D42088
:104B9000704C42F48052704EC3F8D420D3F8D42025
:104BA00002F480520192019AD3F8D42042F001021B
:104BB000C3F8D420D3F8D42002F001020292029A62
:104BC000D3F8E02042F00802C3F8E020D3F8E02058
:104BD00002F008020392039AD3F8E02042F0100298
:104BE000C3F8E020D3F8E02002F010020492049A07
:104BF000D3F8E02042F02002C3F8E020D3F8E02010
:104C000002F020020592059AD3F8E02042F040021B
:104C1000C3F8E020D3F8E02002F040020692069AA2
:104C2000D3F8E02042F08002C3F8E020D3F8E0207F
:104C300002F080020792079AD3F8E02042F48072D3
:104C4000C3F8E0200222D3F8E03003F48073089325
:104C5000089B0123CDE90A230C23CDE90C734CF208
:104C60000373099300F00AFC4FF6837309A93B48CC
:104C7000099300F003FC4FF63F0309A93848099354
:104C800000F0FCFB48F23F1309A93648099300F0F5
:104C9000F5FB4FF6E07309A93348099300F0EEFBEA
:104CA00040F2FF6309A93148099300F0E7FB4FF098
:104CB00080414FF0805340F2022040F608023463F6
:104CC0002664C4E90113C4E905028023202220469A
:104CD000A362C4E90723C4E903354FF00072244BF3
:104CE00062622360C4E90B55C4E90D5501F00BFB6A
:104CF000204601F099FA2A460F217A2000F0F8F9AF
:104D00007A2000F027FA3046FFF70AFFD0B9194998
:104D10000823C1E9003740F203630861C1E90230AA
:104D20003023C1E905304FF400733046CB61FEF704
:104D30000BFF002818BF6FF004000FB0F0BD6FF03C
:104D40000100FAE74FF0FF30F7E700BF00440258D8
:104D5000000C0258BC5500241C55002400100258B9
:104D60000014025800180258001C02580020025873
:104D700040000052285600242DE9F0470C4688B028
:104D8000002840F092800B685A1EB2F5207F80F018
:104D90008C804A68511EB1F5F07F80F08680934286
:104DA00028BF1346E2689A427FD80823404D414EFF
:104DB000414F0DEB0301DFF81C81DFF81C91DFF898
:104DC0001CA101902846ADF8103002960397CDF84B
:104DD0001880CDF81490CDF81CA0FEF72DFEB0B1D0
:104DE0000023364D02A9CDF81CA00193802328464C
:104DF000ADF81030CDE90267CDE90598FFF79EF9CF
:104E0000002839D06FF0060008B0BDE8F08701A98E
:104E10002846FEF79CFD0028E2D1019BB3F5E44F44
:104E2000DED1274B2846274A1D60274B13601B689D
:104E300098470028D4D1236802A9244D204A2B602A
:104E4000636810686B60A368AB60E368EB601D4B40
:104E50001B68DB699847002824DB039B002022683D
:104E60002B61049B6B61E3681A440132AA6162689A
:104E700013440133EB61C7E701A92846FFF7B5F8F2
:104E80000028BFD1019A43F210539A42BAD10C4B79
:104E900028460C4A1D600E4B13601B68984700287B
:104EA000C9D0AFE76FF00400AEE76FF00100ABE7E9
:104EB0004856002421420008914100087056002401
:104EC00098560024BC5600240C0000249C56002454
:104ED0003C00002405450008D1440008394500087D
:104EE0002DE9FF410C46002853D12B4B01A92B4A39
:104EF0001B6810681B699847002847DB2849019800
:104F0000D1E9066500283DD0D1F808E0D1F810803D
:104F10001EF0080FDDE902C719BF3B4662463A465C
:104F200063461EF0020F1CBF08F1FF33A3EB0C0316
:104F3000D1F814C01EF0040F18BFACEB07020F68C5
:104F40007B434F6820607A43CF68B3FBF8F3B2FB32
:104F5000FCF2B3426360A2608CBFA3EB060CA6EB2D
:104F6000030CAA428CBF501BA81A674501D3874285
:104F700005D2C1E90632002004B0BDE8F081C4E9E1
:104F80000165F8E7C4E90006A560F5E76FF00400E5
:104F9000F2E76FF00100EFE7BC56002498560024BA
:104FA0009C56002418491948D1F8883043F47003FE
:104FB00010B5C1F88830164B1A6842F001021A6029
:104FC00000221A611C68204018609A61DA611A6236
:104FD0009A62DA621A635A639A63DA631A645A64E9
:104FE000186820F4802018601A660A4B1B681B0C96
:104FF0001B04B3F1005F03D2074B0122C3F8082161
:105000004FF000638B6010BD00ED00E07FEDF6EA2D
:10501000004402580010005C0080005110B50320CD
:1050200000F054F801F0ACFF0F49104A8B69C3F34C
:105030000323D35C03F01F03D8408B6903F00F03F5
:10504000D35C0B4A03F01F0320FA03F31360094BF0
:1050500018600020FCF7A0FE044618B9FCF7D2FB4C
:10506000204610BD0124FBE70044025840320208EC
:10507000700000246C000024034A044B11681B7864
:105080000B441360704700BFC05600247400002416
:10509000014B1868704700BFC056002438B504465D
:1050A000FFF7F6FF0546631C1EBF044B1B78E41890
:1050B000FFF7EEFF431BA342FAD338BD7400002470
:1050C000014B1868000C70470010005C0749030290
:1050D000CA6803F4E06322F4E0621204120C134382
:1050E00043F0BF6343F40033CB60704700ED00E052
:1050F000164B30B5DC68C4F30224C4F10703251D48
:10510000042B28BF0423062D4FF0FF358CBF033C32
:10511000002405FA03F3002805FA04F521EA030345
:1051200022EA050203FA04F343EA02034FEA0313F7
:10513000DBB206DB00F1604000F5614080F800332F
:1051400030BD00F00F00024A1354F9E700ED00E013
:1051500014ED00E0002807DB0123410900F01F00E7
:10516000024A834042F82130704700BF00E100E06E
:1051700000280CDB4309012200F01F000449203302
:10518000824041F82320BFF34F8FBFF36F8F7047EA
:1051900000E100E0BFF35F8F044B5A6A22F48032D3
:1051A0005A620022C3F89420704700BF00ED00E06F
:1051B000064B40F00100C3F894005A6A42F4803272
:1051C0005A62BFF34F8FBFF36F8F704700ED00E05F
:1051D0004378144A10B5C2F898300178E9B14368B1
:1051E000C2F89C30C37A047B1B0643EA04730B436A
:1051F000817A43EAC143417B43EA8143817B43EAAD
:105200004143C17B43EA0143417A43EA0123017AE6
:1052100043EA4103C2F8A03010BDC2F89C10C2F8A6
:10522000A010F9E700ED00E010B5044608B9012030
:1052300010BD437F03F0FF0213B90277FCF7FAFABF
:10524000022363772379E3B92368134A5A619A6882
:1052500022F018029A6062792368D2B94FF0FF32C7
:105260001A6100209A68616922F060020A43A1690C
:105270009A609A6822F080020A439A600123637759
:10528000D6E7D4E90212204600F008F80028E2D060
:10529000CDE72269E4E700BFB71DC104CB0710B515
:1052A0000CD51F23013B1CD321FA03F4E407F9D5E5
:1052B000102A12D004D83AB1082A10D001200BE0ED
:1052C000182AFBD1062BF9D800684161836823F0C6
:1052D000180313438360002010BD072BF3E70F2B47
:1052E000F1E7002AEAD1EFE710B50446002836D0EE
:1052F00090F8613003F0FF021BB980F86020FCF7E2
:10530000B1FA0223E069626884F8613023680243DD
:10531000A069196821F4E02121F040010A431A60D4
:10532000596BA26821F48371024321F001010A4301
:10533000E1685A631A6C120C12040A431A64596B1E
:10534000D4E9040221F44011520542EA005200203F
:105350000A435A630123606684F8613010BD01205E
:10536000FCE770477047036870B55E6804461D68C7
:10537000F20714D5E90512D51A6822F480721A6072
:10538000426E42F00102426601229A60042380F8D4
:105390006130002380F86030436A03B19847B20659
:1053A00016D5AB0414D523681A6822F400521A608B
:1053B00020229A60636E43F002036366042384F83C
:1053C0006130002384F86030636A0BB1204698474F
:1053D000300716D5290514D523681A6822F400620F
:1053E0001A6008229A60636E43F004036366042324
:1053F00084F86130002384F86030636A0BB1204682
:10540000984772070BD56B0509D5236820461A68A3
:1054100022F480621A6004229A60FFF7A2FFB007AC
:1054200014D5A90512D523681A6822F400721A60EF
:1054300002229A60636E6366012384F86130002360
:1054400084F86030236A0BB120469847F20613D5E2
:10545000EB0411D5236820461A6822F480521A60A2
:1054600010229A60636E6366012384F86130002322
:1054700084F86030FFF776FF70BD00002DE9F74F2C
:105480000023DFF8C8914FF0B0440A6832FA03F500
:1054900002D103B0BDE8F08F4FF0010E0EFA03FE0B
:1054A0001EEA020200F0BC804E684FEA43084FF04B
:1054B000030C06F003050CFA08FC6F1E6FEA0C0CD7
:1054C000012F34D8876807EA0C0ACF6807FA08F773
:1054D00047EA0A078760476827EA0E0EC6F30017F7
:1054E0009F4047EA0E074760C768022D07EA0C0E87
:1054F0008F6807FA08F747EA0E07C76019D14FEA25
:10550000D30A03F0070B4FF00F0E00EB8A0A4FEAA5
:105510008B0BDAF820700EFA0BFE27EA0E0E0F69DD
:1055200007FA0BF747EA0E07CAF8207001E0032DCF
:10553000DAD1076805FA08F516F4403F07EA0C07C8
:1055400045EA070505606BD0D9F8F45023F003074E
:1055500003F0030C45F0020507F1B0474FEA8C0C4D
:10556000C9F8F45007F58067D9F8F45005F0020542
:105570000195019D0F25D7F808E005FA0CF52EEAF4
:10558000050E314DA8424DD005F58065A8424BD09F
:1055900005F58065A84249D005F58065A84247D049
:1055A00005F58065A84245D005F58065A84243D041
:1055B00005F58065A84241D005F58065A8423FD039
:1055C00005F58065A8423DD005F58065A8420CBF71
:1055D00009250A2505FA0CF516F4801F45EA0E0583
:1055E000BD606FEA020725680CBF3D40154316F405
:1055F000001F256065680CBF3D40154316F4003F51
:105600006560D4F884500CBF3D401543F603C4F8E0
:105610008450D4F8805054BF3D401543C4F88050A6
:10562000013332E70025D5E70125D3E70225D1E78D
:105630000325CFE70425CDE70525CBE70625C9E7F8
:105640000725C7E70825C5E70000025800440258AF
:105650002DE9F04F0022DFF82881DFF82891DFF8EC
:1056600028A1DFF828B131FA02F301D1BDE8F08FAB
:10567000012303FA02FC1CEA01066BD022F00304AA
:1056800002F003070F253D4B04F1B044BF009842E0
:1056900005FA07F5D4F808E404F5806405EA0E0E6F
:1056A0005AD003F58063984258D003F5806398423E
:1056B00056D003F58063984254D003F58063984236
:1056C00052D0404552D0484552D0504552D058450E
:1056D00052D003F5A05398420CBF09230A23BB40C4
:1056E000734519D14FF0B043D3F8807027EA06070D
:1056F000C3F88070D3F8847027EA0607C3F8847073
:105700005F6827EA06075F601F6827EA06071F60D1
:10571000A36823EA0503A36055000323046802F08D
:105720000707AB400F26BF001C43BE400460D408EF
:1057300000EB8404256A25EA06052562C46824EA8C
:105740000304C460446824EA0C044460846824EAC6
:1057500003038360013286E70023C0E70123BEE72D
:105760000223BCE70323BAE70423B8E70523B6E71F
:105770000623B4E70723B2E70823B0E70000025886
:105780000014025800180258001C02580020025849
:105790000369194214BF0120002070470AB18161DA
:1057A00070470904FBE7436901EA030221EA0301A8
:1057B00041EA02418161704703689A69910701D506
:1057C00000229A629A69D20703D49A6942F00102D0
:1057D0009A61704730B5039DC1F3090104682B43FA
:1057E000606843EA0243054A0B4342EA555223F0FC
:1057F000004320EA02000343636030BDFF63FF0300
:1058000003682DE9F0419C6905460F46164614F0E1
:1058100010046FD000241022A046DA612B689A6928
:10582000900661D4B8F1000F35D044F00404012093
:105830002E68B369D90505D54FF4807244F0010490
:105840000120F2615A0505D54FF4806244F0080446
:105850000120F2619B054FD54FF4007344F0020420
:10586000F3612846FFF7A8FF7368012023F0FF7358
:1058700023F48B3323F4FF7323F0010373606B6C09
:1058800023436B64202385F84130002385F84230A0
:1058900085F8403032E07A1CC1D0FFF7F9FB801B5D
:1058A000B84201D8002FB9D12B68596895F8422029
:1058B0009869D2B200040AD5490408D4202A06D037
:1058C0005A6842F480425A60FFF7E2FB06462B68B2
:1058D0009B699B06A2D4FFF7DBFB801B1928F6D936
:1058E00020244FF0010899E7B8F1000F9DD1202244
:1058F000DA619AE720469BE70028B2D1BDE8F08143
:1059000070B504460D46164623689B699B0701D572
:10591000002070BD324629462046FFF771FFC0B90E
:105920006A1CF1D0FFF7B4FB801BA84201D8002D00
:10593000EAD123689B6913F00203E5D1626C84F815
:10594000403042F020026264202284F8412084F832
:1059500042300120DDE72DE9F041069F04468846EC
:1059600016461D462268936938EA03030CBF0123DB
:105970000023B34201D000201EE06B1CF3D0FFF7E0
:1059800087FBC01BA84201D8002DEBD123689B697F
:1059900038EA03030CBF01230023B342E2D1636C56
:1059A000012043F020036364202384F84130002366
:1059B00084F8423084F84030BDE8F08170B5044688
:1059C0000D46164623689B699B0601D5002070BDD5
:1059D000324629462046FFF713FFB0B9FFF758FBC0
:1059E000801BA84201D8002DECD123689B6913F0DD
:1059F0002003E7D1626C84F8403042F020026264F8
:105A0000202284F8412084F842300120DFE77047EB
:105A100010B5044600284AD090F8413003F0FF0248
:105A20001BB980F84020FFF7F2FF242384F84130AF
:105A300023681A6822F001021A60626822F070621C
:105A40001A619A6822F400429A60D4E9022101297D
:105A500024D142F400429A605A68002042F0007259
:105A600042F400425A60DA6822F40042DA60D4E973
:105A700004210A43A16942EA0122DA60D4E907213C
:105A80000A431A601A6842F001021A602023606417
:105A900084F84130206384F8420010BD42F404428F
:105AA00002299A60D8D14FF400625A60D4E70120ED
:105AB000F3E7704710B5044698B10268242380F8D4
:105AC0004130136823F001031360FFF7F2FF002059
:105AD000606484F8400084F84100206384F8420048
