:020000040800F2
:100000000000082481030008351E0008371E000880
:10001000391E00083B1E00083D1E000800000000BD
:10002000000000000000000000000000B18C00088B
:100030003F1E000800000000418D0008D185000827
:10004000D1030008D1030008D1030008D103000840
:10005000D1030008D1030008D1030008D103000830
:10006000D1030008D1030008D1030008D103000820
:10007000D1030008D1030008D1030008D103000810
:10008000D1030008D1030008D1030008D103000800
:10009000D1030008D1030008D1030008D1030008F0
:1000A000D1030008D1030008D1030008D1030008E0
:1000B000D1030008D1030008D1030008D1030008D0
:1000C000D1030008D1030008D1030008D1030008C0
:1000D000D1030008D1030008D1030008D1030008B0
:1000E000D1030008D103000800000000D10300087C
:1000F000D1030008D1030008D1030008D103000890
:10010000D1030008D1030008D1030008D10300087F
:10011000D1030008D1030008411E0008D1030008E4
:10012000D1030008D1030008D1030008D10300085F
:10013000D1030008D1030008D1030008D10300084F
:1001400000000000000000000000000000000000AF
:10015000D1030008D1030008D1030008D10300082F
:10016000D1030008D1030008D1030008D10300081F
:10017000D1030008D1030008D103000800000000EB
:10018000D1030008D1030008D1030008D1030008FF
:10019000D1030008D1030008D1030008D1030008EF
:1001A0004D1E0008D1030008591E0008D1030008A5
:1001B000D1030008D1030008D1030008D1030008CF
:1001C000D1030008D1030008D1030008D1030008BF
:1001D000D1030008D1030008D1030008D1030008AF
:1001E000D1030008D1030008D1030008D10300089F
:1001F000D1030008D1030008D1030008D10300088F
:10020000D1030008D1030008D1030008D10300087E
:10021000D1030008D1030008D1030008D10300086E
:10022000D1030008D1030008D1030008000000003A
:10023000D1030008D103000800000000D10300082A
:10024000D1030008D1030008D1030008D10300083E
:10025000D1030008D1030008D1030008D10300082E
:10026000D1030008D1030008D1030008D10300081E
:10027000D1030008D1030008D103000800000000EA
:10028000D1030008D1030008D103000800000000DA
:0802900000000000D10300088A
:1002A00010B5054C237833B9044B13B10448AFF3B0
:1002B00000800123237010BD6001002400000000B5
:1002C0002C1F020808B5034B1BB103490348AFF3C9
:1002D000008008BD00000000640100242C1F0208FB
:1002E00001F0FF01102A2BDB10F0070F08D010F8E7
:1002F000013B013A8B422DD010F0070F42B3F6D1EB
:10030000F0B441EA012141EA014122F007047FF003
:1003100000070023F0E80256083C85EA010586EA5A
:10032000010685FA47F5A3FA87F586FA47F6A5FA96
:1003300087F68EB9EED1F0BC01F0FF0102F00702A2
:1003400032B110F8013B013A83EA010313B1F8D14D
:100350000020704701387047002D06BF354603382E
:10036000073815F0010F07D1013015F4807F02BF67
:10037000013015F4C03F0130F0BC0138704700BFB8
:10038000DFF834D0002103E00C4B5B5843500431BC
:100390000B480C4B42189A42F6D30B4A02E000235A
:1003A00042F8043B094B9A42F9D304F067FE21F06E
:1003B00041F800F0D1FF7047000008247C3E02089D
:1003C00000000024600100246001002414F00024D7
:1003D000FEE7704708B500F093FDBDE8084000F067
:1003E0001BBD00F08FBD4068704741607047000042
:1003F0004FF0E022D2F8FC3D43F08073C2F8FC3DA0
:10040000054B064AD3F8B01F0A43C3F8B02F1A6849
:1004100042F001021A607047001000E055CEACC5F2
:10042000511A01EB5301B1FBF3F07047014B5868CF
:10043000704700BF001000E0704710B504460C2163
:1004400020F01BFD204610BD036810B51B69044653
:1004500031B19847A26863689B1A1844606010BD68
:100460009847A060FBE7704710B50446042120F0D0
:1004700004FD204610BD000030B54FF4F07385B088
:100480004FF4207201210B25CDE900230523CDE98E
:1004900002136946002004F0DBFC04460A20E4B2A3
:1004A00004F068FE3CB1013DF3D1044B2E21044A17
:1004B000044820F011FD05B030BD00BFAC1F02089C
:1004C000C51F0208EF1F0208F0B585B00E460020D8
:1004D000154601A9124F04F06FFD019C74B1029BF7
:1004E000104A33601360039B0F4A2B60136004F0C3
:1004F0003BFE38600124204605B0F0BD04F034FE18
:100500003B6878339842F6D2064B1A68002AF2DD2F
:10051000054B1B68002BEEDD32602B60EAE700BF65
:10052000840100247C01002480010024032823D8B6
:10053000DFE800F0020A131A104B08211A68B2FA19
:1005400082F252090E4806E00C4B04215A68B2FAB6
:1005500082F252090B4805F08DB9084B02219A68C6
:10056000B2FA82F25209F5E7044B4FF48071DA686F
:10057000B2FA82F25209E5E7704700BF8801002411
:100580000004025800080258032823D8DFE800F0CE
:10059000020A131A104B08211A68003A18BF0122E8
:1005A0000E4806E00C4B04215A68003A18BF01229D
:1005B0000B4805F05FB9084B02219A68003A18BF52
:1005C0000122F5E7044B4FF48071DA68003A18BF56
:1005D0000122E5E7704700BF8801002400040258AB
:1005E0000008025803280FD8DFE800F00205090BC5
:1005F0000821064801E00421054805F040B9022120
:10060000FAE74FF48071F4E7704700BF0004025826
:100610000008025808B5032813D8DFE800F00205E7
:100620000D0F0821084801E00421084805F01CF9D5
:10063000431E5842584108BD0221F6E74FF480712D
:10064000F0E70020F4E700BF000402580008025859
:1006500070B5084D00240126E0B2FFF7DBFF18B1AA
:100660002B68012B18BF2E6001340435052CF3D103
:1006700070BD00BF88010024012380F8781080F845
:10068000793070470020704741640039024B18BF31
:1006900001211970704700BFDBE300240020704780
:1006A000836B0BB10846184770474FF6FF707047D1
:1006B000406803689B6918477047000038B50446D6
:1006C000FFF7C6FF204604F17C0500F00FFD23680C
:1006D00006492046D3F88C3098472846FFF788FE15
:1006E0000123256184F8703038BD00BF00C012D0EE
:1006F00008B503680446D3F88030984723689B6F99
:100700002046984700F010F923681B6FF8E710B5F2
:1007100004460BF0D7F823682046D3F8AC30BDE888
:100720001040184700F0D4BC00F0D8BC70B500F001
:10073000FBFC10490023C1F88430BFF34F8FD1F880
:10074000803043F6E074C3F3C900C3F34E335B015A
:1007500003EA0406024646EA8275013AC1F8745279
:10076000F9D2203B13F1200FF2D1BFF34F8FBFF32B
:100770006F8F70BD00ED00E000F086BC00F01CBD86
:1007800000F006BD00F08ABC0AF008BB10B50446B4
:10079000882120F072FB204610BD90F87A301BB102
:1007A000406803681B6818471846704790F8341073
:1007B0000D4B10B590F878401A788C4209D03AB9B0
:1007C0000A490B4A08881488108001220C801A708C
:1007D00010BD002AFCD0064A0449148808880C8001
:1007E00010800022F3E700BFD4E30024D2E300240A
:1007F000D0E3002470B50D46194635B9094B40F2D7
:10080000D221094A094820F067FBC0E90F52003A9B
:10081000074B18BF01221A700368BDE87040D3F877
:100820008C3018474C20020884200208D22002088D
:10083000DAE3002408B5094B1B888B4203D8084B28
:100840001B88934205D9074B9E21074A074820F091
:1008500043FB074B1980074B1A8008BDD0E30024E7
:10086000D2E30024172102087A210208D2200208CC
:10087000D6E30024D8E30024014608B5034B1868EA
:1008800001B101210BF038F8012008BDDCE30024A0
:100890000121002208B5084607F027FF0A4B18601F
:1008A00028B90A4B28210A4A0A4820F015FB0022E1
:1008B0000421012007F0B6FF074B186018B9074B59
:1008C0002C21034AF0E708BD9C010024982202086D
:1008D000E12202081023020898010024552302088F
:1008E000024B4FF0FF31186807F049BF9C0100240C
:1008F000014B186807F06EBF9C010024024B0021D9
:10090000186807F03CBF00BF9C010024FFF7F0BF50
:100910000023034803491A46006807F0BEBF00BF22
:10092000980100240400002413B50023074C01A9FA
:100930001A46206807F0E1FF4FF0FF33002201A9BB
:10094000206807F0DAFF02B010BD00BF9801002454
:1009500003685B6C18470120704703689B6A18475F
:1009600040F2EF3070470000054B4FF080620360AB
:10097000044BC3F88820BFF34F8FBFF36F8F7047CE
:10098000EC24020800E100E010B504464FF45A617F
:10099000FFF7EAFF204620F070FA204610BD000065
:1009A0000F4B82B0D3F8D42042F01002C3F8D42009
:1009B000D3F8D42002F010020192019ADA6F42F0CB
:1009C0001002DA67DA6F22F01002DA67054B064A86
:1009D0001A62064B4FF080629A6002B0704700BF07
:1009E00000440258A0470024F109000800E100E09B
:1009F000024B1B68586803685B691847DCE30024F6
:100A000070B504460A4B0C30002625466022606013
:100A10002672667245F8203B29460BF0C3F804F5B0
:100A20005A63EE602435AB42FBD1204670BD00BF57
:100A3000EC24020808B50B290BD8DFE801F01206F8
:100A4000100A0A0A0A0808080808012008BD05203B
:100A5000FCE7054B6521054A054820F03DFA0020DA
:100A6000F4E70220F2E700BF97230208B22302084E
:100A7000FC23020808B50A2909D8DFE801F01006AE
:100A80000E080808080606060600012008BD054BEA
:100A90008621054A054820F01FFA0020F6E70220CB
:100AA000F4E700BF972302083F240208FC23020852
:100AB0002DE9F84391F81D800C4607464146FFF7A3
:100AC000B9FF94F81E90054638464946FFF7B2FF35
:100AD000494606463846FFF7CDFFA18A628B434B55
:100AE000521A1A649A61228B521A1A61E28A586366
:100AF00042EA014220695A646268D863DA60276872
:100B0000802F28D0227F0FD8202F65D0402F63D090
:100B1000042F1AD045EA0265344BC84545F4003528
:100B2000DD615FD0324A44E0B7F5807F04D0B7F58D
:100B3000007FEFD12F4900E02F4941EA0262DA61DC
:100B4000E2681A625E62586132E045EA026242F48B
:100B50000032DA61F6E7A7683A1DDA62217F3A7857
:100B600045EA016545F40035DD615E62586142B1D8
:100B7000012A21D0214B4FF48871214A214820F0CD
:100B8000ABF9DA69798822F47F42013922F0100248
:100B900042EA01220121DA61144BDA6942F02002B3
:100BA000DA61DA699206FCD410229A600029B9D081
:100BB000154A1A60BDE8F883DA69FF39788822F4AB
:100BC0007F4218BF0121013822F0100242EA0022C0
:100BD00042F01002DA61DFE745EA0262034B42F4B9
:100BE0000032B6E740F20122E3E700BF00100052F6
:100BF00001020100090002000A0002008A24020822
:100C0000A4240208FC2302080102020038B50C46A5
:100C1000897FFFF72FFF174BA58AE28A586342EAC4
:100C2000054221695A64628BD963521B1A64256894
:100C3000082D0ED19A611A6158620F4A207F42EA4C
:100C40000062DA61E2681A620C4A5961D9601A607E
:100C500038BD0022D8611A61E1680A0A4809C1F367
:100C6000C40102F4784200F4FC6002430A439A6330
:100C7000034AECE7001000520900010001020200E3
:100C800001020300034B1A68D207FCD423229A60A6
:100C9000704700BF0010005230B5104C2568ED07BA
:100CA000FCD423250904FF2BA56041F001014FF07E
:100CB000020565636164E0630AD00949656241EA3F
:100CC0000363E361074B22626061E060236030BD33
:100CD000E561039BA363044BF8E700BF00100052DB
:100CE000090001000100020001000300012070471B
:100CF0000C2070470C2303FB0100083070470C23C5
:100D000003FB0100083070470120704743F2705028
:100D1000704743F2705303FB01000830704743F201
:100D2000705303FB0100083070470120704710200A
:100D3000704700EB01100830704700EB01100830DD
:100D40007047084601F0AABB034B10B50446036088
:100D500009F07DFD204610BDA425020810B504460B
:100D6000FFF7F2FF1421204620F087F8204610BD3F
:100D7000034B10B50446036009F069FD204610BD21
:100D80007025020810B50446FFF7F2FF43F27851D0
:100D9000204620F072F8204610BD0000034B10B52D
:100DA0000446036009F053FD204610BD3C250208AF
:100DB00010B50446FFF7F2FF1821204620F05DF839
:100DC000204610BD094B10B50446036000F556508F
:100DD0002430FFF7B9FF04F12C00FFF7C9FF04F13D
:100DE0001400FFF7DBFF204610BD00BFD825020826
:100DF00008B50248FFF7E6FF08BD00BFA4010024C4
:100E000010B50446FFF7DEFF43F21871204620F0CC
:100E100034F8204610BD00002DE9F34101F090F8B0
:100E20000024054601F090F8234601462246284654
:100E3000009412F097F8264B264A2046264D1A6059
:100E400002F052FB254811F0F5FF2B68BFF35B8FD2
:100E5000DB0736D4284620F012F890B3204C214FFF
:100E6000214B04F1140007F1180604F12C0823604B
:100E70006060C4F80880E760266109F0E9FC1B4B5C
:100E80004046636109F0E4FC194B3846E36209F01F
:100E9000DFFC04F54053174A03F5B760C3F8A425F7
:100EA00002F0EAFB224607F11401304602F0BAFBD9
:100EB000304601F0F3FA104820F02CF828461FF0D5
:100EC000EAFF0E4802B0BDE8F041FFF7F7BB00BFF4
:100ED00040E40024E8460024A00100240800002487
:100EE000A401002448370024D82502083C25020824
:100EF00070250208A4250208F10D000860460024B0
:100F0000704700000148FFF7F3BB00BF60460024B4
:100F100070B5254E254B264C3046264D2360FFF7F5
:100F20006FFD284616F0F8FA234B00224FF480712B
:100F300022481A8683F858205A6683F87020DC60AD
:100F4000C3E912121E49C3E91A121E490B604FF47D
:100F5000207101801C4801804FF4F0711B48018012
:100F60001B4801801B49C3E90422C3E90622C3E9E7
:100F70000822C3E90A22C3E90E22C3E91022C3E909
:100F80001422C3E91722C3E901650A701249C3F8A4
:100F9000802083F8342019605A671049C3F88420F0
:100FA0000F4A9967DA6770BDC03800243C200208F8
:100FB000BC380024EC46002460460024D0E3002422
:100FC00001000001DCE30024D6E30024D2E3002486
:100FD000D8E30024D4E30024C82102080000010162
:100FE0008C1F02080148FFF7BFBC00BFC0380024B7
:100FF0000020704781807047C18070470181704731
:10100000418170477047704770477047704710B410
:10101000C4880368121B84885B6D091B12B25DF8DB
:10102000044B09B218474FF6FF7383814FF0FF332B
:1010300003621368C3611060704790F825201AB1ED
:1010400090F8242002B118607047002070478B8808
:10105000838001207047704780F82610704790F811
:1010600026007047002210B5B1F90840B1F90A1006
:10107000028042808480C18010BD002202804280B4
:101080008280C28070470000034B902283F85A236D
:1010900083F85823704700BF00E100E0094A0A497D
:1010A000D3680A48C3F30A03013B9BB20B80116962
:1010B000C1F30A01013901801364536B43F001034A
:1010C000536370470010005072470024704700249B
:1010D000014BD3F8AC00704700100050024B0122C6
:1010E000C3F8AC105A6270470010005070B5044647
:1010F00009F0A9FE23685D6E0FF074F901462046E1
:10110000A84723682046054AD3F888504FF050413D
:101110000023AC46BDE87040604700BF006009D0C6
:1011200009F078BE09F082BE09F03EBE09F09FBF0B
:1011300090F8252012B103685B69184770470000DA
:10114000124A5369DB0370B51ED50023C2F8843000
:10115000BFF34F8FD2F8803043F6E074C3F3C90079
:10116000C3F34E335B0103EA0406014646EA817588
:101170000139C2F87452F9D2203B13F1200FF2D199
:10118000BFF34F8FBFF36F8F70BD00BF00ED00E066
:10119000084B4FF08062C3F88820BFF34F8FBFF336
:1011A0006F8F4FF08072C3F88820BFF34F8FBFF36B
:1011B0006F8F704700E100E0034B4FF080629A6050
:1011C0004FF080729A60704700E100E0002370B534
:1011D000124E05468380124B0360336893F8582003
:1011E0000AB1D86C00B998680368DB6A984733681D
:1011F000B0FA80F4D86C640930B10368DB6A9847B0
:10120000002808BF44F001042CB9064B2C21064AE3
:1012100006481FF061FE284670BD00BFDCE30024D5
:10122000E8260208E4250208422602087B26020876
:1012300010B5144C236823B3134B144A1B6C11884C
:101240008B4213D1124B198805F03CF8226892F8B2
:101250006A30013382F86A30FFF75AFB20680AF0DF
:1012600031FB0020BDE81040FFF760B905F02AF817
:10127000206803681B6A98470020BDE81040FFF70C
:1012800083B910BDDCE30024001000507247002435
:10129000704700240149002008F062BE7908000868
:1012A00008B5642007F015FAFBE7000070B59CB0A4
:1012B0004C22002109A820F014F82022002101A8C6
:1012C00020F00FF8022005F0E1F800230093204BF6
:1012D000DA6A22F00102DA62DB6A03F001030093AA
:1012E0001C4B9A6942F440429A619A6902F4404266
:1012F0000092009A9A699404FCD501224FF480333D
:10130000052102240025082609A816941B95CDE97D
:101310000923A023CDE914130423CDE91244CDE918
:101320001734CDE9196505F0EBFB3F2003234FF49B
:1013300080622146CDE90103402301A8CDE903568F
:10134000CDE90533CDE9072305F028FF1CB070BDBA
:1013500000040058004802580123D74A2DE980486C
:10136000C2F80831A2F5783299B0C2F80831D34BEF
:101370005A6912F4003211D1BFF34F8FBFF36F8F50
:10138000C3F85022BFF34F8FBFF36F8F5A6942F4F7
:1013900000325A61BFF34F8FBFF36F8FC74A536953
:1013A00013F4803323D1C2F88430BFF34F8FD2F8C7
:1013B000803043F6E074C3F3C900C3F34E335B01DE
:1013C00003EA0406014646EA81750139C2F8605213
:1013D000F9D2203B13F1200FF2D1BFF34F8F5369A5
:1013E00043F480335361BFF34F8FBFF36F8F1027E8
:1013F00003F080FE00210BA83A4601261FF071FF82
:10140000002403F033FF4FF01052AD4B0BA81C2506
:10141000ADF82C604FF002094FF003084FF01A0AA4
:101420004FF0400BCDE90C23A64B0E9303F03CFF8D
:101430004FF050430BA88DF834500C938DF82D606D
:101440008DF83740ADF83A4003F02EFF18230BA873
:101450008DF82D908DF8343040F201138DF83780DF
:10146000ADF83A3003F020FF4FF010430BA88DF891
:10147000345004250C938DF82D808DF83740ADF84D
:101480003A4003F011FF0BA88DF82D508DF834A0D1
:101490008DF837808DF83A6003F006FF284603F098
:1014A000F3FEFFF703FF142221460BA81FF019FFDC
:1014B000854B4FF484718548D3F8E02042F4807264
:1014C000C3F8E020D3F8E02002F480720092009A82
:1014D000D3F8E02042EA0902C3F8E020D3F8E02084
:1014E00002EA09020192019AD3F8E02042F48062F4
:1014F000C3F8E020D3F8E02002F480620292029A5E
:10150000D3F8E02042F04002C3F8E020D3F8E02016
:1015100002F040020392039AD3F8E0203A43C3F862
:10152000E020D3F8E0203A400492049AD3F8E02077
:1015300042F40072C3F8E020D3F8E02002F4007215
:101540000592059AD3F8E0202A43C3F8E020D3F8A7
:10155000E0202A400692069AD3F8E02042F080026A
:10156000C3F8E020D3F8E02002F080020792079A47
:10157000D3F8E02042F00802C3F8E020D3F8E020DE
:1015800002F008020892089AD3F8E02042F0200204
:10159000C3F8E020D3F8E02002F020020992099A73
:1015A000D3F8E0203243C3F8E0202246D3F8E030FD
:1015B00033400A930A9B04F05DF922460621444811
:1015C00004F058F929462246424804F053F93246BD
:1015D0004021404804F04EF94FF484730BA93B4876
:1015E000CDE90B36CDE90D4803F0B4FF06230BA976
:1015F0003748CDE90B36CDE90D4803F0ABFF0BA919
:101600003448CDE90B56CDE90D4403F0A3FF0BA9F7
:101610003048314DCDE90BB6CDE90D4903F09AFFC5
:101620002E482F4A848002600662C0E9054403F018
:1016300067FE342221460BA81FF053FE294A8F2152
:1016400040F20F3040F21F3CAC862C6185F83640EA
:10165000C5E900241D22C5E905292222C5E9071292
:1016600040F20222C5E909024FF403722846C5E997
:101670000BC2C5E9024404F02DFDFF204FF4806E3B
:101680004FF050434FF420714FF4F0720B941692C8
:10169000ADF85C408DF85E40CDE910040520CDE941
:1016A0001431CDE912E0CDE90C14CDE90E290BA9D6
:1016B0002246284618E000BF0060045100ED00E01B
:1016C0001200000301000101004402580004025806
:1016D0000008025800000258084800247C470024F3
:1016E000004C02580010005004F0BFFD3348344A4B
:1016F0000BA984621197C0E900262022C0E90424C6
:101700008022C0E90244C0E90624C0E90844CDE9CA
:101710000B77CDE90D77CDE90F7706F0C7FC2949A6
:1017200020460A6822F001020A6003F047FA2046C8
:1017300003F08EFA244B25484FF44032C0E902945E
:10174000C0E9003203F03CFE2148224AC0F810A054
:10175000C0F820B0C0E900284FF44072C0E902642C
:10176000C0E9052404F098FF204602F0B5FF40F2DE
:1017700003120BA92046ADF82C208DF82EB003F0F3
:1017800053F8204602F05CFF5C2003F05DFDFEF79D
:1017900021FEFEF71EFE06F029FF0F4A21460F48E4
:1017A00006F050FF0E4B0F4A214618600E4806F017
:1017B00049FF0E4B186006F02BFFFEE7B0480024EF
:1017C000404100520040005200100052A047002447
:1017D000885400240050005240270208A11200083B
:1017E000784700241C270208E303000874470024FC
:1017F0000268034B9A4201D103F0AABC704700BFB4
:1018000000100040704700000A4B82B00F216FF0BB
:101810000100D3F8F42042F00202C3F8F4200022C1
:10182000D3F8F43003F002030193019B02B003F0FC
:10183000CBBC00BF00440258026882B0094B9A42F8
:101840000DD1A3F50063D3F8E02042F40022C3F8E1
:10185000E020D3F8E03003F400230193019B02B0B1
:10186000704700BF004C02580F4B07B502689A4200
:1018700017D10E4B05215A20D3F8D42042F0100284
:10188000C3F8D4200022D3F8D43003F0100301931E
:10189000019B03F099FC5A2003B05DF804EB03F0C0
:1018A000C5BC03B05DF804FB0010005200440258B0
:1018B000F0B51422BBB0044600210DEB02001FF06E
:1018C00010FDC02200210AA81FF00BFD22683C4B2E
:1018D0009A4273D14FF00052002320210AA8CDE98B
:1018E0000A23A0230522CDE914230223CDE91633D0
:1018F0004FF40063CDE9181305F0C4FE08B1FFF7FB
:1019000081FF304B002402270326D3F8E4200E2564
:1019100005A92D4842F00802C3F8E420D3F8E420DA
:1019200002F008020192019AD3F8E02042F48062AA
:10193000C3F8E020D3F8E02002F480620292029A19
:10194000D3F8E02042F40072C3F8E020D3F8E0209E
:1019500002F400720392039AD3F8E02042F48072FA
:10196000C3F8E020D3F8E030099503F480730493C2
:10197000049BFF23CDE90746CDE9053703F0EAFDD7
:1019800048F67D6305A911480995CDE90537CDE9EC
:10199000074603F0DFFD4FF4704305A90C48099595
:1019A000CDE90537CDE9074603F0D4FD582022469E
:1019B0000F2103F009FC582003F038FC3BB0F0BDC8
:1019C0000010005000440258002802580024025819
:1019D000002002582DE9F041BCB004461422002139
:1019E00007A81FF07EFCC02200210CA81FF079FC84
:1019F0002268574B9A4240F0A7804FF000720023B4
:101A00000CA8CDE90C2305F03DFE08B1FFF7FAFE66
:101A1000504B022503240027D3F8D420092607A918
:101A20004D4842F480424FF00108C3F8D420D3F867
:101A3000D42002F480420192019AD3F8E02042F0CF
:101A40004002C3F8E020D3F8E02002F04002029206
:101A5000029AD3F8E02042F00402C3F8E020D3F861
:101A6000E02002F004020392039AD3F8E02042F04F
:101A70002002C3F8E020D3F8E02002F02002049214
:101A8000049AD3F8E02042F08002C3F8E020D3F8B3
:101A9000E02002F080020592059AD3F8E02042F09F
:101AA0000202C3F8E020D3F8E03003F0020306930B
:101AB000069B4FF48443CDE90735CDE909740B96B5
:101AC00003F048FD4FF4006307A924480B96CDE9C5
:101AD0000735CDE9098403F03DFD402307A91E48E1
:101AE000CDE909844FF00A08CDE90735CDF82C80FF
:101AF00003F030FDC02307A919480B96CDE907353F
:101B0000CDE9097403F026FD4FF4407307A914488A
:101B1000CDF82C80CDE90735CDE9097403F01AFD25
:101B20000C2307A90F480B96CDE90735CDE90974B9
:101B300003F010FD042307A90B480B96CDE90735E8
:101B4000CDE9097403F006FD3CB0BDE8F08100BFAB
:101B50000050005200440258001802580008025871
:101B600000140258001C025800040258026808B50C
:101B7000114B9A421FD1114A44F240211048D2F829
:101B8000D43023F48043C2F8D43003F0CDFD4FF4B9
:101B900000610C4803F0C8FD4FF470710A4803F06F
:101BA000C3FD0C21094803F0BFFD04210848BDE82E
:101BB000084003F0B9BD08BD00500052004402586F
:101BC000001802580008025800140258001C02585D
:101BD00000040258F0B5B7B00021142201A81FF08C
:101BE00080FB3F4B1968002977D1012208A81A60B1
:101BF000B8221FF076FB4FF08072002306A8CDE9D3
:101C0000062305F03FFD08B1FFF7FCFD354B022729
:101C100000260325D3F8D4200C2401A9324842F42D
:101C20008052C3F8D420D3F8D430059403F4805301
:101C30000093009B40F2FF63CDE90365CDE90137D6
:101C400003F088FC602301A928480594CDE90137F9
:101C5000CDE9036503F07EFC4FF6837301A92448A8
:101C60000594CDE90137CDE9036503F073FC4FF42A
:101C70007F4301A91F480594CDE90137CDE90365EC
:101C800003F068FC48F2111301A91B480594CDE943
:101C90000137CDE9036503F05DFC4CF2037301A944
:101CA00016480594CDE90137CDE9036503F052FCF0
:101CB0004FF63F0301A912480594CDE90137CDE95C
:101CC000036503F047FC012301A90E480594CDE903
:101CD0000137CDE9036503F03DFC37B0F0BD00BF2F
:101CE000E84800240044025800200258000402582A
:101CF00000100258001C025800180258000C02582C
:101D000000140258000802581A4B1A6810B582BB1A
:101D1000194A012440F2FF6118481C60D2F8D430FF
:101D200023F48053C2F8D43003F0FEFC6021144841
:101D300003F0FAFC4FF68371124803F0F5FC4FF400
:101D40007F41114803F0F0FC48F211110F4803F0F5
:101D5000EBFC4CF203710E4803F0E6FC4FF63F013A
:101D60000C4803F0E1FC21460B48BDE8104003F0AD
:101D7000DBBC10BDE4480024004402580020025897
:101D80000004025800100258001C025800180258A3
:101D9000000C025800140258000802580F2810B511
:101DA00004468AB002D901200AB010BD01460022C3
:101DB000362003F009FA362003F038FA184B69464A
:101DC00002A81C60174BD3F8E82042F01002C3F8B9
:101DD000E820D3F8E83003F010030193019B05F0ED
:101DE00037FB079BC3B905F021FB0F4C0F4B23605A
:101DF00040F2E733E3600E4BB0FBF3F00138002311
:101E0000606020462361A36006F016FB0028CAD15B
:101E1000204606F0B9F9C7E705F008FB4000E4E703
:101E20007800002400440258EC48002400100040D0
:101E300040420F007047FEE7FEE7FEE7FEE770470F
:101E4000014806F0E3B900BFEC480024014804F063
:101E5000AFB900BF08480024014803F0F0BA00BF42
:101E6000A04700240120704708B51FF0DDFA1623B3
:101E700003604FF0FF3008BD08B51FF0D5FA1623F8
:101E80000360FEE770B50D4614460E46731B9C4278
:101E900001DC204670BDAFF3008006F8010BF5E7CA
:101EA00070B50D4614460E46731B9C4201DC20465D
:101EB00070BD16F8010BAFF30080F5E74FF0FF306F
:101EC00070474FF4005300204B607047012070476B
:101ED000002070470A4A116808B5034609B9094944
:101EE00011601068694603448B4206D91FF09CFAC2
:101EF0000C2303604FF0FF3008BD1360FCE700BF08
:101F00003849002418F00024704710B50446042115
:101F10001EF0B3FF204610BD012908B506D00229E6
:101F200008D059B901F02CFB006808BD01F028FB6E
:101F30004068FAE701F024FB8068F6E70020F4E748
:101F400000487047782702080220704713B5002424
:101F500051B1036801AA01948DF803409C680DF10A
:101F60000303A04702B010BD0846FBE7C0897047D5
:101F7000008A7047C088704780887047807A00F078
:101F80007F007047807AC0097047806A7047704749
:101F9000704710B5044688211EF06FFF204610BD23
:101FA000F8B54FF48073044600250646838404F197
:101FB0007407254B8562C0E90155C0E90355C0E9A6
:101FC0000555C0E9075546F82C3B304609F094FE0C
:101FD0003846FFF7FBF81D4B29463046636724332C
:101FE000C4F88050E3671A4BA360FFF703F8294653
:101FF0003046FFF701F830469C21FEF7FFFF3046E0
:102000006A21FEF7FDFF4FF41C624FF4D4633046A3
:10201000B4216566C4E916234FF4C8632366A02380
:10202000E3664FF43453A36609F07EFE4FF0FF33AE
:1020300020463146C4F88030A4F88430676508F043
:1020400019FC2046F8BD00BFA8270208403402084A
:102050009C006A007047704710B504464FF49A71AF
:102060001EF00BFF204610BD2DE9F0411D46036810
:10207000044616461B6BBDF9187098472368314615
:1020800020465B6B98472368294620469B6B984700
:10209000236839462046DB6BBDE8F0411847000055
:1020A0004FF480732DE9F74F0446002506468384DC
:1020B000DFF8288104F19C0A464B04F1B0078562E1
:1020C00008F1240B04F59079C0E90155C0E90355E6
:1020D000C0E90555C0E9075546F82C3B30460AF0E3
:1020E000BDFC5046FFF772F83846C4F8A850C4F853
:1020F0009C80C4F8A4B00AF0B1FC4846FFF766F82B
:10210000354B2A462946A3606A233046C4F82C5131
:1021100000939C23C4F82081C4F828B1FFF7A4FFE2
:102120004FF0FF332A462946C4F8A8303046A4F8B9
:10213000AC30C4F854A00AF0A7FD4FF454624FF439
:102140009C5130460AF0ABFDA36EB3F5A07F05D0DD
:102150004FF4A0733046A3660AF0A0FC012130467C
:102160000AF0A8FD3146204608F084FB00226A23CD
:102170003846114600939C23FFF776FF4FF0FF335C
:1021800000224FF49C51C4F82C313846A4F8303169
:10219000C4F8D8900AF078FD4FF454620021384614
:1021A0000AF07DFDD4F8EC30B3F5A07F06D04FF4F3
:1021B000A0733846C4F8EC300AF070FC38460121B0
:1021C0000AF078FD2046394608F054FB204603B05B
:1021D000BDE8F08F3C2802089C006A0040340208E9
:1021E000704710B5044608211EF047FE204610BD7A
:1021F0007047704700F598730868496803C37047D3
:10220000704770474160704770470000064BC0F848
:102210004801C0F84C310023C0F8503100F5A273DA
:10222000C0F84031704700BFD1220008012303727B
:1022300070477047704710B441680346C2689B6896
:10224000541001EB6200D20748BF0A595DF8044BF5
:1022500048BFD358184743682BB183682BB9C0686F
:1022600000F001007047184670470120704710B514
:1022700004460C211EF001FE204610BD10B5044698
:1022800010211EF0FAFD204610BD10B504464FF493
:10229000AE711EF0F2FD204610BD10B50EF0A2F892
:1022A0000368BDE81040DB6B184710B50446D0F852
:1022B000400158B10368DB68984738B1D4F8400151
:1022C00003689B6898470023C4F8403110BD0000A4
:1022D0002DE9F14FD0E9555A0746A86803681B6AF3
:1022E000984743F26F53984205D8464BA321464A7C
:1022F00046481EF0F1FD686803681B6A98470F287E
:1023000003D8434BA421404AF2E7E86803681B6AFC
:1023100098470B2803D83F4BA5213B4AE8E7DFF855
:10232000FC900EF05FF804300EF081F8D9F8000050
:1023300010B10368DB689847D9F8000010B1036852
:102340001B689847DFF8D880D8F8000010B1036800
:102350005B699847D7F83C0110B103685B68984700
:10236000D8F8000010B103681B689847D7F83C0103
:1023700010B103689B689847E86800214FF0000B94
:1023800003685B6A9847244B0446C0F804B00360B6
:10239000594680F808B0A86803685B6A9847064603
:1023A00001F0F6FA6868594603685B6A9847054683
:1023B000314601F073F9C9F80040C7F83C51C8F83C
:1023C0000060E5B12B1DCAF8003030463368C5F80F
:1023D00008A0DB68F56398472B6828461B68984778
:1023E000214630460FF0BAFD236820461B69984706
:1023F000236820465B6901B0BDE8F04F18472B46C3
:10240000E1E700BFD8280208662902086E2A020800
:10241000B52A0208582B0208702C020824E4002474
:1024200020E40024044B1B6893F858200AB1D86CB0
:1024300000B99868704700BFDCE30024F8B5044693
:1024400017460E460EF094F8104B00251C602946E6
:102450000F4B23600F4BC4E951350F4B1868C4E98B
:1024600053550368C4E94F559B68C4E955769847AE
:10247000284601F039F8FFF7D5FF16F07CFEFFF78C
:10248000D1FF16F0F3FE2046F8BD00BF30E4002473
:102490001C2C0208042C0208DCE30024064BC0F8C4
:1024A0004801C0F84C310023C0F8503100F5A27348
:1024B000C0F84031704700BFD1220008406A704721
:1024C000806A704770478B88C069DB0A0A6850F8D9
:1024D00023001044704710B5C2B1137BB3B1547BD5
:1024E000D27A240204F4E0641443026A98B202EB44
:1024F000840213888B4202D192F9020010BD05D8E4
:102500000138043280B20028F3D1F7E70020F5E764
:1025100010B504462C211EF0B0FC204610BD000072
:1025200030B58BB00446BDF860500895BDF85C50DE
:1025300007959DF8505006959DF84C5005959DF8CF
:10254000485004959DF8445003959DF840500295DD
:102550009DF83C500195BDF8385000950FF068F893
:10256000064B20462360159BE361169B2362199B53
:1025700063621A9BA3620BB030BD00BF942C0208AB
:102580007047704710B50446DC211EF076FC2046EB
:1025900010BD00004FF480732DE9F04F044685B064
:1025A00000250646838404F15809474B4FF6FF7A0D
:1025B00004F18408856203A904F1B007ADF80CA00A
:1025C0004FF0010BC0E90155C0E90355C0E90555BD
:1025D000C0E9075546F82C3B30460AF06BFC03A9CE
:1025E0004846ADF80CA00AF065FC03A94046ADF8DA
:1025F0000CA00AF05FFC03A93846ADF80CA00AF065
:1026000059FC324B4FF0060A03A93046A360ADF8DF
:102610000CB00BF0EBFA4FF4F073DA222946304697
:10262000CDF800A0FFF720FD294630460AF0FDFB5B
:10263000314620464FF4A57608F01CF903A9484618
:10264000ADF80CB00BF0D2FA53462A4648469C210E
:102650000096FFF709FD294648460AF0E6FB494681
:10266000204608F007F903A94046ADF80CB00BF07E
:10267000BDFA53462A4640464FF49F710096FFF735
:10268000F3FC294640460AF0D0FB4146204608F0BC
:10269000F1F803A93846ADF80CB00BF0A7FA4FF4E7
:1026A000F0736A2229463846CDF800A0FFF7DCFC1B
:1026B000294638460AF0B9FB2046394608F0DAF8D0
:1026C000204605B0BDE8F08FF42C0208E0014A0175
:1026D0007047704770477047704770477047704742
:1026E0007047704770477047704770477047704732
:1026F00000F54373994270B504460D4602D1036854
:10270000DB6A984704F525739D4203D12368204670
:102710001B6B984704F244739D4203D12368204603
:102720005B6B984704F2CC639D4203D1236820463B
:102730009B6B984704F254639D4203D12368204663
:10274000DB6B984704F2DC539D4203D1236820469B
:102750001B6C984704F264539D4203D123682046C2
:102760005B6C984704F2EC439D4203D123682046FA
:102770009B6C984704F274439D4203D12368204622
:10278000DB6C984704F57F739D4203D12368204694
:102790001B6D984704F561739D4205D1236820465F
:1027A0005B6DBDE87040184770BD90F82C304BB1A0
:1027B00000F16C021268C2653BB100F174031B6842
:1027C0000366704700F16802F4E700F17003F6E772
:1027D0007047704730B444680346C2689B68551020
:1027E00004EB6200D20748BF625930BC48BFD358DF
:1027F000184743682BB183682BB9C06800F001000B
:102800007047184670470120704790F82D3080F8C7
:102810005A30704710B5044678211EF02EFB204632
:1028200010BD10B5044610211EF027FB204610BD38
:1028300010B50446983000F01DFF04F2BC7000F0A3
:10284000DBFE04F50F6000F0CBFE04F6781000F01C
:10285000C7FE04F5206000F0CFFE04F6343000F02F
:10286000BFFE04F6BC3000F0C7FE04F54F6000F078
:10287000B7FE04F6785000F0BFFE04F6AC60BDE889
:10288000104000F0B9BE10B50446006B50B10368AB
:10289000DB68984730B1206B21460368BDE81040E3
:1028A0009B68184710BD0B7970B504460D4690F82B
:1028B0002C609BB98EB9B3FA83F320465B0984F888
:1028C0002C302368D3F88C309847236820465B6906
:1028D000984716B12B79012B03D070BD002EFCD088
:1028E000E9E723682046D3F88830BDE870401847F0
:1028F000074A02600022C0E90122C0E90322C0E9C0
:102900000522C0E907224FF480728284704700BF1D
:1029100098390208036870B504461B6B1546984742
:102920002368204629465B6BBDE8704018470000CD
:1029300010B50446262200211EF0D3FC2046FFF7E6
:10294000D7FF044B20462360FF2384F82630002362
:10295000A36210BDF837020810B5044626220021F4
:102960001EF0BFFC2046FFF7C3FF0A4B4FF47F0267
:1029700020462360084BA3624FF6FF73A385002314
:10298000C4E90C324FF0FF322387E363C4E910231C
:1029900010BD00BF68370208D0280208036880F81D
:1029A0002D10D3F890301847034B10B50446036040
:1029B000FFF750FB204610BD1031020838B51D4B03
:1029C00004461D4D03600CF00DF804F6AC60FFF7F3
:1029D000EBFF04F67850FFF7E7FF04F54F60C4F80B
:1029E000F05CFFF7D4FA04F6BC30FFF7DDFF04F625
:1029F0003430C4F8345BFFF7CAFA04F52060FFF7FF
:102A0000D3FF04F67810C4F87859FFF7C0FA04F53C
:102A10000F60C4F8F058FFF7BAFA04F2BC70FFF781
:102A2000C3FF2046054B40F8983FFFF7A9FD20461D
:102A300038BD00BF3C2E02087C300208F831020885
:102A400010B50446FFF7BAFF43F2705120461EF05E
:102A500014FA204610BD10B50446FFF7A5FF4FF449
:102A60009A7120461EF009FA204610BD70B5044642
:102A7000FFF73EFF4FF47F4300252646A385012341
:102A8000A56284F824300D4B256346F8343B30466C
:102A9000FFF74EFF0A4B2A462946304663632566F8
:102AA000A4F86450C4E91A55C4E91C55FFF732FF75
:102AB0002046314607F0DEFE204670BD882D020814
:102AC0006038020810B40367019B5DF8044B43674C
:102AD0000368C0E91A12D3F88C3018472DE9F04F7B
:102AE000044600252DED108B8FB0A2460FF08AF81A
:102AF000EE4B04F16C09E5634AF8403B5046FFF7A2
:102B000017FF4FF6FF730CA94846ADF830300AF0B6
:102B1000D1F904F1980304F5BA7804F5DE7704F5E9
:102B2000137B18460EEE103A00F09AFD4046FFF770
:102B300013FF3846FFF710FF04F50173261D1846F2
:102B400008EE103AFFF708FF5846FFF705FF04F5B7
:102B5000257318460DEE103AFFF788FF04F543730E
:102B600018460DEE903AFFF781FF04F561731846A1
:102B700008EE903AFFF77AFF04F57F73184609EEE6
:102B8000103AFFF773FF04F27443184609EE903AC7
:102B9000FFF76CFF04F2EC4318460AEE103AFFF719
:102BA00065FF04F2645318460AEE903AFFF75EFFA1
:102BB00004F2DC5318460BEE103AFFF757FF04F20D
:102BC000546318460BEE903AFFF750FF04F2CC63C3
:102BD00018460CEE103AFFF749FF04F2447318460A
:102BE0000CEE903AFFF742FF04F2BC7318460EEE6B
:102BF000903A00F0F7FC04F50F6318460FEE103A18
:102C000000F0E4FC04F6781318460FEE903A00F05A
:102C1000DDFC04F520631846029300F0E3FC04F6A3
:102C200034331846039300F0D1FC04F6BC33184645
:102C3000049300F0D7FC04F54F631846059300F0A9
:102C4000C5FC04F678531846069300F0CBFC04F656
:102C5000AC631846079300F0C5FC04F54053944A52
:102C600004F57E60C3F864454FF41651C3F860253F
:102C7000904AC3F86C55C3F868250BF0A9FE4FF4D1
:102C8000F0732A462946504600934FF42073FFF70D
:102C9000EBF94FF07F4351463046A3664FF0FF3AC1
:102CA00007F0E8FD0CA94846ADF830500AF09EFF49
:102CB0004FF4F0732A462946484600934FF4207398
:102CC000FFF7D2F9294648460AF0AFF849463046A0
:102CD0000DF1200907F0CEFD86221EEE100A5021CC
:102CE000FFF718FE1EEE101A304607F0C3FD0E2245
:102CF0004046F421FFF70EFE41464846C4F8A4A121
:102D0000A4F8A8510AF0DAFB04F5D87399E8070093
:102D100083E80700684B0CA940460C930323ADF8E9
:102D200034300AF073FE4146304607F0A3FD5222CC
:102D3000384640F20721FFF7EDFD39464846C4F812
:102D4000ECA1A4F8F0510AF0B9FB04F5FC73DFF82C
:102D5000748199E8070083E80700574B0CA93846AF
:102D60000C930223ADF834300AF050FE3946304659
:102D700007F080FD522218EE100A1B21FFF7CAFD52
:102D800018EE101A4846C4F834A2A4F838520AF0D3
:102D900095FB04F51073484F99E8070083E8070096
:102DA00001230CA918EE100A0C97ADF834300AF084
:102DB0002DFE18EE101A304607F05CFD46225846EC
:102DC000FA21FFF7A7FD59464846C4F87CA2A4F8AB
:102DD00080524FF0440A0AF071FB04F5227399E81F
:102DE000070083E807000CA958460C97ADF834504B
:102DF0000AF00CFE5946304607F03CFD2A462946AB
:102E000004F53270CDF800A06023FFF72DF94FF0E4
:102E1000050304F5555B294FDFF8AC904246A4F852
:102E2000F8320BF1200B264B39461DEE100A0093A9
:102E30004B46FFF747FE60230E221DEE100ACDF829
:102E400000A04FF4FD71C4F8C4B2FFF70DF91DEEF8
:102E5000101A304607F00EFD2A46294604F5507038
:102E6000CDF800A06023FFF7FFF84FF00502144BE8
:102E700039461DEE900AA4F87023009342464B4653
:102E8000FFF720FE60230E221DEE900ACDF800A071
:102E900032214FF06A0AC4F83CB3FFF7E5F81DEEA3
:102EA000901A304607F0E6FC2A460FE03C2E020856
:102EB000242E0208F1260008D0280208996600FF97
:102EC000996633FFCC9900FF663300FF294604F56D
:102ED0006E709C23CDF800A0FFF7C6F8EB4B42467E
:102EE000394618EE900A0093A4F8E8534B46FFF7D2
:102EF000E9FD294618EE900AFFF750FD9C234FF498
:102F0000B37218EE900A4FF4CA71C4F8B4B3CDF896
:102F100000A0FFF7A9F818EE901A304607F0AAFCB7
:102F20002A46294604F586609C23CDF800A0FFF7C9
:102F30009BF8D64B4246394619EE100A0093A4F886
:102F400060544B46FFF7BEFD294619EE100AFFF705
:102F500025FD9C234FF4B37219EE100AF221C4F838
:102F60002CB4CDF800A0FFF77FF819EE101A304608
:102F700007F080FC2A46294604F595609C23CDF88D
:102F800000A0FFF771F8C14B4246394619EE900A8E
:102F90000093A4F8D8544B46FFF794FD294619EE48
:102FA000900AFFF7FBFC9C234FF4B37219EE900AD2
:102FB0005021C4F8A4B4CDF800A0FFF755F819EEDD
:102FC000901A304607F056FC2A46294604F5A460BC
:102FD0009C23CDF800A0FFF747F8AC4B424639469A
:102FE0001AEE100A0093A4F850554B46FFF76AFDFD
:102FF00029461AEE100AFFF7D1FC9C23F6221AEE9E
:10300000100A4FF4CA71C4F81CB5CDF800A0FFF740
:103010002BF81AEE101A304607F02CFC2A462946E7
:1030200004F5B3609C23CDF800A0FFF71DF8974B83
:10303000424639461AEE900A0093A4F8C8554B460A
:10304000FFF740FD29461AEE900AFFF7A7FC9C23E4
:10305000F6221AEE900AF121C4F894B5CDF800A03A
:10306000FFF702F81AEE901A304607F003FC2A46E2
:10307000294604F5C2609C23CDF800A0FEF7F4FFBA
:10308000824B424639461BEE100A0093A4F8405684
:103090004B46FFF717FD29461BEE100AFFF77EFC93
:1030A0009C23F5221BEE100A5021C4F80CB6CDF873
:1030B00000A0FEF7D9FF1BEE101A304607F0DAFB2E
:1030C0002A46294604F5D1609C23CDF800A0FEF7DE
:1030D000CBFF6E4B424639461BEE900A0093A4F894
:1030E000B8564B46FFF7EEFC29461BEE900AFFF759
:1030F00055FC9C2386221BEE900A4FF4CA71C4F83B
:1031000084B6CDF800A0FEF7AFFF1BEE901A304654
:1031100007F0B0FB2A46294604F5E0609C23CDF871
:1031200000A0FEF7A1FF594B424639461CEE100A9B
:103130000093A4F830574B46FFF7C4FC29461CEE19
:10314000100AFFF72BFC9C2386221CEE100AF121AB
:10315000C4F8FCB6CDF800A0FEF786FF1CEE101AEE
:10316000304607F087FB2A46294604F5EF609C238A
:10317000CDF800A0FEF778FF444B424639461CEEDE
:10318000900A0093A4F8A8574B46FFF79BFC2946EA
:103190001CEE900AFFF702FC9C2386221CEE900A8C
:1031A0005021C4F874B7CDF800A0FEF75DFF1CEE07
:1031B000901A304607F05EFB40F291121EEE900A24
:1031C0006FF09B01FFF7A6FB1EEE901A304607F04A
:1031D00051FB40F25F121FEE100A4FF42071FFF70F
:1031E00099FB1FEE101A304607F044FBF5221FEE44
:1031F000900A4FF42071FFF78DFB1FEE901A3046B6
:1032000007F038FB4FF4927202986FF09B01FFF7C2
:1032100081FB0299304607F02DFB8B2203984FF477
:103220002071FFF777FB0399304607F023FBBA22A2
:1032300004986FF09B01FFF76DFB0499304607F08F
:1032400019FB212205984FF42071FFF763FB0599C4
:10325000304607F00FFB502206986FF09B01FFF7F6
:1032600059FB0699304607F005FB6FF019020798E5
:103270006FF09B01FFF74EFB3046079907F0FAFA13
:1032800020460FB0BDEC108BBDE8F08F996633FF80
:103290007047000030B5164D8FB02C68BFF35B8FC0
:1032A00014F0010420D128461DF0E9FDE0B13F23D0
:1032B000012210490993104B10480893104B0A94AF
:1032C0000594CDE906430423CDE903320A23CDE971
:1032D0000B440093CDE90144FFF722F909481DF0A2
:1032E00019FE28461DF0D7FD04480FB030BD00BFC1
:1032F0003C4900245C0600902C3E02084049002412
:10330000543E0208913200087047000030B5174D56
:103310008FB02C68BFF35B8F14F0010422D12846D4
:103320001DF0ADFDF0B13F23132211490993114B5C
:1033300011480893114B0A940793012301940493B5
:10334000CDE905430423CDE902431423CDE90B4421
:1033500000931823FFF7E4F809481DF0DBFD284629
:103360001DF099FD04480FB030BD00BF6C4900242A
:103370006C060090303E020870490024583E020856
:10338000093300087047000030B5164D8FB02C6827
:10339000BFF35B8F14F0010420D128461DF06FFDB0
:1033A000E0B13F23012210490993104B10480893C4
:1033B000104B0A940594CDE906430423CDE903326A
:1033C0002823CDE90B440093CDE90144FFF7A8F889
:1033D00009481DF09FFD28461DF05DFD04480FB013
:1033E00030BD00BF9C49002478070090503E020881
:1033F000A04900245C3E0208853300080020704785
:10340000002070470EB403B503AB002153F8042B22
:1034100001930DF035FF02B05DF804EB03B0704787
:103420000CB407B504AB53F8042B01930DF028FF3F
:1034300003B05DF804EB02B070470000436C10B5B8
:10344000044673B3038F2BB9184BC521184A19488A
:103450001DF042FDC38E00EB43035B8C0BB30FF0FA
:10346000ADFA238F012B03D8134BCB21134AEEE780
:10347000E28E40F63F10531C9BB2092B194688BFC1
:10348000A3F10A0104EB4101498C814209D10A2BC5
:1034900004EB420228BF0023508C04EB4303588402
:1034A00051842046BDE810400FF08AB9942E0208DE
:1034B0009D2E0208482F0208922F0208A02F020812
:1034C0000FF047B910B586B002AC84E806001A4682
:1034D0000AAB214605930193099B0093089B0CF0CE
:1034E00003FB06B010BD000038B518BB124B1348E3
:1034F0001C681349B4B12268224402606268224405
:103500000A60A26814440F4B00221A8000F038F8B9
:10351000054600F033F80C4B1C600C4B1D600C4B47
:10352000188007E00B4B03600B4B0B600B4B1C68C8
:10353000002CE8D138BD00BFCC490024D04900247C
:10354000D4490024D849002434E400243CE4002475
:1035500038E4002498070090880700900408009041
:10356000044B1B6853F82100034B1B6803EB40001E
:10357000704700BFD4490024D0490024042070477C
:1035800000487047DC49002410B5054CFFF7BEFE2B
:103590002060FFF7F9FE6060FFF77CFEA06010BDC1
:1035A000DC490024034B10B504460360FEF7EFFC32
:1035B000204610BD7C30020810B50446FFF7F2FF2C
:1035C000882120461DF059FC204610BD10B5044648
:1035D000FEF7E6FC014B2046236010BD7C3002085C
:1035E000FEF7D6BC10B50446FEF75AFD014B204647
:1035F000236010BD10310208FEF72DBD704710B5D5
:1036000004464FF4AE711DF038FC204610BD10B5D5
:103610000446D0F8580100F032F82046BDE81040CA
:103620000CF062BF10B50446FEF708FF014B2046C0
:10363000236010BDA4310208034B10B5044603609B
:10364000FEF79EFF204610BDF831020810B5044673
:10365000FFF7F2FFDC2120461DF00FFC204610BDD5
:1036600010B50446FEF796FF014B2046236010BDBF
:10367000F8310208FEF785BF0022026070477047EC
:10368000704704387047704710B5044610211DF08C
:10369000F4FB204610BDA0F10400F5E70022C16054
:1036A0008260044A10B502F10804203204604260CE
:1036B00010BD00BF843202087047000070B5134C83
:1036C00016460D462368DA070AD403EBD373104A73
:1036D00009B25B1052F8230032B203689B6D984721
:1036E0002368002B03F00102B8BF5242012A08D11F
:1036F0005B10084A29B252F8230032B203689B6D6E
:10370000984723680133236070BD00BF0C4A002432
:10371000F8490024E8490024034B10B5044603602F
:10372000FFF74CF9204610BDB432020810B504462C
:10373000FFF7F2FF43F2705120461DF09EFB20463A
:1037400010BD000010B504468622502100F24470DE
:10375000FDF75DFC8622F12104F2CC60FDF757FCF9
:1037600086224FF4CA7104F25460FDF750FCF52232
:10377000502104F2DC50FDF74AFCF522F12104F25D
:103780006450FDF744FCF5224FF4CA7104F2EC409A
:10379000FDF73DFC4FF4B372502104F27440FDF785
:1037A00036FC4FF4B372F12104F57F70FDF72FFC66
:1037B0004FF4B3724FF4CA7104F56170FDF727FC42
:1037C0006FF019026FF09B0104F2BC70FDF71FFC53
:1037D0006FF019026FF09B0104F52060FDF717FCF4
:1037E0006FF019026FF09B0104F6BC30FDF70FFC7F
:1037F0006FF019026FF09B0104F67850FDF707FC9B
:103800006FF019026FF09B0104F6AC60FDF7FFFB4F
:103810006FF019026FF09B0104F50F60FDF7F7FBE5
:103820006FF019026FF09B0104F67810FDF7EFFBC3
:103830006FF019026FF09B0104F63430FDF7E7FBDF
:103840006FF019026FF09B0104F54F60FDF7DFFB8D
:10385000014B00221A6010BD0C4A002410B504462A
:10386000B0F94A27B0F94817FFF728FF6FF01A029E
:103870006FF09B0104F24470FDF7C9FB10BD10B559
:103880000446B0F9D226B0F9D016FFF717FF6FF053
:103890001A026FF09B0104F2CC60FDF7B8FB10BD7B
:1038A00010B50446B0F95A26B0F95816FFF706FFCE
:1038B0006FF01A026FF09B0104F25460FDF7A7FB52
:1038C00010BD10B50446B0F9E225B0F9E015FFF7D8
:1038D000F5FE6FF01A026FF09B0104F2DC50FDF769
:1038E00096FB10BD10B50446B0F96A25B0F968150D
:1038F000FFF7E4FE6FF01A026FF09B0104F26450D0
:10390000FDF785FB10BD10B50446B0F9F224B0F9FF
:10391000F014FFF7D3FE6FF01A026FF09B0104F270
:10392000EC40FDF774FB10BD10B50446B0F97A24E5
:10393000B0F97814FFF7C2FE6FF01A026FF09B0126
:1039400004F27440FDF763FB10BD10B50446B0F9F6
:103950000224B0F90014FFF7B1FE6FF01A026FF005
:103960009B0104F57F70FDF752FB10BD10B50446B6
:10397000B0F98A23B0F98813FFF7A0FE6FF01A029E
:103980006FF09B0104F56170FDF741FB10BD000075
:1039900010B50446FFF7A2F8104B04F2BC7204F510
:1039A0000F61236020460E4B1A600E4A116004F529
:1039B0002061596004F67811516004F6BC319960B9
:1039C00004F63431916004F67851D96004F54F6102
:1039D000D16004F6AC621A6110BD00BFB4320208B7
:1039E000F8490024E8490024FEF722BF0123002003
:1039F0008B704FF480530880C1E9013370474FF05A
:103A0000FF3070474FF0FF30704710B404690089F1
:103A1000A4465DF8044B604710B4C4680089A4460E
:103A20005DF8044B604713B501230C460DF1070206
:103A30000921183000F088F820B94FF4E4432360DE
:103A400002B010BD4FF0FF30FAE710B590F8243007
:103A5000044633B90368984728B9012384F8243011
:103A600010BD0020FCE74FF0FF30F9E710B590F8EB
:103A700024300446012B05D14368984720B984F8C7
:103A8000240010BD0020FCE74FF0FF30F9E74FF0B5
:103A9000FF3070474FF0FF3070474FF0FF307047F6
:103AA0004FF0FF3070474FF0FF30704730B500F1F6
:103AB000180585B00C460A2301AA0921284600F002
:103AC00043F808BB9DF80530A3F1830253425341EC
:103AD000236009219DF8063028469DF807201B0920
:103AE00043EA02139DF809205B0063609DF80830EB
:103AF0001B0943EA021301AA5B00A3600A2300F03A
:103B000023F8002005B030BD4FF0FF33E0E70000A0
:103B100090B14A680B6842600A8903600281CA68F2
:103B2000C2600A6902614A6900624261044AC26174
:103B3000044A826103B118474FF0FF30704700BF5D
:103B40000B3A0008193A000810B4D0E90140A44625
:103B50005DF8044B6047000008B50122074BC3E93C
:103B600000219A6000221946DA604FF6FF7204F0D5
:103B7000D3FA003818BF0120404208BD104A002483
:103B800008B50222084BC3E9002101210022C3E944
:103B900002124FF6FF72194604F0BEFA003818BF41
:103BA0000120404208BD00BF104A0024D1E9033281
:103BB00010B513434A690B4C13438A691343CA690E
:103BC0001343042222600A68214662600122C4E98C
:103BD00002234FF6FF7204F09FFA003818BF01204D
:103BE000404210BD104A002408B5084BC3E900212B
:103BF00008210022C3E902124FF6FF72194604F0B1
:103C00008BFA003818BF0120404208BD104A00243A
:103C100008B504F0A0FA003818BF0120404208BDE2
:103C200070B50C4609680546FFF796FF10B14FF0D6
:103C3000FF3070BD01F098FA064601F095FA864211
:103C4000FBD021682846FFF79BFF0028EFD12846CC
:103C5000D4E90012FFF7C8FF0028E8D12146284622
:103C6000FFF7A4FF0028E2D1A1682846FFF7D0FFA4
:103C7000003818BF01204042DBE74FF000624FF4EC
:103C800000534FF48071C0E900234FF48043C0E932
:103C900002314FF4002303610020704700B54FF458
:103CA000407395B04FF040720C9305230F9202229F
:103CB000069300230B9206A9139300930493039297
:103CC0006A46CDE90D33CDE91133102302934FF449
:103CD0008003059340F20113019341F2883302F00F
:103CE00035FE002814BF6FF00400002015B05DF809
:103CF00004FB032941F2883230B508BF4FF440730A
:103D000095B018BF4FF480730C4606A905460C9376
:103D1000062306930023CDE90D330F930B931393E2
:103D2000CDE9113302F017FD20BB40F2022302223D
:103D3000032C4FF4800104902846CDE900334FF066
:103D40001003CDE902324FF005036A46CDE90513B1
:103D50000CBF4FF040734FF0807306A90F9341F2F0
:103D6000883302F0F3FD00280CBF00206FF0040040
:103D700015B030BD6FF00100FAE7032930B508BF78
:103D80004FF440738FB018BF4FF4807304460D4654
:103D90000693B72300930023CDE9073309930593D6
:103DA0000D93CDE90B33FFF7A4FF58B941F28832E8
:103DB0006946204602F0CFFC20B929462046FFF78D
:103DC0006DFF08B16FF001000FB030BD30B5044693
:103DD0008FB0154603290ED8DFE801F0022E3944D2
:103DE0004FF4807206920C2200924FF48062079288
:103DF0004FF08072099208220193002369460592D0
:103E00004FF44052204608930392129ACDE90A23B8
:103E100041F28832CDE90C3302F09DFC38BB41F20F
:103E200088322946204602F032FD00280CBF0020CF
:103E30006FF003000FB030BD4FF480720692BC22C9
:103E400000924FF4006207924FF00072D2E74FF4F5
:103E500080720692EC2200924FF4406207924FF07B
:103E60004072C7E74FF440720692EB22F3E76FF01F
:103E70000100DFE700B54FF480738FB041F2883264
:103E800006933523694600930023CDE90733099350
:103E900005930D93CDE90B3302F05DFC002814BFB0
:103EA0006FF0010000200FB05DF804FB00B54FF487
:103EB00080738FB041F288320693F52369460093F0
:103EC0000023CDE90733099305930D93CDE90B3317
:103ED00002F041FC002814BF6FF0010000200FB079
:103EE0005DF804FB00B591B003290ED8DFE801F0BE
:103EF0000229343F4FF4807308930E2302934FF44A
:103F0000806309934FF080730B9308224FF4405362
:103F10004FF0004C02A907924FF080420593002316
:103F2000CDE90DC26A460A930F93CDE9003302F042
:103F30005DFD002814BF6FF00500002011B05DF892
:103F400004FB4FF4807308933D2302934FF4806386
:103F500009934FF00073D7E74FF480730893EE2373
:103F600002934FF4406309934FF04073CCE74FF452
:103F700040730893ED23F3E700B591B003290ED801
:103F8000DFE801F00225303B4FF4807308930C23E7
:103F900002934FF4806309934FF080730B930823CF
:103FA0006A4602A907934FF44053059300230A93EE
:103FB0000F93CDE90D33CDE9003302F017FD002852
:103FC00014BF6FF00500002011B05DF804FB4FF442
:103FD00080730893BC2302934FF4006309934FF05E
:103FE0000073DBE74FF480730893EC2302934FF4E4
:103FF000406309934FF04073D0E74FF44073089348
:10400000EB23F3E7032941F2883200B508BF4FF4F0
:1040100040738FB018BF4FF48073694606936623D0
:1040200000930023CDE90733099305930D93CDE960
:104030000B3302F090FB002814BF6FF0010000204A
:104040000FB05DF804FB032941F2883200B508BFC8
:104050004FF440738FB018BF4FF4807369460693D6
:10406000992300930023CDE90733099305930D931A
:10407000CDE90B3302F06FFB002814BF6FF0010095
:1040800000200FB05DF804FB012300208B704FF47B
:1040900080530880C1E9013370474FF0FF3070470B
:1040A0004FF0FF30704710B404690089A4465DF8F2
:1040B000044B604710B4C4680089A4465DF8044B03
:1040C000604737B540F6810300F118040D4601AA98
:1040D000ADF804308A210223204600F0BEF818B162
:1040E0004FF0FF3003B030BD01230DF103028A21F0
:1040F000204600F0ABF80028F2D143F210532B60B9
:10410000F0E730B540F6810387B000F118050C46A2
:10411000ADF8043002AAADF8083000210223284689
:1041200000F09BF878B14FF0FF33012B23603ED1B4
:10413000022301AA0021284600F08FF8D0B14FF0E9
:10414000FF3007B030BD0B2303AA8A21284600F0B8
:104150007DF80028E7D19DF80E209DF80D30134022
:104160009DF80F2013409DF810201340FF3B18BF0F
:104170000123DAE70B2303AA8A21284600F066F818
:104180000028DCD1BDF80D304FF420725BBA9BB231
:104190001B03B3FBF2F363604FF4F072BDF80F3012
:1041A0005BBA9BB21B03B3FBF2F3A360C9E7002029
:1041B000C7E710B590F82430044633B90368984730
:1041C00028B9012384F8243010BD0020FCE74FF00B
:1041D000FF30F9E710B590F824300446012B05D1E3
:1041E0004368984720B984F8240010BD0020FCE7FC
:1041F0004FF0FF30F9E74FF0FF3070474FF0FF30DE
:1042000070474FF0FF3070474FF0FF3070474FF06E
:10421000FF30704790B14A680B6842600A890360BA
:104220000281CA68C2600A6902614A690062426129
:10423000044AC261044A826103B118474FF0FF305B
:10424000704700BFA7400008B540000810B4D0E98F
:104250000140A4465DF8044B604710B404688068D0
:10426000A4465DF8044B60470F4A08B51368023B4B
:1042700013600BB1002008BD40210C4801F054FA36
:104280000A48802101F050FA094A0A48D2F8E83079
:1042900023F40013C2F8E83001F078FC0028E9D0DC
:1042A0006FF00700E7E700BF204A0024000402582F
:1042B00000440258285400240023012210B5416014
:1042C00004460362C0E90232C0E90433C0E90633A0
:1042D00001F00AFC014608B1012010BD204601F0A2
:1042E0002CFE01460028F7D1204601F04CFE003894
:1042F00018BF0120F1E70000A34BA4482DE9F04FBF
:10430000036093B0A24B1C68002C40F0CD800122CA
:104310001A6001F00DFE002840F0C6809D4D4FF060
:10432000120802270426D5F8E0300DA99A4843F078
:104330000203C5F8E030D5F8E03003F002030A9339
:104340000A9BD5F8E03043F00203C5F8E030D5F819
:10435000E0300F9403F002030B930B9B4023CDE955
:104360001076CDE90D3801F0F5F880230DA98A48C3
:104370001196CDE90D38CDE90F4701F0EBF8D5F8EE
:10438000E83043F40013C5F8E830D5F8E83003F41A
:1043900000130C930C9BD5F8903043F40013C5F830
:1043A0009030D5F8903023F40013C5F8903003F026
:1043B0003DF8002872D0794B40F6F6162246A14609
:1043C00003EB50034FF0100ADFF8D8B1B3FBF0F065
:1043D0006FF01D0300EB4005A6EB800601465B1B5A
:1043E00026EAE67623EAE37300936D4B1B68884662
:1043F0004FF0000C40F27935CDF804C00CF1010CFF
:10440000A8455ED90027BE46009DBD4253D8BE4296
:1044100051D392454FD0142505FB03FA0133019D7A
:104420000BEB0A097F2B4BF80A20C9E9015E3FD943
:104430005B4A13605A4B42F210725A4900271B68BC
:1044400003924FF0FF3205934300019203F13205CE
:10445000C3F5905BA3F511530BF10C0B09950A3BC7
:104460000293059B9F4238D1019B7F2B16D81421C4
:10447000019A4C4B4A4399189B580C7C44EA0374AC
:104480004B681B0503F470031C438B681B0403F487
:1044900070231C43CB681B029BB21C4321463B4844
:1044A000FFF70AFF00286CD1002013B0BDE8F08FA1
:1044B00092464FF001090EF1010E0F44BEF1100FAC
:1044C000A2D1BCF1100F884494D101320144102ACA
:1044D0008DD1B9F1000FABD1ACE70B684FF0000CF8
:1044E000099D03FB0003029E1D441E440495ABEB93
:1044F000030508966D000095049D41F25C22CDF8FD
:1045000018C0A5F132060CF1010C95422ED9B0EB82
:10451000960F2BD2089E4FF0000EDDF810802E442F
:10452000DDF8009006F2836A41F24702CDF81CE004
:104530000EF1010E924512D8B8F57A6F0FD34045AF
:104540000DD236EA260A28BFCA46039A924506D2F9
:10455000069ACDF80CA00A61079A0197CA60BEF5C9
:10456000807F1E44A9EB03099844DBD1009ABCF577
:10457000807F1D44A2EB03020092BED101371431AB
:104580006FE76FF0070090E70054004028540024C4
:10459000204A0024004402580004025800CA9A3BF2
:1045A00024540024244A00241FB542F210740092BF
:1045B0000A4601460848CDE90134012301F000FB19
:1045C00040B1054801F0B7FC04280CBF6FF065004E
:1045D0006FF0030004B010BD285400241FB542F250
:1045E000107400920A4601460848CDE901340123BF
:1045F00001F0C0FB40B1054801F09DFC04280CBF50
:104600006FF065006FF0030004B010BD2854002463
:1046100000F0AABD094A4FF4407C02604A6842603B
:10462000012282608A68C2600A6802610022C0E9D1
:1046300005C2C261CA68026202F02EB80050005280
:1046400010B588B90A4C0B48A37861784BB9FFF7CD
:1046500093FC10B16FF0040010BD02230020237002
:10466000FAE7FFF73FFCF4E76FF00100F4E700BF63
:104670007C540024885400247FB5F8B9144D2B785D
:10468000022B1ED1134C204602F0F1F918B16FF045
:10469000030004B070BD10232046E36001F0FCFF6E
:1046A00003460028F3D101260DF10F026978204658
:1046B0000096FFF78BFB38B92E70EAE76FF0010028
:1046C000E7E76FF01A00E4E76FF00400E1E700BFEE
:1046D0007C5400248854002438B5002858D12E4C2E
:1046E0002378022B4DD00023402504212B48238022
:1046F000A370656001F018F82946294801F014F804
:104700004FF48071274801F00FF84FF400712548ED
:1047100001F00AF88021234801F006F829462148D3
:1047200001F002F84FF400611F4800F0FDFF042182
:104730001E4800F0F9FF08211C4800F0F5FF4FF477
:104740000071174800F0F0FF4FF48041144800F06A
:10475000EBFF174B1748DA6F42F48042DA67DA6FE3
:1047600022F48042DA67D3F8D42022F48042C3F8DE
:10477000D42001F0DFFF00280CBF00206FF0030001
:1047800038BDFFF779FF0028ADD06FF00400F7E7E0
:104790006FF00100F4E700BF7C54002400040258CD
:1047A000001802580014025800080258001C025851
:1047B0000044025888540024F8B50C46174630BB14
:1047C000174D2B78022B25D0B2FA82F3154E5B09D8
:1047D00030461B01F36001F05FFFF0B96B78032BEB
:1047E0000FD1032C05D1012300206C702B70AF700A
:1047F000F8BD3046FFF75AFB0028F4D06FF00400F4
:10480000F6E7032CEFD13046FFF734FBF4E76FF007
:104810000100EDE76FF01900EAE76FF00300E7E74A
:104820007C540024885400242DE9F04F0C46A5B098
:10483000002840F0BB81034D2F782FB1002025B018
:10484000BDE8F08F7C540024C44B09264FF0040AC5
:104850004FF0030BD3F8D42016A9C1484FF04008FD
:1048600042F480424FF00A09C3F8D420D3F8D42090
:1048700002F480420192019ADA6F42F48042DA67D0
:10488000DA6F22F48042DA67D3F8E02042F00202C5
:10489000C3F8E020D3F8E02002F002020292029A6C
:1048A000D3F8E02042F04002C3F8E020D3F8E02043
:1048B00002F040020392039AD3F8E02042F0200273
:1048C000C3F8E020D3F8E02002F020020492049A1A
:1048D000D3F8E02042F02002C3F8E020D3F8E02033
:1048E00002F020020592059AD3F8E02042F020025F
:1048F000C3F8E020D3F8E02002F020020692069AE6
:10490000D3F8E02042F02002C3F8E020D3F8E02002
:1049100002F020020792079AD3F8E02042F0040246
:10492000C3F8E020D3F8E02002F004020892089ACD
:10493000D3F8E02042F08002C3F8E020D3F8E02072
:1049400002F080020992099AD3F8E02042F0800236
:10495000C3F8E020D3F8E02002F080020A920A9A1D
:10496000D3F8E02042F04002C3F8E020D3F8E02082
:1049700002F040020B920B9AD3F8E02042F0400282
:10498000C3F8E0200222D3F8E03003F040030C9398
:104990000C9BCDE916A2CDE9187B1A9600F0DAFD42
:1049A000012316A96F481893CDF85880CDF8689068
:1049B00000F0D0FD02224FF4006101236A481A96EC
:1049C000CDE9161216A9CDE9183B00F0C3FD4FF44E
:1049D000807316A9654816931897CDF8689000F073
:1049E000B9FD16A9CDF858A061484FF4007A1A967F
:1049F00000F0B0FD16A95D48CDF858A0CDF868903C
:104A000000F0A8FD082316A9594816931A9600F03D
:104A1000A1FD802316A9554816931A9600F09AFD19
:104A200016A95048CDF858A000F094FD16A94F489B
:104A3000CDF8588000F08EFD4FF4804316A9494808
:104A4000169300F087FD3A460F215C2000F0BCFB76
:104A50005C2000F0EBFB11A8FFF70FF96378454AE3
:104A6000CDF8408052F823200E92119A92FAA2F2C9
:104A7000B3FA83F3B2FA82F20DA93F485B09013A17
:104A80001B010D920F93FFF7C5FD002840F09180A8
:104A900059463948FFF7B6FA00287CD159463648BE
:104AA000FFF7D1FA002876D169783348FFF7F6F896
:104AB000014600286FD13048FFF7A4FA01460028CC
:104AC00069D12D48FFF7BFFA0146002863D10123C1
:104AD000A87029482B80FFF7E1F800285BD169789E
:104AE0002548FFF74AF9002855D14FF44073ADF837
:104AF00002001B9041F288321C93852316A916935D
:104B00004FF040731F930223CDE91D00CDE9203003
:104B1000CDE92200184801F01EFE00283BD141F2E9
:104B200088320DF10201144801F0B1FE98BB69789A
:104B30001148FFF7DEF870BB812341F2883216A9D5
:104B40000D481693BDF8023023F0F0031B051B0D32
:104B500043F4004343F0800310E000BF00440258D8
:104B600000040258001802580008025800140258A5
:104B7000001C02581033020888540024ADF802309B
:104B800001F0E9FD38B941F288320DF102010A481D
:104B900001F024FE10B16FF0040050E66278217835
:104BA000FFF70AFE00283FF449AEF4E76FF001007A
:104BB00045E66FF0030042E68854002410B5044631
:104BC00070B9094B0948036003F098FA7A2000F0A5
:104BD0003BFB0748074B036001F001FC204610BD7A
:104BE0006FF00100FBE700BF40410052D4540024A5
:104BF000085500244000005201221449022310B538
:104C0000C0E90012826004212022402488B0C0E95B
:104C100003124FF4C0720793C0E9054200224FF41B
:104C20000064C0E907244FF48054C0E90942072218
:104C3000CDE903126944CDE90132CDE9053303F032
:104C400035FA003818BF012008B010BD40410052AD
:104C5000F0B505468FB0002840F0DD80714B03278A
:104C600009A97148D3F8D420704C42F48052704E98
:104C7000C3F8D420D3F8D42002F480520192019AD0
:104C8000D3F8D42042F00102C3F8D420D3F8D420C2
:104C900002F001020292029AD3F8E02042F00802E8
:104CA000C3F8E020D3F8E02002F008020392039A50
:104CB000D3F8E02042F01002C3F8E020D3F8E0205F
:104CC00002F010020492049AD3F8E02042F020028D
:104CD000C3F8E020D3F8E02002F020020592059A04
:104CE000D3F8E02042F04002C3F8E020D3F8E020FF
:104CF00002F040020692069AD3F8E02042F08002C9
:104D0000C3F8E020D3F8E02002F080020792079A6F
:104D1000D3F8E02042F48072C3F8E0200222D3F8F6
:104D2000E03003F480730893089B0123CDE90A2344
:104D30000C23CDE90C734CF20373099300F00AFCC9
:104D40004FF6837309A93B48099300F003FC4FF623
:104D50003F0309A93848099300F0FCFB48F23F13D0
:104D600009A93648099300F0F5FB4FF6E07309A94D
:104D70003348099300F0EEFB40F2FF6309A9314884
:104D8000099300F0E7FB4FF080414FF0805340F271
:104D9000022040F6080234632664C4E90113C4E922
:104DA0000502802320222046A362C4E90723C4E928
:104DB00003354FF00072244B62622360C4E90B5547
:104DC000C4E90D5501F00BFB204601F099FA2A4683
:104DD0000F217A2000F0F8F97A2000F027FA304607
:104DE000FFF70AFFD0B919490823C1E9003740F29B
:104DF00003630861C1E902303023C1E905304FF493
:104E000000733046CB61FEF70BFF002818BF6FF030
:104E100004000FB0F0BD6FF00100FAE74FF0FF3073
:104E2000F7E700BF00440258000C025874550024F4
:104E3000D4540024001002580014025800180258DC
:104E4000001C02580020025840000052E055002487
:104E50002DE9F0470C4688B0002840F092800B689E
:104E60005A1EB2F5207F80F08C804A68511EB1F541
:104E7000F07F80F08680934228BF1346E2689A4212
:104E80007FD80823404D414E414F0DEB0301DFF821
:104E90001C81DFF81C91DFF81CA101902846ADF8B9
:104EA000103002960397CDF81880CDF81490CDF805
:104EB0001CA0FEF72DFEB0B10023364D02A9CDF89F
:104EC0001CA0019380232846ADF81030CDE902677D
:104ED000CDE90598FFF79EF9002839D06FF006005C
:104EE00008B0BDE8F08701A92846FEF79CFD002820
:104EF000E2D1019BB3F5E44FDED1274B2846274A88
:104F00001D60274B13601B6898470028D4D1236885
:104F100002A9244D204A2B60636810686B60A36867
:104F2000AB60E368EB601D4B1B68DB6998470028AA
:104F300024DB039B002022682B61049B6B61E368E8
:104F40001A440132AA61626813440133EB61C7E776
:104F500001A92846FFF7B5F80028BFD1019A43F20E
:104F600010539A42BAD10C4B28460C4A1D600E4B86
:104F700013601B6898470028C9D0AFE76FF00400A2
:104F8000AEE76FF00100ABE700560024F9420008DD
:104F90006942000828560024505600247456002404
:104FA0000C000024545600243C000024DD45000879
:104FB000A9450008114600082DE9FF410C460028CC
:104FC00053D12B4B01A92B4A1B6810681B699847CA
:104FD000002847DB28490198D1E9066500283DD023
:104FE000D1F808E0D1F810801EF0080FDDE902C703
:104FF00019BF3B4662463A4663461EF0020F1CBF8D
:1050000008F1FF33A3EB0C03D1F814C01EF0040F1A
:1050100018BFACEB07020F687B434F6820607A43F0
:10502000CF68B3FBF8F3B2FBFCF2B3426360A2605B
:105030008CBFA3EB060CA6EB030CAA428CBF501B43
:10504000A81A674501D3874205D2C1E9063200207C
:1050500004B0BDE8F081C4E90165F8E7C4E90006E1
:10506000A560F5E76FF00400F2E76FF00100EFE7ED
:1050700074560024505600245456002418491948E8
:10508000D1F8883043F4700310B5C1F88830164B5E
:105090001A6842F001021A6000221A611C6820405E
:1050A00018609A61DA611A629A62DA621A635A6364
:1050B0009A63DA631A645A64186820F480201860CE
:1050C0001A660A4B1B681B0C1B04B3F1005F03D26A
:1050D000074B0122C3F808214FF000638B6010BD1D
:1050E00000ED00E07FEDF6EA004402580010005C9D
:1050F0000080005110B5032000F054F801F0ACFF1F
:105100000F49104A8B69C3F30323D35C03F01F03D9
:10511000D8408B6903F00F03D35C0B4A03F01F03E5
:1051200020FA03F31360094B18600020FCF736FEE9
:10513000044618B9FCF768FB204610BD0124FBE7C4
:105140000044025818330208700000246C00002448
:10515000034A044B11681B780B441360704700BF6F
:105160007856002474000024014B1868704700BF73
:105170007856002438B50446FFF7F6FF0546631C51
:105180001EBF044B1B78E418FFF7EEFF431BA3423E
:10519000FAD338BD74000024014B1868000C704726
:1051A0000010005C07490302CA6803F4E06322F4BC
:1051B000E0621204120C134343F0BF6343F4003364
:1051C000CB60704700ED00E0164B30B5DC68C4F3EF
:1051D0000224C4F10703251D042B28BF0423062D38
:1051E0004FF0FF358CBF033C002405FA03F3002881
:1051F00005FA04F521EA030322EA050203FA04F39F
:1052000043EA02034FEA0313DBB206DB00F160401E
:1052100000F5614080F8003330BD00F00F00024A15
:105220001354F9E700ED00E014ED00E0002807DB7F
:105230000123410900F01F00024A834042F8213057
:10524000704700BF00E100E000280CDB43090122A9
:1052500000F01F0004492033824041F82320BFF3AF
:105260004F8FBFF36F8F704700E100E0BFF35F8F98
:10527000044B5A6A22F480325A620022C3F8942006
:10528000704700BF00ED00E0064B40F00100C3F89E
:1052900094005A6A42F480325A62BFF34F8FBFF3D0
:1052A0006F8F704700ED00E04378144A10B5C2F8E4
:1052B00098300178E9B14368C2F89C30C37A047B26
:1052C0001B0643EA04730B43817A43EAC143417BE3
:1052D00043EA8143817B43EA4143C17B43EA014383
:1052E000417A43EA0123017A43EA4103C2F8A0303C
:1052F00010BDC2F89C10C2F8A010F9E700ED00E064
:1053000010B5044608B9012010BD437F03F0FF0229
:1053100013B90277FCF790FA022363772379E3B994
:105320002368134A5A619A6822F018029A606279D7
:105330002368D2B94FF0FF321A6100209A68616980
:1053400022F060020A43A1699A609A6822F0800202
:105350000A439A6001236377D6E7D4E90212204614
:1053600000F008F80028E2D0CDE72269E4E700BFAA
:10537000B71DC104CB0710B50CD51F23013B1CD3AF
:1053800021FA03F4E407F9D5102A12D004D83AB16F
:10539000082A10D001200BE0182AFBD1062BF9D8DF
:1053A00000684161836823F0180313438360002081
:1053B00010BD072BF3E70F2BF1E7002AEAD1EFE747
:1053C00010B50446002836D090F8613003F0FF0293
:1053D0001BB980F86020FCF747FA0223E069626895
:1053E00084F8613023680243A069196821F4E02140
:1053F00021F040010A431A60596BA26821F48371BD
:10540000024321F001010A43E1685A631A6C120C4D
:1054100012040A431A64596BD4E9040221F44011BE
:10542000520542EA005200200A435A630123606693
:1054300084F8613010BD0120FCE7704770470368B5
:1054400070B55E6804461D68F20714D5E90512D5EB
:105450001A6822F480721A60426E42F001024266BB
:1054600001229A60042380F86130002380F86030C4
:10547000436A03B19847B20616D5AB0414D5236826
:105480001A6822F400521A6020229A60636E43F078
:1054900002036366042384F86130002384F86030DB
:1054A000636A0BB120469847300716D5290514D5F5
:1054B00023681A6822F400621A6008229A60636EF8
:1054C00043F004036366042384F86130002384F806
:1054D0006030636A0BB12046984772070BD56B05A5
:1054E00009D5236820461A6822F480621A600422D3
:1054F0009A60FFF7A2FFB00714D5A90512D523685B
:105500001A6822F400721A6002229A60636E63665F
:10551000012384F86130002384F86030236A0BB1E2
:1055200020469847F20613D5EB0411D52368204690
:105530001A6822F480521A6010229A60636E6366C1
:10554000012384F86130002384F86030FFF776FF90
:1055500070BD00002DE9F74F0023DFF8C8914FF030
:10556000B0440A6832FA03F502D103B0BDE8F08F07
:105570004FF0010E0EFA03FE1EEA020200F0BC809C
:105580004E684FEA43084FF0030C06F003050CFA8F
:1055900008FC6F1E6FEA0C0C012F34D8876807EAED
:1055A0000C0ACF6807FA08F747EA0A0787604768D6
:1055B00027EA0E0EC6F300179F4047EA0E07476022
:1055C000C768022D07EA0C0E8F6807FA08F747EA4A
:1055D0000E07C76019D14FEAD30A03F0070B4FF04B
:1055E0000F0E00EB8A0A4FEA8B0BDAF820700EFAE6
:1055F0000BFE27EA0E0E0F6907FA0BF747EA0E07B4
:10560000CAF8207001E0032DDAD1076805FA08F521
:1056100016F4403F07EA0C0745EA070505606BD022
:10562000D9F8F45023F0030703F0030C45F002050A
:1056300007F1B0474FEA8C0CC9F8F45007F58067C2
:10564000D9F8F45005F002050195019D0F25D7F812
:1056500008E005FA0CF52EEA050E314DA8424DD0B2
:1056600005F58065A8424BD005F58065A84249D074
:1056700005F58065A84247D005F58065A84245D06C
:1056800005F58065A84243D005F58065A84241D064
:1056900005F58065A8423FD005F58065A8423DD05C
:1056A00005F58065A8420CBF09250A2505FA0CF509
:1056B00016F4801F45EA0E05BD606FEA02072568F3
:1056C0000CBF3D40154316F4001F256065680CBFF4
:1056D0003D40154316F4003F6560D4F884500CBF7C
:1056E0003D401543F603C4F88450D4F8805054BFAD
:1056F0003D401543C4F88050013332E70025D5E71B
:105700000125D3E70225D1E70325CFE70425CDE71F
:105710000525CBE70625C9E70725C7E70825C5E71F
:1057200000000258004402582DE9F04F0022DFF833
:105730002881DFF82891DFF828A1DFF828B131FAB5
:1057400002F301D1BDE8F08F012303FA02FC1CEA49
:1057500001066BD022F0030402F003070F253D4B36
:1057600004F1B044BF00984205FA07F5D4F808E404
:1057700004F5806405EA0E0E5AD003F58063984262
:1057800058D003F58063984256D003F58063984261
:1057900054D003F58063984252D0404552D04845DA
:1057A00052D0504552D0584552D003F5A05398429C
:1057B0000CBF09230A23BB40734519D14FF0B043F6
:1057C000D3F8807027EA0607C3F88070D3F8847096
:1057D00027EA0607C3F884705F6827EA06075F6058
:1057E0001F6827EA06071F60A36823EA0503A36072
:1057F00055000323046802F00707AB400F26BF00E3
:105800001C43BE400460D40800EB8404256A25EAEA
:1058100006052562C46824EA0304C460446824EAD7
:105820000C044460846824EA03038360013286E741
:105830000023C0E70123BEE70223BCE70323BAE746
:105840000423B8E70523B6E70623B4E70723B2E746
:105850000823B0E70000025800140258001802584C
:10586000001C0258002002580369194214BF01208D
:10587000002070470AB1816170470904FBE7436962
:1058800001EA030221EA030141EA02418161704712
:1058900003689A69910701D500229A629A69D20732
:1058A00003D49A6942F001029A61704730B5039DB2
:1058B000C1F3090104682B43606843EA0243054AC7
:1058C0000B4342EA555223F0004320EA020003430F
:1058D000636030BDFF63FF0303682DE9F0419C69FD
:1058E00005460F46164614F010046FD0002410220F
:1058F000A046DA612B689A69900661D4B8F1000F6E
:1059000035D044F0040401202E68B369D90505D5CB
:105910004FF4807244F001040120F2615A0505D56C
:105920004FF4806244F008040120F2619B054FD5DA
:105930004FF4007344F00204F3612846FFF7A8FF18
:105940007368012023F0FF7323F48B3323F4FF7378
:1059500023F0010373606B6C23436B64202385F891
:105960004130002385F8423085F8403032E07A1C1F
:10597000C1D0FFF7F9FB801BB84201D8002FB9D185
:105980002B68596895F842209869D2B200040AD56C
:10599000490408D4202A06D05A6842F480425A604A
:1059A000FFF7E2FB06462B689B699B06A2D4FFF734
:1059B000DBFB801B1928F6D920244FF0010899E75A
:1059C000B8F1000F9DD12022DA619AE720469BE7CB
:1059D0000028B2D1BDE8F08170B504460D461646E8
:1059E00023689B699B0701D5002070BD324629467C
:1059F0002046FFF771FFC0B96A1CF1D0FFF7B4FB76
:105A0000801BA84201D8002DEAD123689B6913F0BE
:105A10000203E5D1626C84F8403042F020026264F7
:105A2000202284F8412084F842300120DDE72DE96E
:105A3000F041069F0446884616461D462268936933
:105A400038EA03030CBF01230023B34201D0002036
:105A50001EE06B1CF3D0FFF787FBC01BA84201D8E8
:105A6000002DEBD123689B6938EA03030CBF0123A7
:105A70000023B342E2D1636C012043F0200363644E
:105A8000202384F84130002384F8423084F84030E9
:105A9000BDE8F08170B504460D46164623689B6943
:105AA0009B0601D5002070BD324629462046FFF7EF
:105AB00013FFB0B9FFF758FB801BA84201D8002D97
:105AC000ECD123689B6913F02003E7D1626C84F862
:105AD000403042F020026264202284F8412084F8A1
