:020000040800F2
:10000000000008243DBA0008E33D0008E53D000873
:10001000E73D0008E93D0008EB3D00080000000056
:10002000000000000000000000000000E1A0000847
:10003000ED3D00080000000071A100089D9A000835
:100040008DBA00088DBA00088DBA00088DBA000874
:100050008DBA00088DBA00088DBA00088DBA000864
:100060008DBA00088DBA00088DBA00088DBA000854
:100070008DBA00088DBA00088DBA00088DBA000844
:100080008DBA00088DBA00088DBA00088DBA000834
:100090008DBA00088DBA00088DBA00088DBA000824
:1000A0008DBA00088DBA00088DBA00088DBA000814
:1000B0008DBA00088DBA00088DBA00088DBA000804
:1000C0008DBA00088DBA00088DBA00088DBA0008F4
:1000D0008DBA00088DBA00088DBA00088DBA0008E4
:1000E0008DBA00088DBA0008000000008DBA000823
:1000F0008DBA00088DBA00088DBA00088DBA0008C4
:100100008DBA00088DBA00088DBA00088DBA0008B3
:100110008DBA00088DBA0008F13D00088DBA0008BC
:100120008DBA00088DBA00088DBA00088DBA000893
:100130008DBA00088DBA00088DBA00088DBA000883
:1001400000000000000000000000000000000000AF
:100150008DBA00088DBA00088DBA00088DBA000863
:100160008DBA00088DBA00088DBA00088DBA000853
:100170008DBA00088DBA00088DBA00080000000092
:100180008DBA00088DBA00088DBA00088DBA000833
:100190008DBA00088DBA00088DBA00088DBA000823
:1001A000FD3D00088DBA0008093E00088DBA000820
:1001B0008DBA00088DBA00088DBA00088DBA000803
:1001C0008DBA00088DBA00088DBA00088DBA0008F3
:1001D0008DBA00088DBA00088DBA00088DBA0008E3
:1001E0008DBA00088DBA00088DBA00088DBA0008D3
:1001F0008DBA00088DBA00088DBA00088DBA0008C3
:100200008DBA00088DBA00088DBA00088DBA0008B2
:100210008DBA00088DBA00088DBA00088DBA0008A2
:100220008DBA00088DBA00088DBA000800000000E1
:100230008DBA00088DBA0008000000008DBA0008D1
:100240008DBA00088DBA00088DBA00088DBA000872
:100250008DBA00088DBA00088DBA00088DBA000862
:100260008DBA00088DBA00088DBA00088DBA000852
:100270008DBA00088DBA00088DBA00080000000091
:100280008DBA00088DBA00088DBA00080000000081
:08029000000000008DBA000817
:1002A00010B5054C237833B9044B13B10448AFF3B0
:1002B00000800123237010BD7401002400000000A1
:1002C0000C3A020808B5034B1BB103490348AFF3CE
:1002D000008008BD00000000780100240C3A0208EC
:1002E00001F0FF01102A2BDB10F0070F08D010F8E7
:1002F000013B013A8B422DD010F0070F42B3F6D1EB
:10030000F0B441EA012141EA014122F007047FF003
:1003100000070023F0E80256083C85EA010586EA5A
:10032000010685FA47F5A3FA87F586FA47F6A5FA96
:1003300087F68EB9EED1F0BC01F0FF0102F00702A2
:1003400032B110F8013B013A83EA010313B1F8D14D
:100350000020704701387047002D06BF354603382E
:10036000073815F0010F07D1013015F4807F02BF67
:10037000013015F4C03F0130F0BC0138704700BFB8
:10038000704704387047704710B50446102122F0BA
:1003900053FB204610BDA0F10400F5E70022C16028
:1003A0008260044A10B502F1080420320460426001
:1003B00010BD00BF683A0208704770477047704729
:1003C000164B30B5591E9C1C1A461D785878A84209
:1003D00002D19D7885421FD011F8015FC878A842EC
:1003E00002D18D79854217D0A14203F10303ECD1EC
:1003F00013791178994202D1107A88420CD0917801
:10040000994202D192799A4206D0054B1868093870
:1004100018BF4FF0FF3030BD0120FCE7080000247A
:10042000B4010024034B10B50446036000F0CCFC7B
:10043000204610BD983A020810B50446FFF7F2FFB7
:1004400043F2F071204622F0F7FA204610BDC3882F
:10045000D21A8388C91A036812B209B210B45DF8BF
:10046000044B5B6D1847000010B5044600F04EFDCC
:10047000104B04F6040204F63811236020460E4B9C
:100480001A600E4A116004F64821596004F51C6197
:10049000516004F60441996004F67C31916004F5E2
:1004A0005C61D96004F63851D16004F6F4621A61D7
:1004B00010BD00BF983A0208A0010024900100245A
:1004C000002380F8B03780F8383780F8C03680F8DD
:1004D000483680F8D03580F8583580F8E03480F818
:1004E000683480F8F033704700F021BB70B5012507
:1004F00004466FF019026FF09B0180F8B057002698
:1005000080F8385780F8C05680F8485680F8D055A3
:1005100080F8585580F8E05480F8685480F8F0531B
:1005200000F60400FFF793FF6FF019026FF09B01D4
:1005300004F64820FFF78BFF6FF019026FF09B0164
:1005400004F60440FFF783FF6FF019026FF09B0180
:1005500004F55C60FFF77BFF6FF019026FF09B0101
:1005600004F6F460FFF773FF6FF019026FF09B0160
:1005700004F63810FFF76BFF6FF019026FF09B0164
:1005800004F51C60FFF763FF6FF019026FF09B0129
:1005900004F67C30FFF75BFF6FF019026FF09B01F0
:1005A00004F63850FFF753FF41F24D0304F5815034
:1005B000E654083012F03FFB41F2191304F587505E
:1005C000E654143012F037FB41F2E51304F58E5077
:1005D000E65412F030FB04F5257084F8B95212F09D
:1005E0002AFB84F8716204F5137012F024FB0D4BA2
:1005F0004FF0FF321E600C4B1A6031220B4B1A7009
:1006000032225A7033229A703422DA7035221A71EB
:1006100036225A7137229A713822DA7139221A72C7
:1006200070BD00BFB40100240400002408000024B1
:100630002DE9F0470023B1F90490B1F906A0044672
:1006400081F82430A9F15008A223AAF18605414E71
:1006500098FBF3F8702395FBF3F5336813F001076B
:100660001ED10222494693FBF2F33B4A52F8230083
:10067000524603689B6D9847384B05EB450204F5DD
:10068000257084F8B9721344782203F8082012F018
:10069000D2FA012304F5137084F8713212F0CBFA08
:1006A0003368002B03F00107B8BF7F42012F1ED132
:1006B0000222494605EB450593FBF2F3284A52F81E
:1006C0002300524603689B6D9847244B04F5257020
:1006D00084F8B9721D446F2305F8083012F0ABFAA4
:1006E000002304F5137084F8713212F0A4FA35680F
:1006F000204601353560FFF763FE1A4B012818606C
:100700001BD115F001030CD141F21913E05404F58B
:100710008750143012F08FFA2046BDE8F047FFF7FB
:10072000CFBE002DB8BF5B42012B11D141F24D026B
:1007300004F58150A3540830ECE748B941F2E513C1
:10074000012204F58E50E254BDE8F04712F073BA6E
:10075000BDE8F087B4010024A001002408000024B3
:10076000900100240400002400F28C71FFF760BFA8
:1007700000F21471FFF75CBF00F29C61FFF758BFF5
:1007800000F22461FFF754BF00F2AC51FFF750BFF5
:1007900000F23451FFF74CBF00F2BC41FFF748BFF5
:1007A00000F24441FFF744BF00F57371FFF740BF0B
:1007B00090F8252012B103685B6918477047818063
:1007C0007047C18070470181704741817047704711
:1007D0007047704770477047806A7047034B10B589
:1007E0000446036001F084F8204610BD003B020877
:1007F00010B50446FFF7F2FFCC21204622F01CF989
:10080000204610BD10B5044601F07CF8014B20468F
:10081000236010BD003B020801F06BB8034B10B51C
:100820000446036001F048FA204610BD943B0208DC
:1008300010B50446FFF7F2FFA021204622F0FCF895
:10084000204610BD10B5044601F040FA014B204689
:10085000236010BD943B020801F02FBA034B10B582
:100860000446036001F006F9204610BD283C02084A
:1008700010B50446FFF7F2FF8821204622F0DCF88D
:10088000204610BD10B5044601F0FEF8014B20468D
:10089000236010BD283C020801F0EDB8034B10B5F1
:1008A0000446036000F030FF204610BDBC3C020847
:1008B00010B50446FFF7F2FF4FF49A71204622F07C
:1008C000BBF8204610BD000010B5044600F064FFE0
:1008D000014B2046236010BDBC3C020800F015BF50
:1008E000034B10B50446036001F02EF9204610BDFD
:1008F000503D020810B50446FFF7F2FFDC21204608
:1009000022F09AF8204610BD10B5044601F026F9F1
:10091000014B2046236010BD503D020801F015B97F
:10092000034B10B50446036001F05EFA204610BD8B
:10093000E43D020810B50446FFF7F2FFCC21204643
:1009400022F07AF8204610BD10B5044601F056FAA0
:10095000014B2046236010BDE43D020801F045BA7A
:1009600070470000034B10B50446036001F000FB24
:10097000204610BD783E020810B50446FFF7F2FF8E
:100980004FF4E471204622F057F8204610BD0000D5
:1009900010B5044601F086FB014B2046236010BDD4
:1009A000783E020801F0E5BA704704387047704796
:1009B00010B50446102122F03FF8204610BDA0F1EA
:1009C0000400F5E70022C1608260044A10B502F11C
:1009D000080420320460426010BD00BFA43E02083B
:1009E0000022026070477047704700F598730868EE
:1009F000496803C37047704701F0E4BD10B5044671
:100A00004FF4AE7122F018F8204610BD10B5044620
:100A1000D0F85801FFF7E7FF2046BDE8104011F07D
:100A200013B910B50446D0F8400158B10368DB682B
:100A3000984738B1D4F8400103689B689847002371
:100A4000C4F8403110BD000010B5044601F072FD3D
:100A5000014B2046236010BDD43E020800207047A1
:100A60004FF6FF7383814FF0FF3303621368C36156
:100A7000106070477047704790F825201AB190F8C1
:100A8000242002B118607047704770477047704764
:100A9000704770477047704770477047704770479E
:100AA00003681B6B184790F82C302BB1C26EC265DF
:100AB00023B1436F03667047826EF8E7036FF9E76F
:100AC0007047704730B4C568034644686A10ED0744
:100AD0009B6804EB020048BFA25830BC48BFD35803
:100AE000184743682BB183682BB9C06800F0010038
:100AF0007047184670470120704790F82D3080F8F5
:100B00005A30704710B50446082121F095FF204661
:100B100010BD10B50446782121F08EFF204610BD8F
:100B200010B50446102121F087FF204610BD10B5F6
:100B300004469830FFF7F2FE04F60400FFF7CEFEFD
:100B400004F63810FFF7A8FE04F51C60FFF7A4FEBA
:100B500004F64820FFF7C2FE04F67C30FFF79CFE47
:100B600004F60440FFF7BAFE04F63850FFF794FE8F
:100B700004F55C60FFF7B2FE04F6F460FFF7AEFE2A
:100B800004F581500830FFF7E9FE04F58750143072
:100B9000FFF742FE04F58E50FFF75EFE2368204605
:100BA000DB6ABDE81040184710B50446006B50B131
:100BB0000368DB68984730B1206B21460368BDE8C5
:100BC00010409B68184710BD0B7970B504460E465F
:100BD00090F82C5053B955B13379012B17D12368B4
:100BE0002046D3F88830BDE8704018477DB1B3FA8D
:100BF00083F320465B0984F82C302368D3F88C30CB
:100C00009847236820465B699847002DE4D170BD62
:100C10000A4A026000228280C2800281428182816F
:100C2000C28102824282C2610284428480F824200E
:100C3000C0E90522012280F825207047985C02084F
:100C400070B50368044615461B6B98472368294610
:100C500020465B6BBDE87040184770B504461E46E1
:100C6000BDF91050FFF7ECFF2368314620469A6B20
:100C70009047236829462046DB6BBDE87040184743
:100C800010B504462622002121F057FF2046FFF729
:100C9000BFFF044B20462360FF2384F82630002347
:100CA000A36210BD845A020810B504462622002112
:100CB00021F043FF2046FFF7ABFF0C4B4FF6FF72CE
:100CC0004FF47F0123602046094BA285A3620023D5
:100CD000A4F8402084F8383084F83930A387E387BB
:100CE000A4F842206364C4E90C3110BDF459020831
:100CF000283F0208036880F82D10D3F89030184779
:100D000000F55573994270B504460D4602D103684B
:100D10005B6B984704F53773AB420AD1FF21284635
:100D2000FFF7E8FF284611F086FF10F00BFF01F0F7
:100D300059FC04F28C739D4203D1236820469B6BBF
:100D4000984704F214739D4203D123682046DB6B5D
:100D5000984704F29C639D4203D1236820461B6C94
:100D6000984704F224639D4203D1236820465B6CBC
:100D7000984704F2AC539D4203D1236820469B6CF4
:100D8000984704F234539D4203D123682046DB6C1C
:100D9000984704F2BC439D4203D1236820461B6D53
:100DA000984704F244439D4203D1236820465B6D7B
:100DB000984704F573739D4205D1236820469B6DC7
:100DC000BDE87040184770BD38B5274B0446274D25
:100DD00003600FF0A1F904F58E50254B036000F07D
:100DE0006BFF244B41F2F4002350204400F080FDBF
:100DF000214B41F228002350204400F0F5FF04F677
:100E0000F460FFF74BFD04F55C60FFF747FDC4F8A5
:100E1000385D04F6385000F02DFE04F60440FFF76C
:100E20003DFDC4F87C5B04F67C3000F023FE04F644
:100E30004820FFF733FDC4F8C05904F51C6000F0EA
:100E400019FEC4F8385904F6381000F013FE04F601
:100E50000400FFF723FD2046084B40F8983F00F0C0
:100E600073FE204638BD00BFEC3F0208283C020854
:100E7000943B0208003B0208E43D0208503D020892
:100E800010B50446FFF7A0FF43F2F071204621F0B1
:100E9000D3FD204610BD000070B50446FFF7B8FE34
:100EA000FF230025264684F82D300123A56284F80F
:100EB00024300E4B84F82C50256346F8343B3046E2
:100EC000FFF7DEFE0A4B2A46294663633046256655
:100ED000A4F86450C4E91A55C4E91C55FFF7B0FEE4
:100EE000204631460AF00AFE204670BD383F02080F
:100EF000EC5A020810B40367019B5DF8044B43678A
:100F00000368C0E91A12D3F88C3018472DE9F04F66
:100F10000446A5B0002512F025FAA146DF4BE56393
:100F20000DF1900849F8403B4846FFF7A9FE04F14F
:100F30006C074FF6FF7304F1980A3846261D28F80F
:100F4000083D41460DF0A4F95046FFF7DDFC04F5DD
:100F5000BA7318460293FFF7A7FE04F5DE7318462E
:100F60000393FFF7A1FE04F5017318460493FFF7FE
:100F70009BFE04F5137318460593FFF795FE04F5E1
:100F8000257318460693FFF78FFE04F5377318464E
:100F90001293FFF781FF04F5557318461393FFF77B
:100FA0007BFF04F5737318460793FFF775FF04F290
:100FB000444318460893FFF76FFF04F2BC431846FA
:100FC0000993FFF769FF04F2345318460A93FFF7B9
:100FD00063FF04F2AC5318460B93FFF75DFF04F276
:100FE000246318460C93FFF757FF04F29C631846DE
:100FF0000D93FFF751FF04F2147318460E93FFF799
:101000004BFF04F28C7318460F93FFF745FF04F66D
:10101000040318461493FFF757FC04F638131846D8
:101020001593FFF72FFC04F51C6318461693FFF782
:1010300029FC04F6482318461793FFF745FC04F6ED
:101040007C3318461893FFF71DFC04F6044318463A
:101050001993FFF739FC04F6385318461A93FFF733
:1010600011FC04F55C6318461B93FFF72DFC04F696
:10107000F46318461C93FFF727FC04F581530833EB
:1010800018461093FFF760FC04F587531433184695
:101090001193FFF7B7FB04F58E5318461D93FFF726
:1010A000D1FB43F2E0737E4A04F5935004EB030B4B
:1010B0004FF41651E25043F2E8737A4ACBF80440F9
:1010C000E25043F2EC73E5500FF01CF84FF4F0736C
:1010D0002A462946009348464FF42073FFF7BDFD8A
:1010E0004FF07F4349463046A3660AF007FD0223CE
:1010F00041463846ADF888300EF020F84FF4F073D2
:101100002A462946384600934FF42073FFF7A5FD81
:1011100029463846DFF890910DF075F8394630468B
:101120001EAF0AF0EBFC862250465021FFF788FDE7
:10113000514630464FF0FF3A0AF0E0FC0E2202988A
:10114000F421FFF77DFDC4F8A4A102993846A4F864
:10115000A8510DF0A1FB04F5D87397E8070083E8C8
:1011600007000D2341460298ADF88C30CDF88890E9
:101170000DF02CFE029930460AF0C0FC5222039872
:1011800040F20721FFF75CFDC4F8ECA10399384653
:10119000A4F8F0510DF080FB04F5FC7397E807000C
:1011A00083E807000C2341460398ADF88C30CDF856
:1011B00088900DF00BFE039930460AF09FFC5222F6
:1011C00004981B21FFF73CFDC4F834A2049938466B
:1011D000A4F838520DF060FB04F5107397E807008F
:1011E00083E807000B2341460498ADF88C30CDF816
:1011F00088900DF0EBFD049930460AF07FFC3E220A
:101200000598E521FFF71CFDC4F87CA20599384636
:10121000A4F880520DF040FB04F5227397E8070014
:1012200083E807000A2341460598ADF88C30CDF8D5
:1012300088900DF0CBFD059930460AF05FFC3E2208
:101240000698E621FFF7FCFCC4F8C4A206993846CC
:10125000A4F8C8524FF0440A0DF01EFB04F5347395
:1012600097E8070083E80700092341460698ADF890
:101270008C30CDF888900DF0A9FD069930460AF023
:101280003DFCCDF800A02A46294604F544706023B1
:10129000FFF7E3FC4FF0050308E000BFEC3F020856
:1012A000D43F0208010D0008283F0208DA4FDFF89A
:1012B0007083DFF870933946A4F840334246D74B29
:1012C000129800934B46FFF715FECDF800A060235F
:1012D0000E2212984FF4FD71C4F80CB3FFF7BDFC59
:1012E000129930460AF00AFCCDF800A02A46294699
:1012F00004F562706023FFF7B0FC4FF00502C74BA6
:101300003946A4F8B823424600934B461398FFF79A
:10131000F1FDCDF800A060234FF06A0A0E22139869
:10132000C4F884B33221FFF798FC139930460AF0D1
:10133000E5FB2A46294604F58060CDF800A09C23F1
:10134000FFF78BFCB54B4246394600934B46079856
:10135000A4F83054FFF7CEFD29460798FFF7CAFCE2
:101360009C234FF4B3720798C4F8FCB34FF4CA71CE
:10137000CDF800A0FFF771FC079930460AF0BEFBDC
:101380002A46294604F58F60CDF800A09C23FFF77C
:1013900064FCA24B4246394600934B460898A4F899
:1013A000A854FFF7A7FD29460898FFF7A3FC9C2344
:1013B0004FF4B3720898C4F874B4F221CDF800A0C9
:1013C000FFF74BFC089930460AF098FB2A4629465D
:1013D00004F59E60CDF800A09C23FFF73EFC8F4BE8
:1013E0004246394600934B460998A4F82055FFF72A
:1013F00081FD29460998FFF77DFC9C234FF4B372C9
:101400000998C4F8ECB45021CDF800A0FFF725FCF2
:10141000099930460AF072FB2A46294604F5AD6068
:10142000CDF800A09C23FFF718FC7C4B42463946C0
:1014300000934B460A98A4F89855FFF75BFD2946A0
:101440000A98FFF757FC9C23F6220A98C4F864B563
:101450004FF4CA71CDF800A0FFF7FFFB0A993046A0
:101460000AF04CFB2A46294604F5BC60CDF800A0E2
:101470009C23FFF7F2FB694B4246394600934B46EB
:101480000B98A4F81056FFF735FD29460B98FFF787
:1014900031FC9C23F6220B98C4F8DCB5F221CDF880
:1014A00000A0FFF7DAFB0B9930460AF027FB2A462B
:1014B000294604F5CB60CDF800A09C23FFF7CDFBB7
:1014C000564B4246394600934B460C98A4F8885632
:1014D000FFF710FD29460C98FFF70CFC9C23F62221
:1014E0000C98C4F854B65021CDF800A0FFF7B5FB16
:1014F0000C9930460AF002FB2A46294604F5DA60C8
:10150000CDF800A09C23FFF7A8FB444B4246394688
:1015100000934B460D98A4F80057FFF7EBFC2946C3
:101520000D98FFF7E7FB9C2388220D98C4F8CCB6F2
:101530004FF4CA71CDF800A0FFF78FFB0D9930462C
:101540000AF0DCFA2A46294604F5E960CDF800A045
:101550009C23FFF782FB314B4246394600934B46B2
:101560000E98A4F87857FFF7C5FC29460E98FFF7A8
:10157000C1FB9C2388220E98C4F844B7F221CDF811
:1015800000A0FFF76AFB0E9930460AF0B7FA2A4628
:10159000294604F5F860CDF800A09C23FFF75DFB19
:1015A0001E4B4246394600934B460F98A4F8F0571D
:1015B000FFF7A0FC29460F98FFF79CFB9C2388228D
:1015C0000F98C4F8BCB75021CDF800A0FFF745FB39
:1015D0000F9930460AF092FA40F2911214986FF087
:1015E0009B01FFF72DFB149930460AF087FA40F271
:1015F0005F1215984FF42071FFF722FB15993046C2
:101600000AF07CFAF52216984FF42071FFF718FBC8
:101610001699304608E000BF996600FF996633FFCF
:10162000CC9900FF663300FF0AF068FA4FF492721B
:1016300017986FF09B01FFF703FB179930460AF0EC
:101640005DFA8B2218984FF42071FFF7F9FA189978
:1016500030460AF053FABA2219986FF09B01FFF74F
:10166000EFFA199930460AF049FA21221A984FF4F4
:101670002071FFF7E5FA1A9930460AF03FFA502236
:101680001B986FF09B01FFF7DBFA1B9930460AF0BD
:1016900035FA6FF019021C986FF09B01FFF7D0FA32
:1016A0001C9930460AF02AFA79221098C321FFF7D4
:1016B000C7FA41F24D0310993046E5540AF01EFA7C
:1016C00079221198C321FFF7BBFA41F2191311993E
:1016D0003046E5540AF012FADC221D98C321FFF7C8
:1016E000AFFA41F2E51330461D99E5540AF006FAC7
:1016F000204625B0BDE8F08F00207047B1F90430D6
:1017000083800120704770477047704710B50446CA
:101710004FF49A7121F090F9204610BD70B503681E
:10172000044615469B6B9847236829462046DB6B89
:10173000BDE8704018470000002370B5838006465E
:10174000104B114D03602A6892F8581009B1D06C03
:1017500000B990680368DB6A98472B68B0FA80F498
:10176000D86C640928B10368DB6A9847002808BF71
:1017700001242CB9054B2C21054A064821F068F9B3
:10178000304670BD50400208B8E3002468400208AB
:10179000B8410208C64002082DE9F84F012304466B
:1017A0000025064680F8253004F19C0A4D4B04F1D3
:1017B000B007DFF8388104F590798580C58008F19D
:1017C000240B058145818581C58105824582C561DE
:1017D0000584458480F824508562C0E9055546F8A3
:1017E0002C3B30460CF07EFA5046FFF7A5FFC4F8BC
:1017F000A850C4F89C803846C4F8A4B00CF072FA23
:101800004846FFF799FF384B29463046A360C4F895
:101810002C51C4F82081C4F828B1FEF7D0FF294626
:101820003046FEF7CEFF6A229C213046FFF776FF56
:101830004FF0FF332A462946C4F8A8303046A4F8B2
:10184000AC30C4F854A00CF063FB4FF454624FF476
:101850009C5130460CF067FBA36EB3F5A07F05D01A
:101860004FF4A0733046A3660CF05CFA002501210A
:1018700030460CF063FB314620460AF03FF96A22FD
:101880009C213846C4F8B450FFF748FF4FF0FF33AF
:101890002A464FF49C51C4F82C313846A4F8303114
:1018A000C4F8D8900CF034FB4FF454622946384603
:1018B0000CF039FBD4F8EC30B3F5A07F06D04FF430
:1018C000A0733846C4F8EC300CF02CFA38460121ED
:1018D0000CF034FB204639460AF010F92046BDE8EA
:1018E000F88F00BF2C4102089C006A005C56020879
:1018F0007047704710B50446CC2121F09DF8204672
:1019000010BD00002DE9F04F044687B00025FFF719
:101910007FF92646524B4FF026092946A56204F16D
:10192000580846F82C3B4A46304604F1A00721F0FF
:1019300004F93046FFF76CF94A4B4A462946E36200
:10194000FF236565404684F852304FF6FF7A21F058
:10195000F4F84046FFF75CF9434BDFF814B14A4610
:10196000A3654FF47F032946C4F880B0C4F88C30D7
:101970003846A4F884A00DF11809C4F8885084F8FA
:10198000905084F89150A4F89450A4F89650A4F87C
:1019900098A0A4F89AA0C4F89C50ADF810A021F02B
:1019A000CCF83846FFF734F9304B384684F8C8A0F5
:1019B000C4F8A03039F8083DA4F8C63049460DF007
:1019C000BDFB4FF0FA1378222946A3603046FFF79B
:1019D00037F93046FA21FEF7F6FE30463221FEF79F
:1019E000F4FE4FF0FF333146204663656E460AF041
:1019F00085F8852240464A21FFF722F94FF07F43C0
:101A000041463046C4F88830A4F88C500CF044FFAE
:101A100004F1940396E8070083E80700022349468F
:101A20004046CDF810B0ADF814300DF0CFF9414676
:101A300020460AF063F82A4629463846FFF700F99F
:101A4000042349463846ADF810300DF077FB2046A8
:101A500039460AF053F8204607B0BDE8F08F00BFC2
:101A6000FC410208845A0208F4590208545B020837
:101A7000283F02087047704710B50446882120F0BF
:101A8000DBFF204610BD0000F8B501230446002509
:101A9000064680F8253004F17407284B8580C58000
:101AA000058145818581C58105824582C5610584A1
:101AB000458480F824508562C0E9055546F82C3BE2
:101AC00030460BF05DFA3846FFF736FE1C4B2946D0
:101AD000304663672433C4F88050E367194BA36032
:101AE000FEF76DFE29463046FEF76BFE30469C2120
:101AF000FEF769FE30466A21FEF767FE4FF41C626E
:101B00004FF4D46330466566B421C4E916234FF41C
:101B1000C8632366A023E3664FF43453A3660BF037
:101B200047FA4FF0FF3320466765C4F880303146EE
:101B3000A4F8843009F0E2FF2046F8BD9042020884
:101B40005C5602089C006A007047704710B5044656
:101B5000DC2120F071FF204610BD000001232DE99B
:101B6000F74F0446002502AE07464FF6FF7B80F88C
:101B700025304F4B04F1580A26F804BD04F18409BE
:101B800085803146C58004F1B00805814581858195
:101B9000C58105824582C5610584458480F824504D
:101BA0008562C0E9055547F82C3B38460CF070FBC0
:101BB00031465046ADF804B00CF06AFB3146484659
:101BC000ADF804B00CF064FB31464046ADF804B00B
:101BD0000CF05EFB374B4FF0030B3146A3603846E9
:101BE000ADF804B00DF0AAFA29463846DA22FFF71C
:101BF00027F8062238464FF4F071FFF78FFD29468B
:101C000038460CF000FB3946204609F077FF314694
:101C10005046ADF804B00DF091FA2A4650469C218A
:101C2000FFF70EF84FF4A57250460621FFF776FD38
:101C3000294650460CF0E7FA5146204609F05EFF6F
:101C400031464846ADF804B00DF078FA2A464846C9
:101C50004FF49F71FEF7F4FF4FF4A572484606213A
:101C6000FFF75CFD294648460CF0CDFA4946204670
:101C700009F044FF31464046ADF804B00DF05EFA7D
:101C8000294640466A22FEF7DBFF062240464FF413
:101C9000F071FFF743FD294640460CF0B4FA2046A8
:101CA000414609F02BFF204603B0BDE8F08F00BF8E
:101CB00024430208E0014A017047704710B504460A
:101CC000A02120F0B9FE204610BD00002DE9F04112
:101CD000044686B00025FEF79BFF26463C4B4FF09E
:101CE0002608A562294646F82C3B4246304620F09D
:101CF00024FF3046FEF78CFF364B04F1580742466E
:101D0000E362FF232946656584F85230384620F0A7
:101D100014FF3846FEF77CFF2F4B4FF47F02DFF8AD
:101D2000C480A3654FF6FF73C4F88C202946A4F83D
:101D300084303046A4F89830A4F89A30274BC4F881
:101D40008850A36084F8905084F89150A4F894507F
:101D5000A4F89650C4F89C50C4F88080FEF72FFD7C
:101D600029463046FEF72DFD3046FA21FEF72BFDC1
:101D700030463221FEF729FD4FF0FF333146204631
:101D8000636509F0BBFE164BA4F88C506D46E36505
:101D90004FF07F4339462846C4F888300CF07CFD6C
:101DA00004F1940395E8070083E80700012304A9E0
:101DB0003846CDF81080ADF814300DF007F8204605
:101DC000394609F09BFE204606B0BDE8F08100BF11
:101DD000B8430208845A0208F4590208FA00320093
:101DE0004A000D00283F02087047704710B50446AE
:101DF000CC2120F021FE204610BD00002DE9F04F3F
:101E0000044687B00025FEF703FF2646534B4FF0EC
:101E1000260B4FF6FF7AA562294646F82C3B5A4618
:101E20003046ADF810A020F088FE3046FEF7F0FEF8
:101E30000DF118094A4B04F15808304684F854A0B3
:101E4000E36204F1840739F8083DA4F852304946AA
:101E50000DF074F95A462946404620F06EFE404681
:101E6000FEF7D6FE3F4B5A462946A365FF23C4F82A
:101E70008050384684F87E3020F05FFE3846FEF70A
:101E8000C7FE394BDFF8E4B02A46C4F884304FF47B
:101E90007F03C4F8B4502946C4F8B8304FF0FA13A1
:101EA00084F8BC50304684F8BD50A4F8C050A4F863
:101EB000C250C4F8C850A360C4F8ACB0A4F8B0A035
:101EC000A4F8C4A0A4F8C6A0FEF7BAFE04234946AD
:101ED0003046ADF810300DF031F93146204609F0AA
:101EE0000DFE782229464046FEF7AAFE4046FA211A
:101EF000FEF769FC40463221FEF767FC4FF0FF33E6
:101F000041462046C4F8803009F0F8FD8522384665
:101F10004A21FEF795FE4FF07F43A4F8B8506D4676
:101F2000C4F8B430394628460CF0B6FC04F1C003BE
:101F300095E8070083E80700032349463846CDF8B3
:101F400010B0ADF814300CF041FF2046394609F0CE
:101F5000D5FD204607B0BDE8F08F00BF4C44020815
:101F6000545B0208845A0208F4590208283F020808
:101F700070477047704730B4C568034644686A10BC
:101F8000ED079B6804EB020048BFA25830BC48BF75
:101F9000D358184743682BB183682BB9C06800F049
:101FA00001007047184670470120704710B504467D
:101FB000102120F041FD204610BD10B504464FF41D
:101FC000E47120F039FD204610BD000000F19803B7
:101FD000994237B504460D4603D10FF0B3FD00F02A
:101FE000E1FA04F1E0039D4213D10B4B04F5947424
:101FF0006946009305232046ADF804300CF0E6FE58
:10200000204610F018FE20460CF0C0FE204610F0CE
:1020100012FE03B030BD00BF283F0208F8B51A4BCE
:102020000646018F1B888B4229D9184B1B682BB998
:10203000174B6C21174A184820F00AFD13F811209D
:10204000164B1B6853F82250154B186800F06EFFB2
:102050002B68074628469B6B98472B6804463946F1
:102060009B6C2846984714FB00F42B683946A4B2B1
:1020700028465B6A98472044A6F84600F8BD00232E
:10208000A0F84630FAE700BF14E4002410E400246E
:10209000F0440208A84502083245020818E400246A
:1020A0001CE400242DE9F04F04468DB04FF00009E8
:1020B00011F058F926462625814A4946C4F83C9035
:1020C00004F16C0846F8402B2A463046FF2720F0E2
:1020D00034FD3046FEF79CFD7A4A494684F8667026
:1020E00022644FF6FF72C4F868904046ADF828208D
:1020F0002A4620F022FD4046FEF78AFD0CAD724ACA
:1021000004F1980B84F894704046E26604F5947AE2
:1021100035F8082D271DA4F8922029460DF00EF859
:1021200058460DF043F904F1E003184601930DF011
:102130003DF95046FEF7B8FD04F5B8731846029312
:10214000FEF7B2FD614A49463046C4F8B821604AFC
:10215000C4F8BC41C4F8C0214A46C4F8C491FEF793
:102160006FFD30464FF42071FEF72DFB30464FF4E3
:10217000F071FEF72AFB4FF07F4331463846A366E5
:102180004FF0FF3609F0BAFC4A4649464046FEF792
:1021900057FD29464046ADF828900CF0CFFF414648
:1021A00038464FF0010809F0A9FC58468E228721D5
:1021B000FEF746FD09A92A465846ADF82480ADF839
:1021C00028800CF060FE08225846A4F8D020FFF7C3
:1021D00025FF04F5DC7359463846C4F8C030039334
:1021E000C4E9356609F08AFC0198E8228721FEF7E8
:1021F00027FD09A92A460198ADF82480ADF828806A
:102200000CF041FE06220198DFF8C880A4F81821DE
:10221000FFF704FF039BC4F81C613846C4F808317B
:10222000C4F8206104AE019909F068FC17225046F9
:10223000F421FEF705FD4FF07F4351463046C4F8C8
:102240005831A4F85C910CF027FB04F5B27C96E8B9
:1022500007008CE80700072229465046CDF8288061
:10226000ADF82C200CF0B2FD5146384609F046FC82
:1022700040F23D12029840F23B11FEF7E1FC4FF0B4
:102280007F4302993046C4F8A031A4F8A4910CF021
:1022900003FB04F5D67396E8070083E807000423E0
:1022A00029460298ADF82C30CDF828800CF08EFD30
:1022B0003846029909F022FC20460DB0BDE8F08FA7
:1022C0007C450208845A0208545B0208E044020874
:1022D000CD1F0008283F02087047704770474160D3
:1022E000704770470123037270477047704770470B
:1022F000704710B4C468034641686210E4079B68E5
:1023000001EB020048BF8A585DF8044B48BFD35820
:10231000184743682BB183682BB9C06800F00100EF
:102320007047184670470120704710B504460C21CD
:1023300020F082FB204610BD10B504464FF4AE716C
:1023400020F07AFB204610BD10B50446102120F085
:1023500073FB204610BD10B50446402120F06CFBF5
:10236000204610BD10B50446402120F065FB2046F4
:1023700010BD10B50FF0E6FB0368BDE81040DB6B45
:10238000184770B5044690F83900013094F8383099
:10239000C0B2984284F8390005D901232372002382
:1023A00084F8393070BDB4F93A20002111F08CF96D
:1023B00083B213F0010206D04FF6FF710028D8BF98
:1023C0000A46981800B2638AC01AA087606803683A
:1023D000DB69984705464DB1E9882846A38F194423
:1023E0002B6809B25B6B9847AD69F4E760680368D6
:1023F000BDE870405B69184770B5044690F8390035
:10240000013094F83830C0B2984284F8390005D9C8
:1024100001232372002384F8393070BDB4F93A20C7
:10242000002111F051F983B213F0010206D04FF6EA
:10243000FF710028D8BF0A46981800B2638AC01AF4
:10244000A08760680368DB69984705464DB1E98855
:102450002846A38F19442B6809B25B6B9847AD6976
:10246000F4E760680368BDE870405B6918470000E6
:10247000054B1B783BB143682BB11A6800F10C0186
:102480001846526E10477047B7E30024054B1B787F
:102490003BB143682BB11A6800F10C011846526E2B
:1024A00010477047B7E3002470B5037A0546BBB9FF
:1024B00040680368DB69984704464CB1E1882046D0
:1024C0006B8FC91A236809B25B6B9847A469F4E75C
:1024D000686805F10C010368BDE870401B6E184781
:1024E00070BD70B5037A0546BBB940680368DB6907
:1024F000984704464CB1E18820466B8FC91A23687F
:1025000009B25B6B9847A469F4E7686805F10C01B0
:102510000368BDE870401B6E184770BD044B1B6814
:1025200093F858200AB1D86C00B99868704700BF7A
:10253000B8E30024F8B5044617460E460FF0C8FB72
:10254000144B0025C4F854711C602946124BC4F882
:102550003C512360114BC4F84051C4F84431104B36
:10256000C4F848511868C4F84C51C4F85051C4F824
:10257000586103689B689847284600F09DFCFFF768
:10258000CDFF18F0B4FAFFF7C9FF18F02BFB204677
:10259000F8BD00BF0CE4002404460208EC45020824
:1025A000B8E30024064BC0F84801C0F84C310023C2
:1025B000C0F8503100F5A273C0F84031704700BF39
:1025C0009D270008064BC0F84801C0F84C31002395
:1025D000C0F8503100F5A273C0F84031704700BF19
:1025E00005290008064BC0F84801C0F84C3100230B
:1025F000C0F8503100F5A273C0F84031704700BFF9
:10260000C12A00082DE9F84F074690689946884688
:10261000036815461B6A984743F2EF73984205D842
:10262000554BA321554A564820F012FA68680368B2
:102630001B6A98470F2803D8524BA4214F4AF2E750
:10264000E86803681B6A98473F2803D84E4BA521CA
:102650004A4AE8E70FF076FA04300FF098FAD9F812
:10266000000010B10368DB689847D9F8000010B18A
:1026700003681B689847386810B103685B6998471E
:10268000D8F8000010B103685B689847386810B14B
:1026900003681B689847D8F8000010B103689B686E
:1026A0009847E868002103685B6A98470446B0B120
:1026B0004FF0000B354B0646C0F804B080F808B068
:1026C00046F80C3B30460BF079FD1423A4F83CB0DF
:1026D00023872F4B1B78002B37D101232372A86847
:1026E000002103685B6A9847064608B1FDF7BCFE07
:1026F0006868002103685B6A9847054610B1314657
:10270000FDF74CFEC9F80040C8F800503E60002DAF
:102710002FD02B1D0A9A30461360AA603368F563E8
:10272000DB6898472B6828461B6898472146304647
:1027300010F0C4FF236820461B6998472368204691
:102740005B6998472846BDE8F88F124B3046DFF8A2
:1027500048A0B3F90010BAF90020C4F810B0FEF791
:10276000DDFF30460BF0A5FCBAF800305B42638712
:10277000B5E72B46CEE700BFBC460208F84A020880
:102780004A4702088B4702082E480208A046020862
:10279000B7E30024ACE30024AEE3002407B5D0F88F
:1027A000583100F59E710093044BD0F85421044831
:1027B000FFF728FF03B05DF804FB00BF00E400242E
:1027C000FCE300242DE9F0470746906899468846C7
:1027D00003681546DDF820A01B6A9847B0F5E47F32
:1027E00005D2424BA321424A424820F031F96868A1
:1027F00003681B6A98470F2803D83F4BA4213C4A23
:10280000F2E7E86803681B6A98470B2803D83B4B3C
:10281000A521374AE8E70FF095F904300FF0B7F932
:10282000D9F8000010B10368DB689847D9F80000B8
:1028300010B103681B689847386810B103685B697A
:102840009847D8F8000010B103685B68984738686B
:1028500010B103681B689847D8F8000010B10368EE
:102860009B689847E868002103685B6A98470446BC
:1028700020B1002343600372214B0360A86800214C
:1028800003685B6A9847064608B1FEF781F86868F6
:10289000002103685B6A9847054610B13146FEF790
:1028A00091F8C9F80040C8F800503E60E5B12B1D12
:1028B000CAF800303046C5F808A03368F563DB6815
:1028C00098472B6828461B6898472146304610F0E9
:1028D000F5FE236820461B699847236820465B69FC
:1028E00098472846BDE8F0872B46E1E7BC4602083A
:1028F000D14802084A4702088B4702082E480208BE
:102900005846020807B5D0F8583100F59E7100937B
:10291000044BD0F854210448FFF754FF03B05DF88E
:1029200004FB00BF00E40024FCE300242DE9F84F81
:102930000746906899468846036815461B6A98477B
:10294000B0F5E47F05D2554BA321554A554820F0F8
:102950007FF8686803681B6A98470F2803D8524BB2
:10296000A4214F4AF2E7E86803681B6A98473F28AA
:1029700003D84E4BA5214A4AE8E70FF0E3F80430AC
:102980000FF005F9D9F8000010B10368DB6898472B
:10299000D9F8000010B103681B689847386810B177
:1029A00003685B699847D8F8000010B103685B685A
:1029B0009847386810B103681B689847D8F800003A
:1029C00010B103689B689847E868002103685B6A58
:1029D00098470446B0B14FF0000B354B0646C0F89F
:1029E00004B080F808B046F80C3B30460BF0E6FB2C
:1029F0001423A4F83CB023872E4B1B78002B37D12F
:102A000001232372A868002103685B6A9847064681
:102A100008B1FDF7BDFF6868002103685B6A98474D
:102A2000054610B13146FDF7CDFFC9F80040C8F8A2
:102A300000503E60002D2ED02B1D0A9A30461360A8
:102A4000AA603368F563DB6898472B6828461B68E3
:102A500098472146304610F031FE236820461B6916
:102A60009847236820465B6998472846BDE8F88F59
:102A7000114B3046DFF844A0B3F90010BAF900203A
:102A8000C4F810B0FEF74AFE30460BF012FBBAF85D
:102A900000306387B6E72B46CFE700BFBC4602088D
:102AA000D74902084A4702088B4702082E48020805
:102AB0007C460208B7E30024ACE30024AEE3002424
:102AC00007B5D0F8583100F59E710093044BD0F84B
:102AD00054210448FFF72AFF03B05DF804FB00BF50
:102AE00000E40024FCE3002413B5002249B102AB4A
:102AF000019203F8052D0268946801AAA04702B06C
:102B000010BD0846FBE7C0897047008A7047C0883F
:102B1000704780887047807A00F07F007047807A25
:102B2000C0097047406A7047806A704770478B8859
:102B3000C069DB0A0A6850F823001044704710B5DA
:102B4000C2B1137BB3B1547BD27A240204F4E064A3
:102B50001443026A98B202EB840213888B4202D1BA
:102B600092F9020010BD05D80138043280B2002865
:102B7000F3D1F7E70020F5E710B504462C211FF04C
:102B80005BFF204610BD000030B58BB00446BDF899
:102B900060500895BDF85C5007959DF8505006951B
:102BA0009DF84C5005959DF8485004959DF844506B
:102BB00003959DF8405002959DF83C500195BDF855
:102BC0003850009510F0E4F8064B20462360159B22
:102BD000E361169B2362199B63621A9BA3620BB08D
:102BE00030BD00BF244C020830B5174D8FB02C7893
:102BF000BFF35B8F14F0010422D128461FF0F3FECF
:102C0000F0B13F23012211490993114B0A94089313
:102C1000104B05941048CDE906430423CDE9033257
:102C20000A23CDE90B440093CDE90144FFF7ACFF43
:102C300028461FF0E4FE094A094907481FF0F7FE3D
:102C400005480FB030BD00BFB8010024100B009044
:102C50009461020890610208BC0100240000002475
:102C60002D2B000830B5174D8FB02C78BFF35B8F3C
:102C700014F0010422D128461FF0B5FEF0B13F2325
:102C8000012211490993114B0A940893104B0594A2
:102C90001048CDE906430423CDE903322823CDE9CA
:102CA0000B440093CDE90144FFF76EFF28461FF067
:102CB000A6FE094A094907481FF0B9FE05480FB0AA
:102CC00030BD00BFE8010024380B00908C61020881
:102CD000A8610208EC010024000000242D2B00084C
:102CE00030B5184D8FB02C78BFF35B8F14F0010412
:102CF00024D128461FF077FE00B33F23012212495A
:102D00000993124B0A940893114B05941148CDE98D
:102D100006430423CDE9033214232522009318230C
:102D2000CDE90B44CDE90144FFF72EFF28461FF003
:102D300066FE094A094907481FF079FE05480FB0A9
:102D400030BD00BF18020024480B009098610208B3
:102D5000AC6102081C020024000000242D2B000896
:102D6000704710B5044604211FF066FE204610BDD2
:102D7000012908B508D003D3022909D0002002E0B8
:102D800000F012F8006808BD00F00EF84068FAE79D
:102D900000F00AF88068F6E700487047904C020897
:102DA000052070470E2070470048704748020024F5
:102DB00010B5054CFFF794FF2060FFF753FF6060EC
:102DC000FFF712FFA06010BD4802002400207047EA
:102DD000002070470EB403B503AB002153F8042B59
:102DE00001930FF0FDFD02B05DF804EB03B07047F6
:102DF0000CB407B504AB53F8042B01930FF0F0FDAE
:102E000003B05DF804EB02B07047000010B5436CEE
:102E1000044673B3038F2BB9184BC521184A1948C0
:102E20001FF016FEC38E00EB43035B8C0BB311F057
:102E3000A9F9238F012B03D8134BCB21134AEEE7BB
:102E4000E28E40F63F10531C9BB2092B194688BFF7
:102E5000A3F10A0104EB4101498C814209D10A2BFB
:102E600004EB420228BF0023508C04EB4303588438
:102E700051842046BDE8104011F086B8F44C020899
:102E8000214E0208FD4C0208414D02084F4D020838
:102E900011F043B810B586B002AC84E806001A46BB
:102EA0000AAB214605930193099B0093089B0EF002
:102EB000CBF906B010BD000038B5D8B9114B124897
:102EC0001B681249BBB11A689C681A441C44026012
:102ED0005A681A440A606CB10D4B00221A80FFF741
:102EE00063FF0546FFF75EFF0A4B1C600A4B1D603F
:102EF0000A4B188038BD0A4B03600A4B0B600A4B23
:102F00001C68E8E754020024580200245C020024F4
:102F10006002002410E4002418E4002414E40024D7
:102F2000A80D0090500D0090A40D0090044B1B685C
:102F300053F82100034B1B6803EB4000704700BFB0
:102F40005C02002458020024012380F8781080F8E5
:102F5000793070470020704741640031024B18BF40
:102F600001211970704700BFB7E3002400207047AB
:102F7000836B0BB10846184770474FF6FF707047D8
:102F8000406803689B69184780F82610704790F8DE
:102F90002600704710B50022B1F90840B1F90A10B7
:102FA000028042808480C18010BD00220280428065
:102FB0008280C28070470000034B902283F85A231E
:102FC00083F85823704700BF00E100E0094A0A492E
:102FD000D3680A48C3F30A03013B9BB20B80116913
:102FE000C1F30A01013901801364536B43F00103FB
:102FF00053637047001000506402002462020024F2
:10300000014B986A704700BF84100050024B0122A8
:10301000996243F8602C70478410005010B531B9A4
:103020000A4B40F2D2210A4A0A481FF011FDC0E9BA
:103030000F120032084918BF01220A7019460268AF
:10304000BDE81040D2F88C20104700BF2F4F020877
:10305000E94F0208674F0208B6E3002408B5094BA0
:103060001B888B4203D8084B1B88934205D9074B1A
:103070009E21074A07481FF0EBFC074B1980074BBE
:103080001A8008BDACE30024AEE30024CC4E020855
:10309000A64F0208674F0208B2E30024B4E30024FD
:1030A00070B5044609F013F823685D6E0EF04AFD12
:1030B00001462046A84723682046054AD3F8885091
:1030C0004FF050410023AC46BDE87040604700BF60
:1030D000006009D008F0E2BF08F0ECBF08F0A8BF1C
:1030E00009F009B910B5044609F030FD23682046FF
:1030F000D3F8AC30BDE81040184790F87A301BB1D7
:10310000406803681B6818471846704710B590F868
:10311000784090F834100C4B8C421A7809D03AB9A8
:103120000A490B4A08881488108001220C801A7002
:1031300010BD002AFCD0064A0449148808880C8077
:1031400010800022F3E700BFB0E30024AEE30024C8
:10315000ACE30024134A0023F0B5C2F88430BFF377
:103160004F8FD2F8803043F6E076C3F3C904C3F33F
:103170004E33A5075B0103EA060C284621464CEABC
:103180000007013900F14040C2F874724F1CF6D1BB
:10319000203B13F1200FEED1BFF34F8FBFF36F8FA2
:1031A000F0BD00BF00ED00E0034B5B69DB0301D520
:1031B000FFF7D0BF704700BF00ED00E0034B5B6935
:1031C000DB0301D5FFF7C6BF704700BF00ED00E08D
:1031D000034B4FF080629A604FF080729A607047A4
:1031E00000E100E0084B4FF08062C3F88820BFF395
:1031F0004F8FBFF36F8F4FF08072C3F88820BFF3FB
:103200004F8FBFF36F8F704700E100E010B5144C93
:10321000236823B3134B144A1B6C11888B4213D1C0
:10322000124B198804F00EF9226892F86A300133C3
:1032300082F86A3000F03AFA206809F087FC002032
:10324000BDE8104000F08EBC04F0FCF82068036874
:103250001B6A98470020BDE8104000F0B1BC10BDCB
:10326000B8E300240010005064020024620200242D
:1032700003685B6C18470120704703689B6A184716
:103280000F4B82B0D3F8D42042F01002C3F8D42000
:10329000D3F8D42002F010020192019ADA6F42F0C2
:1032A0001002DA67DA6F22F01002DA67054B064A7D
:1032B0001A62064B4FF080629A6002B0704700BFFE
:1032C00000440258ECED0024D932000800E100E08F
:1032D00040F2EF3070470000024B1B6858680368EB
:1032E0005B691847B8E3002408B50B280BD8DFE862
:1032F00000F01206100A0A0A0A0808080808012045
:1033000008BD0520FCE7054B6521054A05481FF06F
:103310009FFB0020F4E70220F2E700BF51500208B3
:10332000225102086C50020808B50A2809D8DFE8C3
:1033300000F010060E080808080606060600012020
:1033400008BD054B8621054A05481FF081FB00207A
:10335000F6E70220F4E700BF515002086C51020862
:103360006C500208F8B50C46487FFFF7BDFF0546D4
:10337000A77F3846FFF7B8FF06463846FFF7D4FF69
:10338000A38A628BD21A494B1A64A18A628B521AA1
:103390009A61A18A228B521A1A615863A18AE28A21
:1033A00042EA01425A642269DA636268DA6022689A
:1033B000402A70D010D8042A3BD0202A6BD0237F1B
:1033C00045EA0365394B45F40035DD61617FA27F35
:1033D000914267D0364A4BE0B2F5807F1BD0B2F500
:1033E000007F23D0802AEAD1A068021DDA62227F02
:1033F00045EA026545F40035DD615E6222695A6185
:103400000278EAB1012A35D02A4B4FF488712A4A52
:103410002A481FF01DFB217F294A42EA0162DA6136
:10342000E2681A625E6222695A6120E0217F254AC1
:10343000F3E7227F45EA026545F40035DD61F1E7F7
:10344000D9694288501E21F47F42012122F01002E6
:1034500042EA0022DA61154BDA6942F02002DA61B1
:10346000DA699206FCD410229A600029B2D0164A7A
:103470001A60F8BDDA69408822F47F42217F013862
:1034800022F01002FF3942F0100218BF012142EA77
:103490000022DA61DFE7237F45EA0365034B45F449
:1034A0000035CBE740F20122E2E700BF00100052F6
:1034B0000102010037500208E45002086C50020873
:1034C0000A000200090002000102020010B5887F14
:1034D0000C46FFF729FF1C4B5863A18AE28A42EA97
:1034E00001425A642269DA63628BA18A521A1A6411
:1034F0002268082A16D1A18A628B521A9A61A18A7F
:10350000628B521A1A615862104A217F42EA0162A4
:10351000DA61E2681A6222695A612269DA600C4A49
:103520001A6010BD0022D8611A61E1680A0A4809D0
:10353000C1F3C40102F4784200F4FC6002430A4380
:103540009A63044AECE700BF001000520900010032
:103550000102020001020300054B4FF0806203608C
:10356000044BC3F88820BFF34F8FBFF36F8F7047B2
:103570009C50020800E100E010B50446FFF7ECFFA4
:103580004FF45A6120461FF057FA204610BD000044
:1035900070B505460A4B0C3000262C466022686048
:1035A0002E726E7244F8203B214609F03FFC05F56F
:1035B0005A63E6602434A342FBD1284670BD00BFA5
:1035C0009C500208034B1A68D207FCD423229A604D
:1035D000704700BF0010005230B5104C2568ED0751
:1035E000FCD423250904FF2BA56041F001014FF015
:1035F000020565636164E0630AD00949656241EAD6
:103600000363E361074B22626061E060236030BDC9
:10361000E561039BA363044BF8E700BF0010005271
:103620000900010001000200010003000121002245
:1036300008B5084606F0C1FA0A4B186028B90A4BCB
:1036400028210A4A0A481FF003FA00220421012017
:1036500006F054FB074B186018B9074B2C21034A9E
:10366000F0E708BD6C020024B75102086B52020853
:10367000005202086802002429520208024B4FF04F
:10368000FF31186806F0E4BA6C020024014B186898
:1036900006F00ABB6C020024024B0021186806F0F9
:1036A000D7BA00BF6C020024FFF7F0BF0023034825
:1036B00003491A46006806F05DBB00BF680200249B
:1036C0001400002413B50023074C01A91A462068F2
:1036D00006F082FB4FF0FF33002201A9206806F0BC
:1036E0007BFB02B010BD00BF68020024704770472A
:1036F0007047012070474020704700EB8110083070
:10370000704700EB8110083070470120704743F28A
:10371000F070704743F2F07303FB0100083070470C
:1037200043F2F07303FB010008307047012070473B
:103730001020704700EB01100830704700EB0110BB
:10374000083070470846FEF73DBF0000034B10B538
:103750000446036008F0BEF9204610BD0C53020871
:1037600010B50446FFF7F2FF482120461FF064F928
:10377000204610BD034B10B50446036008F0AAF9BB
:10378000204610BDD852020810B50446FFF7F2FFDC
:1037900043F2F87120461FF04FF9204610BD00009B
:1037A000034B10B50446036008F094F9204610BDA1
:1037B000A452020810B50446FFF7F2FF1821204674
:1037C0001FF03AF9204610BD094B10B504460360BE
:1037D00000F560502430FFF7B9FF04F12C00FFF72B
:1037E000C9FF04F11400FFF7DBFF204610BD00BF46
:1037F0004053020810B50446FFF7E6FF43F6CC112C
:1038000020461FF019F9204610BD00002DE9F341B4
:10381000FFF7C2FA00240546FFF7C2FA2346014625
:1038200022462846009410F081FF264B264A204667
:10383000264D1A60FFF740FB254810F0DFFE2B787D
:10384000BFF35B8FDB0736D428461FF0CCF8002887
:1038500031D0204C204F04F1140004F12C0807F162
:103860004C061E4B6060C4F80880E7602661236048
:1038700008F032F91A4B4046636108F02DF9194BF4
:103880003846E36208F028F9174B07F148003B601F
:10389000FDF7A6F8224607F148013046FDF7D4F8B7
:1038A0003046FEF78FFE28461FF0A9F80F4A104950
:1038B00020461FF0BCF80F4802B0BDE8F04100F010
:1038C000DFB800BF1CE400246C4A0024700200240E
:1038D0001800002474020024983A0024405302087F
:1038E000A4520208D85202080C5302080000002417
:1038F000C9370008E449002470470000014800F07F
:10390000D9B800BFE449002410B5044604211FF0D3
:1039100093F8204610BD10B5044684211FF08CF8A2
:10392000204610BD10B5044688211FF085F82046BA
:1039300010BD0000F8B53D4C3D4D3E4B22463E4F7C
:1039400028463E492B601FF072F83D4E3846FFF77F
:103950001FFE22463B4938461FF069F8304615F0F5
:1039600097FA2246384930461FF061F82246374917
:1039700037481FF05CF83748002301223649C560FC
:10398000038580F82A30C362038680F8483080F8C7
:10399000492080F84A3080F84B30436580F8583031
:1039A0004366816680F86C3080F86D3080F86E3048
:1039B0002A49C0E90176C0E90433C0E90633C0E909
:1039C0000833C0E90E33C0E91033C0E91333C0E94E
:1039D000173380F86F3080F87A2080F87B20204AF7
:1039E000C0F8803010604FF4207280F870300A8088
:1039F0001C4943670A804FF4F0721B4980F8783005
:103A00000A801A4980F879300A80194A80F83430DF
:103A10001370C0F88430174A174B02602246C36700
:103A20001649BDE8F8401FF002B800BF00000024AE
:103A3000403C002470540208443C0024ED36000849
:103A4000704A002459350008EF360008612D00083F
:103A500018000024E449002401000001ACE3002424
:103A6000B8E30024B2E30024AEE30024B4E300246E
:103A7000B0E3002454530208B4540208F13600089D
:103A800038B5044600F000F9204604F17C05FFF744
:103A900007FB236806492046D3F88C309847284610
:103AA00000F064F90123256184F8703038BD00BF4F
:103AB00000C012D008B503680446D3F88030984798
:103AC00023689B6F20469847FFF7FCFD23681B6F18
:103AD000F8E7FFF795BAFFF799BA0000F8B5FFF7D6
:103AE000FDFA134A0023C2F88430BFF34F8FD2F897
:103AF000803043F6E076C3F3C904C3F34E33A50721
:103B00005B0103EA060C284621464CEA000701390E
:103B100000F14040C2F874724F1CF6D1203B13F103
:103B2000200FEED1BFF34F8FBFF36F8FF8BD00BFF3
:103B300000ED00E0FFF740BAFFF74ABBFFF752BBCA
:103B4000FFF744BA08F06EBA08B5054B01461B688A
:103B500000B10121184609F013F8012008BD00BF8B
:103B6000B8E30024032823D8DFE800F0020A131A80
:103B7000104B08211A68B2FA82F252090E4806E088
:103B80000C4B04215A68B2FA82F252090B4804F035
:103B900045B8084B02219A68B2FA82F25209F5E759
:103BA000044B4FF48071DA68B2FA82F25209E5E709
:103BB000704700BFF44A002400040258000802586D
:103BC000032823D8DFE800F0020A131A104B08215B
:103BD0001A68003218BF01220E4806E00C4B04217F
:103BE0005A68003218BF01220B4804F017B8084B7E
:103BF00002219A68003218BF0122F5E7044B4FF406
:103C00008071DA68003218BF0122E5E7704700BF13
:103C1000F44A0024000402580008025803280FD870
:103C2000DFE800F00205090B0821064801E0042145
:103C3000054803F0F8BF0221FAE74FF48071F4E77A
:103C4000704700BF000402580008025808B5032856
:103C500013D8DFE800F002050D0F0821084801E045
:103C60000421084803F0D4FF431E5842584108BDC0
:103C70000221F6E74FF48071F0E70020F4E700BF7F
:103C8000000402580008025870B50024074D0126B0
:103C9000E0B2FFF7DBFF28B155F82430012B18BF45
:103CA00045F824600134052CF2D170BDF44A00249B
:103CB00030B54FF4F07385B04FF4207201210B241E
:103CC000CDE900230523CDE902136946002007F062
:103CD00053F905460A2000F0F3FE15F0FF0F07D058
:103CE000013CF2D1034B2E21034A04481EF0B0FEE2
:103CF00005B030BD24540208805402083D54020827
:103D0000F0B585B00E460020154601A9124F07F008
:103D1000E9F9019C74B1029B104A33601360039B64
:103D20000F4A2B60136000F0C5FE38600124204666
:103D300005B0F0BD00F0BEFE3B6878338342F6D993
:103D4000064B1A68002AF2DD054B1B68002BEEDDDE
:103D500032602B60EAE700BF0C4B0024044B0024C8
:103D6000084B00244068704741607047094A136857
:103D700043F080731360A2F54E42074B4C3A116832
:103D80000B431360A2F57B62136843F001031360D9
:103D9000704700BFFCED00E055CEACC5521A02EBF7
:103DA0005302B2FBF3F07047014B1868704700BF35
:103DB000041000E0704710B504460C211EF03CFED4
:103DC000204610BD10B5036804461B6931B1984701
:103DD000A26863689B1A1844606010BD9847A06091
:103DE000FBE77047FEE7FEE7FEE7FEE770470000EF
:103DF000014804F039B800BF88EE0024014803F000
:103E000097BA00BF40ED0024014803F057BF00BF40
:103E1000ECED00241849194810B5D1F8883043F466
:103E20007003C1F88830164B1A6842F001021A601C
:103E300000221A611C68204018609A61DA611A62D7
:103E40009A62DA621A635A639A63DA631A645A648A
:103E5000186820F4802018601A660A4B1B681B0C37
:103E60001B04B3F1005F02D2074B01221A604FF02E
:103E700000638B6010BD00BF00ED00E07FEDF6EA4F
:103E8000004402580010005C0881005108B564200D
:103E900005F087FEFBE7000070B59CB04C220021C6
:103EA00009A81EF04AFE2022002101A81EF045FEAE
:103EB000022001F0DBFC00230093204BDA6A22F0A1
:103EC0000102DA62DB6A03F0010300931C4B9A697A
:103ED00042F440429A619A6902F440420092009A88
:103EE0009A699404FCD501224FF480330521022401
:103EF0000025082609A816941B95CDE90923A023BF
:103F0000CDE914130423CDE91244CDE91734CDE9EA
:103F1000196501F093FD3F2003234FF48062214691
:103F2000CDE90103402301A8CDE90356CDE90533CE
:103F3000CDE9072302F0C6F81CB070BD000400589C
:103F4000004802580123DA4A2DE980481360A2F59F
:103F5000783299B01360D74B5A6912F4003211D1FC
:103F6000BFF34F8FBFF36F8FC3F85022BFF34F8F54
:103F7000BFF36F8F5A6942F400325A61BFF34F8F1B
:103F8000BFF36F8FCB4A536913F4803328D1C2F843
:103F90008430BFF34F8FD2F8803043F6E076C3F31E
:103FA000C904C3F34E33A5075B0103EA060C284698
:103FB000214640EA0C07013900F14040C2F8607226
:103FC0004F1CF6D1203B13F1200FEED1BFF34F8FE2
:103FD000536943F480335361BFF34F8FBFF36F8F47
:103FE000102600F02DFD00210BA8324601251EF001
:103FF000A4FD002403F090FB4FF01052AE4B0BA831
:104000004FF01C09ADF82C504FF0020803274FF079
:104010001A0A4FF0400BCDE90C23A84B0E9303F086
:104020009DFB4FF050430BA88DF834900C938DF806
:104030002D508DF83740ADF83A4003F08FFB182330
:104040000BA88DF82D808DF8343040F201138DF8D7
:104050003770ADF83A3003F081FB4FF010438DF824
:1040600034900BA84FF004090C938DF82D708DF847
:104070003740ADF83A4003F071FB0BA88DF82D9056
:104080008DF834A08DF837708DF83A5003F066FB48
:10409000484603F051FBFFF7FFFE142221460BA810
:1040A0001EF04BFD864B4FF484718648D3F8E02018
:1040B00042F48072C3F8E020D3F8E02002F480726A
:1040C0000092009AD3F8E02042EA0802C3F8E02008
:1040D000D3F8E02002EA08020192019AD3F8E02026
:1040E00042F48062C3F8E020D3F8E02002F480625A
:1040F0000292029AD3F8E02042F04002C3F8E02096
:10410000D3F8E02002F040020392039AD3F8E020B3
:104110003243C3F8E020D3F8E02032400492049AFE
:10412000D3F8E02042F40072C3F8E020D3F8E02096
:1041300002F400720592059AD3F8E02042EA0902DF
:10414000C3F8E020D3F8E02002EA09020692069ABA
:10415000D3F8E02042F08002C3F8E020D3F8E0205A
:1041600002F080020792079AD3F8E02042F008029A
:10417000C3F8E020D3F8E02002F008020892089A81
:10418000D3F8E02042F02002C3F8E020D3F8E0208A
:1041900002F020020992099AD3F8E0202A43C3F8DA
:1041A000E0202246D3F8E0302B400A930A9B03F02C
:1041B00035FD22460621444803F030FD494622469B
:1041C000424803F02BFD2A464021404803F026FDDB
:1041D0004FF484730BA93B48CDE90B35CDE90D476E
:1041E00003F084FB06230BA93748CDE90B35CDE955
:1041F0000D4703F07BFB0BA93448CDE90B95CDE9C6
:104200000D4403F073FB0BA93048DFF8D090CDE9E3
:104210000BB5CDE90D4803F069FB2D482D4A84808C
:1042200002600562C0E9054401F0E4FA3422214647
:104230000BA81EF082FC284A8F2140F20F3040F27A
:104240001F3CC9F81040A9F8344089F83640C9E944
:1042500000241D22C9E905282222C9E9071240F2DB
:104260000222C9E909024FF403724846C9E90BC2A8
:10427000C9E9024402F0E0FFFF204FF4806E4FF0E6
:1042800050434FF420714FF4F0720B941692ADF836
:104290005C408DF85E40CDE910040520CDE9143175
:1042A000CDE912E0CDE90C14CDE90E2818E000BFED
:1042B0000861045100ED00E012000003010001015B
:1042C0000044025800040258000802580000025836
:1042D0001CED0024004C02580010005040ED00245A
:1042E0000BA922464846DFF8049103F082F83348D0
:1042F000334A0BA984621196C0E900252022C0E947
:1043000004248022C0E90244C0E90624C0E908442C
:10431000CDE90B66CDE90D66CDE90F6601F0CAFA6D
:10432000284920460A6822F001020A6006F0D8FCFB
:10433000204606F01FFD24484FF44032C0E90284B5
:10434000C0E9009203F078FC2048214AC0F810A090
:10435000C0F820B0C0E900274FF44072C0E9025411
:10436000C0E9052402F086FC204606F041FA0BA9BC
:1043700020468DF82C708DF82D508DF82EB006F05B
:10438000DFFA204606F0E8F95C2003F0B1F903F00B
:10439000DBFE03F0D8FE05F08FFB0E4A21460E48E7
:1043A00005F0B6FB0D4B0E4A214618600D4805F08E
:1043B000AFFB0D4B186005F091FBFEE754EE0024B7
:1043C0004041005200400052ECED002478EF002400
:1043D00000500052085502088D3E000818ED0024D8
:1043E000E454020857810008E8ED00240010005250
:1043F0000268034B9A4201D100F050BB704700BFE6
:1044000000100040704700000F2810B504468AB025
:1044100002D901200AB010BD01460022362003F067
:1044200027F9362003F056F9184B694602A81C609C
:10443000174BD3F8E82042F01002C3F8E820D3F875
:10444000E83003F010030193019B01F09FFF079BED
:10445000C3B901F089FF0F4C0F4B236040F2E733E3
:10446000E3600E4BB0FBF3F00138002360602046A0
:104470002361A36003F012FE0028CAD1204603F096
:10448000AFFCC7E701F070FF4000E4E7280000241C
:104490000044025888EE00240010004040420F0003
:1044A0000A4B82B00F216FF00100D3F8F42042F0E4
:1044B0000202C3F8F4200022D3F8F43003F0020320
:1044C0000193019B02B003F0D3B800BF004402582F
:1044D000026882B0094B9A420DD1A3F50063D3F86C
:1044E000E02042F40022C3F8E020D3F8E03003F4E7
:1044F00000230193019B02B0704700BF004C02589B
:1045000007B50F4B02689A4217D10E4B05215A206E
:10451000D3F8D42042F01002C3F8D4200022D3F8FC
:10452000D43003F010030193019B03F0A1F85A204B
:1045300003B05DF804EB03F0CDB803B05DF804FB05
:104540000010005200440258F0B51422BBB00446DB
:1045500000210DEB02001EF0F0FAC02200210AA893
:104560001EF0EBFA22683C4B9A4273D14FF0005296
:10457000002320210AA8CDE90A23A0230522CDE9A2
:1045800014230223CDE916334FF40063CDE9181349
:1045900000F09EFB08B1FFF735FF304B00240227E7
:1045A0000326D3F8E4200E2505A92D4842F0080281
:1045B000C3F8E420D3F8E42002F008020192019A43
:1045C000D3F8E02042F48062C3F8E020D3F8E02082
:1045D00002F480620292029AD3F8E02042F4007260
:1045E000C3F8E020D3F8E02002F400720392039AAB
:1045F000D3F8E02042F48072C3F8E020D3F8E03032
:10460000099503F480730493049BFF23CDE90746C7
:10461000CDE9053703F06AF948F67D6305A911482D
:104620000995CDE90537CDE9074603F05FF94FF469
:10463000704305A90C480995CDE90537CDE9074632
:1046400003F054F9582022460F2103F011F85820A6
:1046500003F040F83BB0F0BD001000500044025899
:104660000028025800240258002002582DE9F04189
:10467000BCB004461422002107A81EF05EFAC02236
:1046800000210CA81EF059FA2268574B9A4240F0BC
:10469000A7804FF0007200230CA8CDE90C2300F096
:1046A00017FB08B1FFF7AEFE504B0225032400278D
:1046B000D3F8D420092607A94D4842F480424FF090
:1046C0000108C3F8D420D3F8D42002F48042019228
:1046D000019AD3F8E02042F04002C3F8E020D3F87A
:1046E000E02002F040020292029AD3F8E02042F069
:1046F0000402C3F8E020D3F8E02002F004020392A1
:10470000039AD3F8E02042F02002C3F8E020D3F867
:10471000E02002F020020492049AD3F8E02042F054
:104720008002C3F8E020D3F8E02002F08002059276
:10473000059AD3F8E02042F00202C3F8E020D3F853
:10474000E03003F002030693069B4FF48443CDE967
:104750000735CDE909740B9603F0C8F84FF40063F0
:1047600007A924480B96CDE90735CDE9098403F064
:10477000BDF8402307A91E48CDE909844FF00A0877
:10478000CDE90735CDF82C8003F0B0F8C02307A998
:1047900019480B96CDE90735CDE9097403F0A6F861
:1047A0004FF4407307A91448CDF82C80CDE90735A4
:1047B000CDE9097403F09AF80C2307A90F480B966A
:1047C000CDE90735CDE9097403F090F8042307A972
:1047D0000B480B96CDE90735CDE9097403F086F84F
:1047E0003CB0BDE8F08100BF0050005200440258C8
:1047F000001802580008025800140258001C025801
:104800000004025808B5124B02689A421FD1114A9F
:1048100044F240211048D2F8D43023F48043C2F847
:10482000D43003F051F94FF400610C4803F04CF917
:104830004FF470710A4803F047F90C21094803F05E
:1048400043F904210848BDE8084003F03DB908BD1C
:104850000050005200440258001802580008025844
:1048600000140258001C025800040258F0B5B7B0FA
:104870000021142201A81EF060F93F4B196800299D
:1048800077D1012208A81A60B8221EF056F936A87E
:104890004FF08072002360E9302300F019FA08B16C
:1048A000FFF7B0FD354B022700260325D3F8D420AF
:1048B0000C2401A9324842F48052C3F8D420D3F822
:1048C000D430059403F480530093009B40F2FF63BF
:1048D000CDE90365CDE9013703F008F8602301A9AC
:1048E00028480594CDE90137CDE9036502F0FEFFC4
:1048F0004FF6837301A924480594CDE90137CDE92A
:10490000036502F0F3FF4FF47F4301A91F480594AC
:10491000CDE90137CDE9036502F0E8FF48F2111354
:1049200001A91B480594CDE90137CDE9036502F0E3
:10493000DDFF4CF2037301A916480594CDE9013758
:10494000CDE9036502F0D2FF4FF63F0301A91248FB
:104950000594CDE90137CDE9036502F0C7FF0123D6
:1049600001A90E480594CDE90137CDE9036502F0B0
:10497000BDFF37B0F0BD00BF144B00240044025807
:10498000002002580004025800100258001C02586F
:1049900000180258000C025800140258000802586F
:1049A0001A4B10B51A6882BB194A012440F2FF6104
:1049B00018481C60D2F8D43023F48053C2F8D430A5
:1049C00003F082F86021144803F07EF84FF68371FB
:1049D000124803F079F84FF47F41114803F074F85E
:1049E00048F211110F4803F06FF84CF203710E48B2
:1049F00003F06AF84FF63F010C4803F065F82146D2
:104A00000B48BDE8104003F05FB810BD104B002408
:104A100000440258002002580004025800100258B6
:104A2000001C025800180258000C025800140258CA
:104A3000000802580149002004F0D0BB493B00089F
:104A400010B5032002F002FE01F0A0FA0F49104A4F
:104A50008B69C3F30323D35C03F01F03D8408B6936
:104A600003F00F03D35C0B4A03F01F0320FA03F398
:104A70001360094B18600020FFF7C6FC044618B904
:104A8000FFF70EFD204610BD0124FBE7004402584D
:104A9000D4540208200000241C000024034A044BC4
:104AA00011681B780B441360704700BFD4EE0024DC
:104AB00024000024014B1868704700BFD4EE002486
:104AC00038B50446FFF7F6FF0546631C1EBF044BCE
:104AD0001B78E418FFF7EEFF401BA042FAD338BD65
:104AE00024000024014B1868000C70470010005C83
:104AF000F8B53A4C06460D46A36A03F00303032BB0
:104B000069D0236823F080632360FFF7D3FF074653
:104B100023681A014BD4A36A326823F47C3343EA36
:104B20000233A362B368F268013B013A5B021204EC
:104B30009BB202F4FE0213437268013AC2F3080208
:104B400013433269013A120602F0FE421343A36393
:104B5000E36A726923F0C0031343E362E36AB26954
:104B600023F020031343E362E36A23F01003E362BC
:104B7000E36BF26923F47F4323F0F80343EAC203B3
:104B8000E363E36A43F01003E362E36AB5B943F415
:104B90000023E362114C236843F080632360FFF736
:104BA00089FF054623681B010FD5002005E0FFF7AC
:104BB00081FFC01B0228ABD90320F8BD012D0CBF1B
:104BC00043F4801343F40013E3E7FFF773FF401B44
:104BD0000228E7D9F0E70120EFE700BF00440258C0
:104BE000F8B53A4C06460D46A36A03F00303032BBF
:104BF00069D0236823F080532360FFF75BFF0746EB
:104C000023689A004BD4A36A326823F07C7343EA8A
:104C10000253A362B368F268013B013A5B021204DB
:104C20009BB202F4FE0213437268013AC2F3080217
:104C300013433269013A120602F0FE421343236421
:104C4000E36A726923F440631343E362E36AB2697F
:104C500023F400731343E362E36A23F48073E36293
:104C6000636CF26923F47F4323F0F80343EAC20341
:104C70006364E36A43F48073E362E36AB5B943F4BF
:104C80008003E362114C236843F080532360FFF7F5
:104C900011FF054623689B000FD5002005E0FFF7B4
:104CA00009FFC01B0228ABD90320F8BD012D0CBFA2
:104CB00043F4000343F08073E3E7FFF7FBFE401B80
:104CC0000228E7D9F0E70120EFE700BF00440258CF
:104CD0002DE9F843D0E900230446002102F00060EA
:104CE00050EA010314D0A36EB3F5801F18D002D888
:104CF00083B101261CE0B3F5001F29D0B3F5401F96
:104D0000F7D19A4AA16E136D23F440130B43136538
:104D100000260DE0954AD36A43F40033D362F0E7EE
:104D2000022104F10800FFF7E3FE06460028E8D060
:104D30000021D4E9002302F4807050EA01033BD043
:104D4000A36D042B37D8DFE803F00910300E0E00F6
:104D5000022104F12800FFF743FFE6E7834AD36A04
:104D600043F40033D362354605E0002104F1080026
:104D7000FFF7BEFE05460DBB7C4AA16D136D23F007
:104D800007030B4313650021D4E9002302F40070EC
:104D900050EA010321D0E36D802B41D010D893B3AA
:104DA000402B36D00126354617E0002104F12800BB
:104DB000FFF716FFDEE701263546E4E72E46E2E779
:104DC000C02B02D0B3F5807FECD17DBB674AE16D8B
:104DD000136D23F4E0730B4313650021D4E9002322
:104DE00002F4806050EA010331D0D4F8A830B3F562
:104DF000800F4FD01CD8002B3FD0B3F5001F42D0FE
:104E00000126354623E0594AD36A43F40033D3627E
:104E1000DBE7002104F10800FFF76AFE0546D4E74E
:104E2000002104F12800FFF7DBFEF7E72E46D4E768
:104E3000B3F5C00F02D0B3F5000FE1D185BB4B4AEB
:104E4000D4F8A810936D23F460030B4393650021FD
:104E5000D4E9002302F4006050EA010331D0D4F811
:104E6000AC30B3F1007F49D01CD8002B39D0B3F15E
:104E7000807F3CD00126354623E03C4AD36A43F488
:104E80000033D362DAE7002104F10800FFF730FEB7
:104E90000546D3E7002104F12800FFF7A1FEF7E75C
:104EA0002E46D4E7B3F1407F02D0B3F1806FE1D159
:104EB00055BB2E4AD4F8AC10936D23F0E0630B433E
:104EC00093650021D4E9002302F0007050EA010349
:104ED00028D0E36C102B3AD018D8DBB10126354628
:104EE00020E0224AD36A43F40033D362E0E7002192
:104EF00004F10800FFF7FCFD0546D9E7002104F1A5
:104F00002800FFF76DFEF7E72E46DAE7202B24D0C6
:104F1000302BE3D145BB154AE16CD36C23F0300351
:104F20000B43D3640021D4E9002302F4805050EAFB
:104F300001032BD0236EB3F5005F48D018D8002BA7
:104F400038D0B3F5805F3BD0012635461EE0074AD6
:104F5000D36A43F40033D362DCE7022104F1080092
:104F6000FFF7C6FD0546D5E72E46DBE700440258AD
:104F7000B3F5405F02D0B3F5804FE5D16DBBAA4ACF
:104F8000216E136D23F4E0430B4313650021D4E934
:104F9000002302F4005050EA010331D0636EB3F5F0
:104FA000003F49D01BD81BB3B3F5803F3DD001264D
:104FB000354625E09C4AD36A43F40033D362DDE7EB
:104FC000002104F10800FFF793FD0546D6E7002114
:104FD00004F12800FFF704FEF7E72E46D6E7B3F505
:104FE000802F05D0B3F5A02F02D0B3F5403FDED11E
:104FF00045BB8D4A616E136D23F4E0230B431365AB
:105000000021D4E9002302F4804050EA01032ED0AD
:10501000D4F8B030B3F1005F5AD015D8EBB1B3F18A
:10502000805F4ED00126354621E0012104F10800C1
:10503000FFF75EFD0546DBE7012104F12800FFF7DD
:10504000CFFDF7E72E46DBE7B3F1804F05D0B3F194
:10505000A04F02D0B3F1405FE4D1002D3ED1724A9F
:10506000D4F8B010936D23F0E0430B439365002117
:10507000D4E9002302F4004050EA010311D0236F69
:10508000B3F1805F2CD0B3F1005F2FD0002B34D16F
:10509000002D35D1644A216F136D23F040530B432B
:1050A00013650021D4E9002302F0807050EA010367
:1050B00036D0A36C032B00F28180DFE803F02823B5
:1050C0007828012104F10800FFF712FD0546C4E726
:1050D000012104F12800FFF783FDF7E72E46C6E71C
:1050E000514AD36A43F40033D362D1E7012104F17A
:1050F0000800FFF7FDFC0546CAE701263546D0E764
:105100002E46CEE7484AD36A43F40033D362002DDB
:1051100057D1454AA16CD36C23F003030B43D364EE
:105120000021D4E9002302F4800050EA010352D0A8
:105130003E4F3B6843F480733B60FFF7BBFC804607
:105140003B68DA053FD5002D6BD1374BD4F8B4104E
:105150001A6F4A4012F4407F0BD01A6F196F22F475
:10516000407241F480311967196F21F48031196759
:105170001A67D4F8B430B3F5807F3ED0D4F8B400C9
:10518000294A00F44073B3F5407F46D11169284B9A
:1051900021F47C5103EA10130B431361224AD4F823
:1051A000B430116FC3F30B030B43136713E00221F9
:1051B00004F10800FFF79CFC0546A8E701263546E8
:1051C000AEE72E46ACE7FFF775FCA0EB08006428BD
:1051D000B6D9032635460021D4E9002302F00100A8
:1051E00050EA010334D0E36F102B48D022D83BB3F0
:1051F000082B3DD0012635462AE0FFF75BFC0A4F1D
:10520000804641F288393B6F9B07B7D4FFF752FCC9
:10521000A0EB08004845F6D9DBE7136923F47C537B
:10522000BBE72E46D7E700BF0044025800480258AB
:10523000CFFFFF00202B03D0282B01D0182BD9D172
:105240001DBB764AE16F536D23F038030B43536562
:105250000021D4E9002302F0020050EA010324D027
:10526000A36F052B38D8DFE803F01812311818188F
:10527000012104F10800FFF73BFC0546E0E70121AE
:1052800004F12800FFF7ACFCF7E72E46E0E7012128
:1052900004F10800FFF72CFC054605BB5F4AA16F2F
:1052A000536D23F007030B4353650021D4E900231A
:1052B00002F0040050EA010322D0D4F89430052B08
:1052C00039D8DFE803F0140E32141414012104F16C
:1052D0002800FFF785FCDFE701263546E5E72E4687
:1052E000E3E7012104F10800FFF702FC05462DBBAE
:1052F0004A4AD4F89410936D23F007030B43936547
:105300000021D4E9002302F0200050EA010329D053
:10531000D4F89030B3F1005F40D011D8CBB1B3F1E5
:10532000805F34D0012635461CE0012104F12800BD
:10533000FFF756FCDAE701263546E1E72E46DFE7C0
:10534000B3F1804F05D0B3F1A04F02D0B3F1405F6D
:10535000E8D14DBB314AD4F89010536D23F0E043AF
:105360000B4353650021D4E9002302F0400050EACA
:1053700001032DD0D4F89C30B3F5006F46D015D87A
:10538000EBB1B3F5806F3AD00126354620E000211D
:1053900004F10800FFF7ACFB0546DAE7022104F14F
:1053A0002800FFF71DFCF7E72E46DBE7B3F5805F2B
:1053B00005D0B3F5A05F02D0B3F5406FE4D15DBB7B
:1053C000164AD4F89C10936D23F4E0530B43936575
:1053D0000021D4E9002302F0800050EA010333D019
:1053E000D4F8A030B3F5804F00F0C38018D803B3D1
:1053F000B3F5005F00F0B6800126354624E00021B9
:1054000004F10800FFF774FB0546D8E7022104F118
:105410002800FFF7E5FBF7E72E46D9E700440258DE
:10542000B3F5004F05D0B3F5204F02D0B3F5C04F10
:10543000E2D1002D40F0A3805D4AD4F8A010936D16
:1054400023F460430B4393650021D4E9002302F069
:10545000080050EA010314D0D4F88430B3F5805F1B
:1054600007D1022104F12800FFF7BAFB002818BF7A
:1054700001264F4AD4F88410536D23F440530B4354
:1054800053650021D4E9002302F0100050EA010323
:1054900014D0D4F89830B3F5807F07D1022104F1FD
:1054A0002800FFF79DFB002818BF0126404AD4F8CA
:1054B0009810936D23F440730B4393650021D4E956
:1054C000002302F4002050EA010318D0D4F8A410FD
:1054D000B1F5803F55D0B1F5003F06D0002956D137
:1054E00004F10800FFF704FB0546002D52D1304AB5
:1054F000D4F8A410936D23F440330B43936500213B
:10550000D4E9002302F4802050EA010319D0D4F832
:105510008830B3F5001F3FD0B3F5401F07D0B3F577
:10552000801F40D1224AD36A43F40033D362002D56
:105530003CD11F4AD4F88810536D23F440130B4319
:1055400053650021D4E9002302F4803050EA0103BE
:105550003FD0236D73B3B3F5803F00F02481012663
:10556000354636E0002104F10800FFF7C1FA054690
:105570005FE7022104F12800FFF732FBF7E72E4630
:1055800062E7022104F12800FFF72AFBACE70126BD
:105590003546B4E72E46B2E7012104F12800FFF7B3
:1055A0001FFB0546C3E701263546CAE72E46C8E776
:1055B000004402588E4AD36A43F40033D362002D6C
:1055C00040F0F8808A4A216DD36C23F480330B437A
:1055D000D3640021D4E9002302F0005050EA010313
:1055E00007D0022104F12800FFF7FAFA002818BFBB
:1055F00001260021D4E9002302F4003050EA01031F
:1056000015D0D4F88030B3F5807F00F0DF8000F251
:10561000D380002B40F0D880002D40F0DD80744A0C
:10562000D4F88010536D23F440730B43536500216D
:10563000D4E9002302F4801050EA010306D06C4A3A
:10564000616F136D23F000430B4313650021D4E910
:10565000002302F0805050EA010307D0644AD4F8D6
:10566000B810136923F480430B4313610021D4E97C
:10567000002302F4001050EA010306D05C4AE16EF8
:10568000136D23F080730B4313650021D4E90023CD
:1056900002F0804050EA010309D0554B1A6922F408
:1056A00000421A611A69D4F8BC100A431A61002139
:1056B000D4E9002302F0004050EA010306D04C4A2E
:1056C000616DD36C23F040530B43D3640021D4E9C4
:1056D000002302F4000050EA010307D0444AD4F842
:1056E0008C10536D23F440030B4353650020D4E921
:1056F000002303F0010150EA010307D0002104F167
:105700000800FFF7F5F9002818BF06460020D4E985
:10571000002303F0020150EA010307D0012104F144
:105720000800FFF7E5F9002818BF06460020D4E975
:10573000002303F0040150EA010307D0022104F121
:105740000800FFF7D5F9002818BF06460020D4E965
:10575000002303F0080150EA010307D0002104F1FF
:105760002800FFF73DFA002818BF06460020D4E9BC
:10577000002303F0100150EA010307D0012104F1D6
:105780002800FFF72DFA002818BF06460020D4E9AC
:10579000002303F0200150EA01031FD1301C18BF81
:1057A0000120BDE8F883022104F10800FFF7A0F909
:1057B000054604E72E460CE7B3F5007F3FF42CAF17
:1057C000B3F5407F3FF428AF012630E7084AD36A9B
:1057D00043F40033D3621FE72E4628E7022104F189
:1057E0002800FFF7FDF90028D8D00120D9E700BF35
:1057F0000044025810B5044608B9012010BD437F8B
:1058000003F0FF0213B90277FEF762FE022363770B
:105810002379FBB92368144A5A612268936823F0FC
:105820001803936062792368E2B94FF0FF321A617E
:10583000002022686169936823F060030B43936042
:105840002268A169936823F080030B4393600123CE
:105850006377D3E7D4E90212204602F04FFC002818
:10586000E0D0CAE72269E2E7B71DC10438B5104CA1
:10587000E36813F0040FE36805D103F00703181A77
:1058800018BF012038BD23F007031843E060FFF77D
:1058900011F9054663689B0401D50020F2E7FFF784
:1058A00009F9401BB0F57A7FF4D90120EAE700BF7F
:1058B0000048025838B50D460446F0B190F82C3037
:1058C00003F0FF021BB980F82D20FEF7CFFF022363
:1058D000211D206884F82C3001F066FF626829469B
:1058E000206801F095FF064A0020136843F000434A
:1058F0001360012384F82C3038BD0120FCE700BF81
:105900000040005210B50446FFF74AF8D4E9000100
:1059100001F0C0FF002084F82C0084F82D0010BD99
:1059200070B5054690F82C000E46C0B2022810D083
:1059300000F0FB04012C10D10223286885F82C30DC
:1059400001F0B7FF3368022B04D1052385F82C3012
:10595000002070BD85F82C40FAE70120F9E738B542
:10596000044690F82C00C0B202280DD094F82C50B8
:10597000EDB2012D09D10223206884F82C3001F00A
:10598000AAFF002084F82C5038BD0120FCE710B598
:1059900090F84130DBB2202B23D190F84020012A2F
:1059A0001FD00122046880F84020242280F8412082
:1059B000226822F0010222600468226822F48052E8
:1059C0002260046822681143216001680A6842F07D
:1059D00001020A6080F84130002380F84030184608
:1059E00010BD0220FCE710B590F84120D2B2202A69
:1059F00021D190F84030012B1DD00123046880F89C
:105A00004030242380F84130236823F001032360D1
:105A10000468236823F4706343EA0121216001686C
:105A20000B6843F001030B60002380F8412080F8ED
:105A30004030184610BD0220FCE70000F8B50446CF
:105A400008B9012092E00368D90762D423689A0755
:105A500000F1AC802368DA0627D5A54B1A69996A4C
:105A600002F03802082A07D0182A40F0038101F01A
:105A70000302012A40F0FE801B68DB0502D5E369C2
:105A8000802BDED1FFF72EF841F20303216A984202
:105A9000974B00F2E8805A68202922F0F8420CBFA8
:105AA00042F0804242EA81625A602368190700F19D
:105AB000238123689A0600F1448123685D0722D57B
:105AC0008C4D2B6843F480732B60FEF7F3FF064682
:105AD0002B68DA0540F15A81A268854B012A40F013
