:020000040800F2
:1000000000000824ADB600084B3A00084D3A00083D
:100010004F3A0008513A0008533A00080000000027
:10002000000000000000000000000000519D0008DA
:10003000553A000800000000E19D000805970008FF
:10004000FDB60008FDB60008FDB60008FDB60008C4
:10005000FDB60008FDB60008FDB60008FDB60008B4
:10006000FDB60008FDB60008FDB60008FDB60008A4
:10007000FDB60008FDB60008FDB60008FDB6000894
:10008000FDB60008FDB60008FDB60008FDB6000884
:10009000FDB60008FDB60008FDB60008FDB6000874
:1000A000FDB60008FDB60008FDB60008FDB6000864
:1000B000FDB60008FDB60008FDB60008FDB6000854
:1000C000FDB60008FDB60008FDB60008FDB6000844
:1000D000FDB60008FDB60008FDB60008FDB6000834
:1000E000FDB60008FDB6000800000000FDB60008DF
:1000F000FDB60008FDB60008FDB60008FDB6000814
:10010000FDB60008FDB60008FDB60008FDB6000803
:10011000FDB60008FDB60008593A0008FDB6000813
:10012000FDB60008FDB60008FDB60008FDB60008E3
:10013000FDB60008FDB60008FDB60008FDB60008D3
:1001400000000000000000000000000000000000AF
:10015000FDB60008FDB60008FDB60008FDB60008B3
:10016000FDB60008FDB60008FDB60008FDB60008A3
:10017000FDB60008FDB60008FDB60008000000004E
:10018000FDB60008FDB60008FDB60008FDB6000883
:10019000FDB60008FDB60008FDB60008FDB6000873
:1001A000653A0008FDB60008713A0008FDB600087F
:1001B000FDB60008FDB60008FDB60008FDB6000853
:1001C000FDB60008FDB60008FDB60008FDB6000843
:1001D000FDB60008FDB60008FDB60008FDB6000833
:1001E000FDB60008FDB60008FDB60008FDB6000823
:1001F000FDB60008FDB60008FDB60008FDB6000813
:10020000FDB60008FDB60008FDB60008FDB6000802
:10021000FDB60008FDB60008FDB60008FDB60008F2
:10022000FDB60008FDB60008FDB60008000000009D
:10023000FDB60008FDB6000800000000FDB600088D
:10024000FDB60008FDB60008FDB60008FDB60008C2
:10025000FDB60008FDB60008FDB60008FDB60008B2
:10026000FDB60008FDB60008FDB60008FDB60008A2
:10027000FDB60008FDB60008FDB60008000000004D
:10028000FDB60008FDB60008FDB60008000000003D
:0802900000000000FDB60008AB
:1002A00010B5054C237833B9044B13B10448AFF3B0
:1002B00000800123237010BD6401002400000000B1
:1002C000CC36020808B5034B1BB103490348AFF312
:1002D000008008BD0000000068010024CC36020840
:1002E00001F0FF01102A2BDB10F0070F08D010F8E7
:1002F000013B013A8B422DD010F0070F42B3F6D1EB
:10030000F0B441EA012141EA014122F007047FF003
:1003100000070023F0E80256083C85EA010586EA5A
:10032000010685FA47F5A3FA87F586FA47F6A5FA96
:1003300087F68EB9EED1F0BC01F0FF0102F00702A2
:1003400032B110F8013B013A83EA010313B1F8D14D
:100350000020704701387047002D06BF354603382E
:10036000073815F0010F07D1013015F4807F02BF67
:10037000013015F4C03F0130F0BC0138704700BFB8
:10038000704704387047704710B50446102122F0BA
:10039000B3F9204610BDA0F10400F5E70022C160CA
:1003A0008260044A10B502F1080420320460426001
:1003B00010BD00BFE83702087047704770477047AC
:1003C0002DE9F0410023B1F90470B1F9068081F8FC
:1003D0002430A7F15006A223A8F186041B4D96FBFA
:1003E000F3F6702394FBF3F42B68DA0710D402229F
:1003F000394693FBF2F3164A52F82300424603684B
:100400009B6D9847134B04EB4402134478229A5592
:100410002B68002B03F00102B8BF5242012A10D111
:100420000222394604EB440493FBF2F30A4A52F8E1
:100430002300424603689B6D9847064B1C446F237C
:10044000A3552B6801332B60BDE8F081B001002477
:1004500090010024A40100248001002400F28C718A
:10046000FFF7AEBF00F21471FFF7AABF00F29C6164
:10047000FFF7A6BF00F22461FFF7A2BF00F2AC5164
:10048000FFF79EBF00F23451FFF79ABF00F2BC4164
:10049000FFF796BF00F24441FFF792BF00F573717A
:1004A000FFF78EBF034B10B50446036000F082FBDC
:1004B000204610BD1838020810B50446FFF7F2FFB9
:1004C00043F2B851204622F017F9204610BDC388E8
:1004D000D21A8388C91A036812B209B210B45DF83F
:1004E000044B5B6D1847000001236FF019026FF099
:1004F0009B0110B5044680F8B03780F8383780F893
:10050000C03680F8483680F8D03580F8583580F805
:10051000E03480F8683480F8F03300F60400FFF728
:10052000D6FF6FF019026FF09B0104F64820FFF729
:10053000CEFF6FF019026FF09B0104F60440FFF745
:10054000C6FF6FF019026FF09B0104F55C60FFF7C6
:10055000BEFF6FF019026FF09B0104F6F460FFF725
:10056000B6FF6FF019026FF09B0104F63810FFF729
:10057000AEFF6FF019026FF09B0104F51C60FFF7EE
:10058000A6FF6FF019026FF09B0104F67C30FFF7B5
:100590009EFF6FF019026FF09B0104F63850FFF7D1
:1005A00096FF024B00221A6010BD00BFB00100246C
:1005B00010B5044600F086FB104B04F6040204F666
:1005C0003811236020460E4B1A600E4A116004F663
:1005D0004821596004F51C61516004F6044199609A
:1005E00004F67C31916004F55C61D96004F6385101
:1005F000D16004F6F4621A6110BD00BF1838020819
:10060000900100248001002400F099B990F8252081
:1006100012B103685B691847704781807047C180D9
:10062000704701817047418170477047704770473C
:1006300070477047806A7047034B10B504460360EB
:1006400001F000F8204610BD7838020810B50446C5
:10065000FFF7F2FF8821204622F04EF8204610BD19
:1006600010B5044600F0F8FF014B2046236010BD92
:100670007838020800F0E7BF034B10B5044603606A
:1006800000F0ECFE204610BD0C39020810B50446FF
:10069000FFF7F2FF4FF49A71204622F02DF8204622
:1006A00010BD000010B5044600F020FF014B2046AD
:1006B000236010BD0C39020800F0D1BE034B10B509
:1006C0000446036001F028F8204610BDA039020856
:1006D00010B50446FFF7F2FFDC21204622F00CF8AB
:1006E000204610BD10B5044601F020F8014B20460D
:1006F000236010BDA039020801F00FB87047000058
:10070000034B10B50446036001F0BEF8204610BD4F
:10071000343A020810B50446FFF7F2FF4FF4C071F7
:10072000204621F0E9FF204610BD000010B5044628
:1007300001F030F9014B2046236010BD343A020825
:1007400001F0A3B8704704387047704710B50446ED
:10075000102121F0D1FF204610BDA0F10400F5E7E3
:100760000022C1608260044A10B502F10804203200
:100770000460426010BD00BF603A02087047043850
:100780007047704710B50446102121F0B5FF204690
:1007900010BDA0F10400F5E70022C1608260044AA8
:1007A00010B502F1080420320460426010BD00BFA1
:1007B000883A020870470000034B10B504460360F6
:1007C00001F0FAF9204610BDB83A020810B5044607
:1007D000FFF7F2FF9821204621F08EFF204610BD42
:1007E00010B5044601F0F2F9014B2046236010BD1C
:1007F000B83A020801F0E1B9002202607047704780
:10080000704700F598730868496803C370477047DC
:1008100001F01ABC10B504464FF4AE7121F06CFF24
:10082000204610BD10B50446D0F85801FFF7E7FF89
:100830002046BDE8104011F067B810B50446D0F866
:10084000400158B10368DB68984738B1D4F84001DB
:1008500003689B6898470023C4F8403110BD00002E
:1008600010B5044601F0B8FB014B2046236010BDD3
:10087000EC3A0208002070474FF6FF7383814FF077
:10088000FF3303621368C36110607047704770479D
:1008900090F825201AB190F8242002B11860704712
:1008A0007047704770477047704770477047704790
:1008B00070477047704790F82C302BB1C26EC265FC
:1008C00023B1436F03667047826EF8E7036FF9E761
:1008D0007047704730B4C568034644686A10ED0736
:1008E0009B6804EB020048BFA25830BC48BFD358F5
:1008F000184743682BB183682BB9C06800F001002A
:100900007047184670470120704790F82D3080F8E6
:100910005A30704710B50446082121F0EDFE2046FC
:1009200010BD10B50446782121F0E6FE204610BD2A
:1009300010B50446102121F0DFFE204610BD10B591
:1009400004469830FFF7D8FE04F60400FFF7B4FE23
:1009500004F63810FFF78EFE04F51C60FFF78AFEE0
:1009600004F64820FFF7A8FE04F67C30FFF782FE6D
:1009700004F60440FFF7A0FE04F63850FFF77AFEB5
:1009800004F55C60FFF798FE04F6F460BDE81040E3
:10099000FFF792BE10B50446006B50B10368DB68E8
:1009A000984730B1206B21460368BDE810409B6832
:1009B000184710BD0B7970B504460E4690F82C50C0
:1009C00053B955B13379012B17D123682046D3F899
:1009D0008830BDE8704018477DB1B3FA83F32046F4
:1009E0005B0984F82C302368D3F88C30984723684F
:1009F00020465B699847002DE4D170BD0A4A026029
:100A000000228280C280028142818281C281028270
:100A10004282C2610284428480F82420C0E9052217
:100A2000012280F8252070474C58020870B50368F1
:100A3000044615461B6B98472368294620465B6B86
:100A4000BDE87040184770B504461E46BDF9105009
:100A5000FFF7ECFF2368314620469A6B90472368E6
:100A600029462046DB6BBDE87040184710B50446A8
:100A70002622002121F0C1FE2046FFF7BFFF044BD4
:100A800020462360FF2384F826300023A36210BD94
:100A90003856020810B504462622002121F0ADFE8A
:100AA0002046FFF7ABFF0C4B4FF6FF724FF47F0170
:100AB00023602046094BA285A3620023A4F84020AE
:100AC00084F8383084F83930A387E387A4F84220CB
:100AD0006364C4E90C3110BDA8550208403B02080C
:100AE000036880F82D10D3F89030184700F555733F
:100AF000994270B504460D4602D10368DB6A9847F7
:100B000004F53773AB420AD1FF212846FFF7E8FF0F
:100B1000284611F0F0FE10F04DFE01F0B5FA04F297
:100B20008C739D4203D1236820461B6B984704F2C7
:100B300014739D4203D1236820465B6B984704F2EF
:100B40009C639D4203D1236820469B6B984704F227
:100B500024639D4203D123682046DB6B984704F24F
:100B6000AC539D4203D1236820461B6C984704F286
:100B700034539D4203D1236820465B6C984704F2AE
:100B8000BC439D4203D1236820469B6C984704F2E6
:100B900044439D4203D123682046DB6C984704F50B
:100BA00073739D4205D1236820461B6DBDE87040DC
:100BB000184770BD38B51D4B04461D4D03600FF03E
:100BC000E3F804F6F460FFF757FD04F55C60FFF707
:100BD00053FDC4F8385D04F6385000F033FD04F6D8
:100BE0000440FFF749FDC4F87C5B04F67C3000F05C
:100BF00029FD04F64820FFF73FFDC4F8C05904F56D
:100C00001C6000F01FFDC4F8385904F6381000F0DD
:100C100019FD04F60400FFF72FFD2046054B40F8B0
:100C2000983F00F079FD204638BD00BF043C020823
:100C300078380208A039020810B50446FFF7BAFF59
:100C400043F2B851204621F057FD204610BD000068
:100C500070B50446FFF7D2FEFF230025264684F830
:100C60002D300123A56284F824300E4B84F82C50DB
:100C7000256346F8343B3046FFF7F8FE0A4B2A4618
:100C80002946636330462566A4F86450C4E91A55C2
:100C9000C4E91C55FFF7CAFE204631460AF066FD3E
:100CA000204670BD503B0208A056020810B40367EE
:100CB000019B5DF8044B43670368C0E91A12D3F83F
:100CC0008C3018472DE9F04F0446A3B0002512F0F0
:100CD000A9F9A146DF4BE5630DF1880849F8403BCF
:100CE0004846FFF7C3FE04F16C074FF6FF7304F1AB
:100CF000980A3846261D28F8083D41460DF000F9AF
:100D00005046FFF7EFFC04F5BA7318460393FFF75C
:100D1000C1FE04F5DE7318460493FFF7BBFE04F52D
:100D2000017318460593FFF7B5FE04F513731846D3
:100D30000693FFF7AFFE04F5257318460793FFF7F8
:100D4000A9FE04F5377318461193FFF781FF04F5E8
:100D5000557318461293FFF77BFF04F5737318461B
:100D60000893FFF775FF04F2444318460993FFF711
:100D70006FFF04F2BC4318460A93FFF769FF04F2C1
:100D8000345318460B93FFF763FF04F2AC53184635
:100D90000C93FFF75DFF04F2246318460D93FFF7F1
:100DA00057FF04F29C6318460E93FFF751FF04F2BD
:100DB000147318460F93FFF74BFF04F28C73184619
:100DC0001093FFF745FF04F6040318461393FFF74B
:100DD00069FC04F6381318461493FFF741FC04F538
:100DE0001C6318461593FFF73BFC04F6482318468E
:100DF0001693FFF757FC04F67C3318461793FFF75A
:100E00002FFC04F6044318461893FFF74BFC04F636
:100E1000385318461993FFF723FC04F55C63184612
:100E20001A93FFF73FFC04F6F46318461B93FFF791
:100E300039FC43F2A853884A04F5815004EB030BB4
:100E40004FF41651E25043F2B053844A0830CBF8C5
:100E50000440E25043F2B453E5500EF08BFF4FF4E0
:100E6000F0732A462946009348464FF42073FFF753
:100E7000EAFD4FF07F4349463046A3660AF076FC10
:100E80004FF0030341463846ADF880300DF08EFF39
:100E90004FF4F0732A462946384600934FF42073E6
:100EA000FFF7D1FD29463846DFF8BC910CF0E3FF8F
:100EB000394630461CAF0AF059FC86225046502174
:100EC000FFF7B4FD514630464FF0FF3A0AF04EFCB2
:100ED0000E220398F421FFF7A9FDC4F8A4A10399F9
:100EE0003846A4F8A8510DF00FFB04F5D87397E825
:100EF000070083E80700072341460398ADF88430D4
:100F0000CDF880900DF09AFD039930460AF02EFC42
:100F10005222049840F20721FFF788FDC4F8ECA1A3
:100F200004993846A4F8F0510DF0EEFA04F5FC737C
:100F300097E8070083E80700062341460498ADF8C8
:100F40008430CDF880900DF079FD049930460AF098
:100F50000DFC522205981B21FFF768FDC4F834A24E
:100F600005993846A4F838520DF0CEFA04F51073FE
:100F700097E8070083E807004FF00503414605980E
:100F8000ADF88430CDF880900DF058FD05993046CD
:100F90000AF0ECFB4422069840F21311FFF746FDDD
:100FA000C4F87CA206993846A4F880520DF0ACFA39
:100FB00004F5227397E8070083E8070004234146FD
:100FC0000698ADF88430CDF880900DF037FD069985
:100FD00030460AF0CBFB4422079840F21311FFF78A
:100FE00025FDC4F8C4A207993846A4F8C8524FF0AA
:100FF000440A0DF089FA04F5347397E8070083E892
:1010000007004FF0030241460798ADF88420CDF861
:1010100080900DF013FD079930460AF0A7FBCDF83C
:1010200000A02A46294604F544706023FFF70BFD13
:101030004FF005030A4FDFF83480DFF8349039466B
:10104000A4F840334246074B119800934B46FFF7F4
:101050002DFE0FE0043C0208EC3B0208ED0A0008FC
:10106000996600FF996633FF403B0208CC9900FF68
:10107000663300FFCDF800A060230E2211984FF4D4
:10108000FD71C4F80CB3FFF7DEFC119930460AF08D
:101090006DFBCDF800A02A46294604F56270602356
:1010A000FFF7D1FC4FF00502D94B3946A4F8B8231D
:1010B000424600934B461298FFF7F8FDCDF800A08A
:1010C00060234FF06A0A0E221298C4F884B33221CA
:1010D000FFF7B9FC129930460AF048FB2A46294628
:1010E00004F58060CDF800A09C23FFF7ACFCC84B52
:1010F0004246394600934B460898A4F83054FFF70F
:10110000D5FD29460898FFF7EBFC9C234FF4B372FA
:101110000898C4F8FCB34FF4CA71CDF800A0FFF7EB
:1011200092FC089930460AF021FB2A46294604F52C
:101130008F60CDF800A09C23FFF785FCB44B42469E
:10114000394600934B460998A4F8A854FFF7AEFD22
:1011500029460998FFF7C4FC9C234FF4B372099801
:10116000C4F874B4F221CDF800A0FFF76CFC099923
:1011700030460AF0FBFA2A46294604F59E60CDF86F
:1011800000A09C23FFF75FFCA14B42463946009329
:101190004B460A98A4F82055FFF788FD29460A987F
:1011A000FFF79EFC9C234FF4B3720A98C4F8ECB48A
:1011B0005021CDF800A0FFF746FC0A9930460AF00E
:1011C000D5FA2A46294604F5AD60CDF800A09C2347
:1011D000FFF739FC8E4B4246394600934B460B983D
:1011E000A4F89855FFF762FD29460B98FFF778FCA5
:1011F0009C23F6220B98C4F864B54FF4CA71CDF85D
:1012000000A0FFF720FC0B9930460AF0AFFA2A46FF
:10121000294604F5BC60CDF800A09C23FFF713FC21
:101220007B4B4246394600934B460C98A4F8105627
:10123000FFF73CFD29460C98FFF752FC9C23F62251
:101240000C98C4F8DCB5F121CDF800A0FFF7FBFB4A
:101250000C9930460AF08AFA2A46294604F5CB60F2
:10126000CDF800A09C23FFF7EEFB694B42463946C0
:1012700000934B460D98A4F88856FFF717FD2946B2
:101280000D98FFF72DFC9C23F5220D98C4F854B659
:101290005021CDF800A0FFF7D6FB0D9930460AF09B
:1012A00065FA2A46294604F5DA60CDF800A09C23A9
:1012B000FFF7C9FB564B4246394600934B460E9802
:1012C000A4F80057FFF7F2FC29460E98FFF708FC38
:1012D0009C2386220E98C4F8CCB64FF4CA71CDF880
:1012E00000A0FFF7B0FB0E9930460AF03FFA2A46FD
:1012F000294604F5E960CDF800A09C23FFF7A3FB85
:10130000434B4246394600934B460F98A4F8785712
:10131000FFF7CCFC29460F98FFF7E2FB9C238622BF
:101320000F98C4F844B7F121CDF800A0FFF78BFB6C
:101330000F9930460AF01AFA2A46294604F5F86051
:10134000CDF800A09C23FFF77EFB314B4246394687
:1013500000934B461098A4F8F057FFF7A7FC2946D6
:101360001098FFF7BDFB9C2386221098C4F8BCB7E9
:101370005021CDF800A0FFF766FB109930460AF027
:10138000F5F940F2911213986FF09B01FFF74EFBB5
:10139000139930460AF0EAF940F25F1214984FF4BC
:1013A0002071FFF743FB149930460AF0DFF9F5226C
:1013B00015984FF42071FFF739FB159930460AF064
:1013C000D5F94FF4927216986FF09B01FFF72EFB40
:1013D000169930460AF0CAF98B2217984FF42071FB
:1013E000FFF724FB179930460AF0C0F9BA22189883
:1013F0006FF09B01FFF71AFB189930460AF0B6F917
:10140000212219984FF42071FFF710FB199901E080
:10141000996633FF30460AF0A9F950221A986FF006
:101420009B01FFF703FB1A9930460AF09FF96FF012
:1014300019021B986FF09B01FFF7F8FA30461B99D1
:101440000AF094F9204623B0BDE8F08F00207047E1
:10145000B1F90430838001207047704770477047AE
:1014600010B504464FF49A7121F046F9204610BD9C
:1014700070B50368044615469B6B98472368294658
:101480002046DB6BBDE8704018470000002370B5B4
:1014900083800646104B114D03602A6892F858105D
:1014A00009B1D06C00B990680368DB6A98472B6873
:1014B000B0FA80F4D86C640928B10368DB6A9847F5
:1014C000002808BF01242CB9054B2C21054A0648E9
:1014D00021F01EF9304670BD603C02087CE100241A
:1014E000783C0208C83D0208D63C02082DE9F84FB6
:1014F000012304460025064680F8253004F19C0AA5
:101500004D4B04F1B007DFF8388104F59079858000
:10151000C58008F1240B058145818581C58105823F
:101520004582C5610584458480F824508562C0E900
:10153000055546F82C3B30460CF00CFA5046FFF7A8
:10154000A5FFC4F8A850C4F89C803846C4F8A4B0DD
:101550000CF000FA4846FFF799FF384B2946304611
:10156000A360C4F82C51C4F82081C4F828B1FFF757
:1015700054F829463046FFF752F86A229C2130463B
:10158000FFF776FF4FF0FF332A462946C4F8A8300C
:101590003046A4F8AC30C4F854A00CF0F1FA4FF483
:1015A00054624FF49C5130460CF0F5FAA36EB3F53B
:1015B000A07F05D04FF4A0733046A3660CF0EAF983
:1015C0000025012130460CF0F1FA314620460AF0A0
:1015D000CDF86A229C213846C4F8B450FFF748FF82
:1015E0004FF0FF332A464FF49C51C4F82C31384653
:1015F000A4F83031C4F8D8900CF0C2FA4FF4546219
:10160000294638460CF0C7FAD4F8EC30B3F5A07F81
:1016100006D04FF4A0733846C4F8EC300CF0BAF999
:10162000384601210CF0C2FA204639460AF09EF8ED
:101630002046BDE8F88F00BF3C3D02089C006A00D0
:10164000105202087047704710B50446882121F0F7
:1016500053F8204610BD0000F8B5012304460025CC
:10166000064680F8253004F17407284B8580C58034
:10167000058145818581C58105824582C5610584D5
:10168000458480F824508562C0E9055546F82C3B16
:1016900030460BF0ADFA3846FFF7F8FE1C4B2946F2
:1016A000304663672433C4F88050E367194BA36066
:1016B000FEF7B3FF29463046FEF7B1FF30469C21C6
:1016C000FEF7AFFF30466A21FEF7ADFF4FF41C6214
:1016D0004FF4D46330466566B421C4E916234FF451
:1016E000C8632366A023E3664FF43453A3660BF06C
:1016F00097FA4FF0FF3320466765C4F880303146D3
:10170000A4F884300AF032F82046F8BD0C3E0208F6
:10171000105202089C006A007047704710B50446DA
:10172000DC2120F0E9FF204610BD000001232DE957
:10173000F74F0446002502AE07464FF6FF7B80F8C0
:1017400025304F4B04F1580A26F804BD04F18409F2
:1017500085803146C58004F1B008058145818581C9
:10176000C58105824582C5610584458480F8245081
:101770008562C0E9055547F82C3B38460CF0C0FBA4
:1017800031465046ADF804B00CF0BAFB314648463D
:10179000ADF804B00CF0B4FB31464046ADF804B0EF
:1017A0000CF0AEFB374B4FF0040B3146A3603846CC
:1017B000ADF804B00DF0FAFA29463846DA22FFF700
:1017C00035F9062238464FF4F071FFF751FE2946ED
:1017D00038460CF050FB3946204609F0C7FF314629
:1017E0005046ADF804B00DF0E1FA2A4650469C216F
:1017F000FFF71CF94FF4A57250460621FFF738FE9B
:10180000294650460CF037FB5146204609F0AEFF02
:1018100031464846ADF804B00DF0C8FA2A464846AD
:101820004FF49F71FFF702F94FF4A5724846062165
:10183000FFF71EFE294648460CF01DFB4946204690
:1018400009F094FF31464046ADF804B00DF0AEFA11
:10185000294640466A22FFF7E9F8062240464FF43F
:10186000F071FFF705FE294640460CF004FB2046C8
:10187000414609F07BFF204603B0BDE8F08F00BF72
:10188000A03E0208E0014A0170477047704730B43B
:10189000C568034644686A10ED079B6804EB0200C4
:1018A00048BFA25830BC48BFD358184743682BB133
:1018B00083682BB9C06800F0010070471846704774
:1018C0000120704710B50446102120F015FF204676
:1018D00010BD10B504464FF4C07120F00DFF204636
:1018E00010BD38B500F1980304460D46994203D166
:1018F0000FF060FF00F0B8FBE034A54205D10FF017
:1019000059FFBDE8384000F0CFBB38BDF8B51A4BE1
:101910000646018F1B888B4229D9184B1B682BB9AF
:10192000174B6C21174A184820F0F2FE13F81120CB
:10193000164B1B6853F82250154B186801F02CF910
:101940002B68074628469B6B98472B680446394608
:101950009B6C2846984714FB00F42B683946A4B2C8
:1019600028465B6A98472044A6F84600F8BD002345
:10197000A0F84630FAE700BFD8E10024D4E1002403
:10198000443F0208FC3F0208863F0208DCE10024D5
:10199000E0E100242DE9F04F04468BB0002511F062
:1019A00041FB26467D4BE563294646F8403B26230E
:1019B000304604F16C091A46009320F01EFF3046B1
:1019C000FFF71CF84FF0FF08009B4FF6FF7A744AB0
:1019D000294684F86680484622641A46A5660AAFFE
:1019E000019304F1980BADF820A020F006FF4846C3
:1019F000FFF704F86B4A84F894804846E26604F5E1
:101A0000947837F8082DA4F8922039460DF0CEF9D5
:101A100058460DF003FB04F1E003184600930DF067
:101A2000FDFA019B294640461A4620F0E6FE404654
:101A3000FEF7E4FF5C4B2A46A4F854A1C4F8283111
:101A400029465A4B3046C4F85851C4F850314FF427
:101A50007F0384F86051C4F85C31554B84F86151C0
:101A6000C4F87031534BA4F86451C4F87831A4F829
:101A70006651A4F868A1A4F86AA104F1040AC4F8A4
:101A80006C51C4F87C51C4F87441FEF7CFFF304666
:101A90004FF42071FEF7C5FD30464FF4F071FEF7AC
:101AA000C2FD4FF07F4231465046A266022609F041
:101AB0005DFE2A4629464846FEF7B8FF39464846A5
:101AC000ADF820500DF072F9494650464FF0FF39FD
:101AD00009F04CFE58468E228721FEF7A7FF3A46B2
:101AE00007A95846ADF81C60ADF820600DF003F86A
:101AF0005846A4F8D060FFF709FF04F5B8735946BB
:101B00005046C4F8C0300193C4E9359909F02EFE5F
:101B10000098E8228721FEF789FF3A4607A9009836
:101B2000ADF81C60ADF820600CF0E5FFA4F818518A
:101B30000098FFF7EBFE019B00995046C4F808316E
:101B4000C4F81C91C4F8209109F010FE40461722F9
:101B5000F421FEF76BFF4FF07F42A4F85C5102AD19
:101B6000C4F85821414628460CF0CEFC04F5B27367
:101B700095E8070083E807000C4B39464046089378
:101B80000123ADF824300CF059FF5046414609F0CE
:101B9000EDFD20460BB0BDE8F08F00BFD03F02083E
:101BA0003856020808570208A8550208403B0208A8
:101BB000343F0208E31800087047704710B5044628
:101BC000982120F099FD204610BD00002DE9F34733
:101BD0000446002511F026FA3F4B2646E5633F4AAE
:101BE0004FF0010946F8403B04F16C083C4B02AF52
:101BF0004046A4F844502364FF23A4F8465004F15F
:101C0000040A84F866304FF6FF73A4F8485027F8AA
:101C1000043D3946A4F84A50A4F84C50A4F84E505C
:101C2000A4F85050A4F85250E565A4F86050A4F808
:101C3000625084F8645084F86590A566A4F87050EA
:101C4000A4F87250A4F87450A4F87650A4F8785010
:101C5000A4F87A50A4F87C50A4F87E50C4F88850B8
:101C6000C4E91555C4E92055A4F88C50E266A4F8DF
:101C7000923084F89430A4F88E5084F8905084F810
:101C800091900DF093F829463046FEF7C6FC2946A0
:101C90003046FEF7C4FC30464FF42071FEF7C1FC1D
:101CA00030464FF4F071FEF7BEFC4FF07F433146F3
:101CB0005046A36609F05AFD394640462567ADF8FF
:101CC00004900DF073F85046414609F04FFD204650
:101CD00002B0BDE8F08700BF404002080857020884
:101CE0003856020870477047704741607047704728
:101CF0000123037270477047704770477047704701
:101D000070477047704710B4C4680346416862105A
:101D1000E4079B6801EB020048BF8A585DF8044B5A
:101D200048BFD358184743682BB183682BB9C068A4
:101D300000F001007047184670470120704710B549
:101D40000446142120F0D8FC204610BD10B50446EE
:101D50000C2120F0D1FC204610BD10B504464FF4F4
:101D6000AE7120F0C9FC204610BD10B5044610210C
:101D700020F0C2FC204610BD10B50446402120F0E2
:101D8000BBFC204610BD10B50446402120F0B4FC39
:101D9000204610BD10B50FF00DFD0368BDE81040E2
:101DA000DB6B184770B5B2B00446C0221C4902A8CC
:101DB00020F018FD237C2F2B03D90123237232B08E
:101DC00070BD33B9174B1B781BB10FF0F3FC0FF04C
:101DD000F7FC0325013DF2D0237C302BEFD832AA4B
:101DE0006089A18902EB8303ADF80400ADF8061009
:101DF00053F8C06CE38996FBF3F203FB126312FB0A
:101E000001F2694613FB00F36068ADF80220ADF8FB
:101E1000003003681B699847237C01332374D9E79A
:101E2000E43602087AE1002470B5044690F83900DF
:101E3000013094F83830C0B2984284F8390005D99E
:101E400001232372002384F8393070BDB4F93A209D
:101E5000002111F099FA83B213F0010206D04FF677
:101E6000FF710028D8BF0A46981800B2638AC01ACA
:101E7000A08760680368DB69984705464DB1E9882B
:101E80002846A38F19442B6809B25B6B9847AD694C
:101E9000F4E760680368BDE870405B69184770B597
:101EA000044690F83900013094F83830C0B29842B6
:101EB00084F8390005D901232372002384F83930CE
:101EC00070BDB4F93A20002111F05EFA83B213F02C
:101ED000010206D04FF6FF710028D8BF0A469818B5
:101EE00000B2638AC01AA08760680368DB699847FC
:101EF00005464DB1E9882846A38F19442B6809B2DD
:101F00005B6B9847AD69F4E760680368BDE87040B3
:101F10005B691847054B1B783BB143682BB11A68C6
:101F200000F10C011846526E104770477BE1002407
:101F3000054B1B783BB143682BB11A6800F10C01CB
:101F40001846526E104770477BE1002470B5037A43
:101F50000546BBB940680368DB69984704464CB145
:101F6000E18820466B8FC91A236809B25B6B9847DA
:101F7000A469F4E7686805F10C010368BDE87040E6
:101F80001B6E184770BD70B5037A0546BBB9406833
:101F90000368DB69984704464CB1E18820466B8FA3
:101FA000C91A236809B25B6B9847A469F4E76868AB
:101FB00005F10C010368BDE870401B6E184770BD49
:101FC000044B1B6893F858200AB1D86C00B9986884
:101FD000704700BF7CE10024F8B5044617460E4662
:101FE0000FF0D6FC144B0025C4F854711C60294630
:101FF000124BC4F83C512360114BC4F84051C4F853
:102000004431104BC4F848511868C4F84C51C4F816
:102010005051C4F8586103689B689847284600F0FF
:1020200081FDFFF7CDFF18F0C2FBFFF7C9FF18F0E5
:1020300039FC2046F8BD00BFD0E100248C400208E6
:10204000744002087CE10024064BC0F84801C0F847
:102050004C310023C0F8503100F5A273C0F8403174
:10206000704700BF0D220008064BC0F84801C0F8B9
:102070004C310023C0F8503100F5A273C0F8403154
:10208000704700BFCD230008064BC0F84801C0F8D8
:102090004C310023C0F8503100F5A273C0F8403134
:1020A000704700BF89250008064BC0F84801C0F8FA
:1020B0004C310023C0F8503100F5A273C0F8403114
:1020C000704700BF2D2700082DE9F04707469068AC
:1020D0009946884603681546DDF820A01B6A984794
:1020E00043F2B753984205D8424BA321424A434892
:1020F00020F00EFB686803681B6A98470F2803D816
:102100003F4BA4213C4AF2E7E86803681B6A984702
:102110000B2803D83B4BA521374AE8E70FF04AFBD1
:1021200004300FF094FBD9F8000010B10368DB68AD
:102130009847D9F8000010B103681B6898473868C1
:1021400010B103685B699847D8F8000010B10368C4
:102150005B689847386810B103681B689847D8F8DF
:10216000000010B103689B689847E8680021036885
:102170005B6A9847044620B1002343600372224BF8
:102180000360A868002103685B6A9847064608B1A7
:10219000FEF70EFA6868002103685B6A98470546F7
:1021A00010B13146FEF7FAF8C9F80040C8F80050FF
:1021B0003E60E5B12B1DCAF800303046C5F808A0D6
:1021C0003368F563DB6898472B6828461B68984797
:1021D0002146304611F0D2F8236820461B69984703
:1021E000236820465B6998472846BDE8F0872B4660
:1021F000E1E700BF68410208A5450208F641020870
:1022000037420208DA420208E040020807B5D0F877
:10221000583100F59E710093044BD0F854210448C6
:10222000FFF752FF03B05DF804FB00BFC4E10024D8
:10223000C0E100242DE9F84F07469068994688468A
:10224000036815461B6A984743F2B753984205D86E
:10225000554BA321554A564820F05AFA686803683E
:102260001B6A98470F2803D8524BA4214F4AF2E724
:10227000E86803681B6A98473F2803D84E4BA5219E
:102280004A4AE8E70FF096FA04300FF0E0FAD9F87E
:10229000000010B10368DB689847D9F8000010B15E
:1022A00003681B689847386810B103685B699847F2
:1022B000D8F8000010B103685B689847386810B11F
:1022C00003681B689847D8F8000010B103689B6842
:1022D0009847E868002103685B6A98470446B0B1F4
:1022E0004FF0000B354B0646C0F804B080F808B03C
:1022F00046F80C3B30460BF099FD1423A4F83CB093
:1023000023872F4B1B78002B37D101232372A8681A
:10231000002103685B6A9847064608B1FEF748F952
:102320006868002103685B6A9847054610B131462A
:10233000FEF734F8C9F80040C8F800503E60002DA0
:102340002FD02B1D0A9A30461360AA603368F563BC
:10235000DB6898472B6828461B689847214630461B
:1023600011F00CF8236820461B6998472368204623
:102370005B6998472846BDE8F88F124B3046DFF876
:1023800048A0B3F90010BAF90020C4F810B0FFF764
:102390006FF830460BF0C5FCBAF800305B4263873B
:1023A000B5E72B46CEE700BF68410208AD460208FC
:1023B000F641020837420208DA42020828410208C0
:1023C0007BE1002470E1002472E1002407B5D0F81D
:1023D000583100F59E710093044BD0F85421044805
:1023E000FFF728FF03B05DF804FB00BFC4E1002441
:1023F000C0E100242DE9F84F0746906899468846C9
:10240000036815461B6A9847B0F5C07F05D2554B47
:10241000A321554A554820F07BF9686803681B6A78
:1024200098470F2803D8524BA4214F4AF2E7E86897
:1024300003681B6A98473F2803D84E4BA5214A4A98
:10244000E8E70FF0B7F904300FF001FAD9F800000F
:1024500010B10368DB689847D9F8000010B1036831
:102460001B689847386810B103685B699847D8F8CB
:10247000000010B103685B689847386810B10368C2
:102480001B689847D8F8000010B103689B6898470C
:10249000E868002103685B6A98470446B0B14FF0D2
:1024A000000B354B0646C0F804B080F808B046F87B
:1024B0000C3B30460BF0BAFC1423A4F83CB0238745
:1024C0002E4B1B78002B37D101232372A8680021E3
:1024D00003685B6A9847064608B1FEF727F9686803
:1024E000002103685B6A9847054610B13146FEF744
:1024F00037F9C9F80040C8F800503E60002D2ED0D2
:102500002B1D0A9A30461360AA603368F563DB68B6
:1025100098472B6828461B6898472146304610F09C
:102520002DFF236820461B699847236820465B6976
:1025300098472846BDE8F88F114B3046DFF844A095
:10254000B3F90010BAF90020C4F810B0FEF790FFFC
:1025500030460BF0E6FBBAF800306387B6E72B464F
:10256000CFE700BF6841020884440208F641020830
:1025700037420208DA4202084C4102087BE100249B
:1025800070E1002472E1002407B5D0F8583100F55D
:102590009E710093044BD0F854210448FFF72AFFA2
:1025A00003B05DF804FB00BFC4E10024C0E10024D7
:1025B0002DE9F0470646906898460F460368154691
:1025C000DDF820901B6A9847972805D84F4BA32128
:1025D0004F4A504820F09CF8686803681B6A984787
:1025E0000F2803D84C4BA421494AF2E7E868036856
:1025F0001B6A9847132803D8484BA521444AE8E7AB
:102600000FF0D8F804300FF022F9D8F8000010B11C
:102610000368DB689847D8F8000010B103681B68AE
:102620009847306810B103685B699847386810B103
:1026300003685B689847306810B103681B68984767
:10264000386810B103689B689847E8680021036800
:102650005B6A98470446A8B10023314A436003727D
:102660000374304B02601A882F4B1B889A4241D961
:1026700007320533D2104281062293FBF2F38381A5
:102680000823C381A868002103685B6A98478246D3
:1026900008B1FEF7A5F86868002103685B6A9847EF
:1026A000054610B15146FEF777F8C8F800403D6086
:1026B000C6F800A045B32B1DC9F800305046C5F838
:1026C0000890DAF80030CAF83C50DB6898472B686D
:1026D00028461B6898472146504610F04FFE236855
:1026E00020461B699847236820465B69984728461F
:1026F000BDE8F087062105320733C181DB1092FB6C
:10270000F1F283814281BDE72B46D5E7684102089B
:102710007D430208F641020837420208DA42020805
:102720000441020870E1002472E1002407B5D0F8EA
:10273000583100F59E710093044BD0F854210448A1
:10274000FFF736FF03B05DF804FB00BFC4E10024CF
:10275000C0E1002413B5002249B102AB019203F895
:10276000052D0268946801AAA04702B010BD084672
:10277000FBE7C0897047008A7047C088704780882F
:102780007047807A00F07F007047807AC0097047F8
:10279000406A7047806A704770478B88C069DB0A5F
:1027A0000A6850F823001044704710B5C2B1137B7B
:1027B000B3B1547BD27A240204F4E0641443026A75
:1027C00098B202EB840213888B4202D192F9020084
:1027D00010BD05D80138043280B20028F3D1F7E7E4
:1027E0000020F5E710B504462C211FF085FF204698
:1027F00010BD000030B58BB00446BDF860500895A0
:10280000BDF85C5007959DF8505006959DF84C50CA
:1028100005959DF8485004959DF8445003959DF802
:10282000405002959DF83C500195BDF838500095F8
:1028300010F00EF9064B20462360159BE361169BB2
:102840002362199B63621A9BA3620BB030BD00BF69
:10285000D847020830B5174D8FB02C78BFF35B8F87
:1028600014F0010422D128461FF01DFFF0B13F23D0
:10287000012211490993114B0A940893104B0594B6
:102880001048CDE906430423CDE903320A23CDE9FC
:102890000B440093CDE90144FFF7ACFF28461FF03D
:1028A0000EFF094A094907481FF021FF05480FB0EC
:1028B00030BD00BFB401002468070090485D0208E5
:1028C000445D0208B8010024000000249927000894
:1028D00030B5174D8FB02C78BFF35B8F14F0010427
:1028E00022D128461FF0DFFEF0B13F23012211491B
:1028F0000993114B0A940893104B05941048CDE9A5
:1029000006430423CDE903322823CDE90B44009389
:10291000CDE90144FFF76EFF28461FF0D0FE094ABB
:10292000094907481FF0E3FE05480FB030BD00BF5E
:10293000E401002490070090405D0208505D020809
:10294000E8010024000000249927000830B5184D44
:102950008FB02C78BFF35B8F14F0010424D128468C
:102960001FF0A1FE00B33F23012212490993124B2D
:102970000A940893114B05941148CDE906430423AA
:10298000CDE90332142300931823CDE90B441A46F2
:10299000CDE90144FFF72EFF28461FF090FE094ABB
:1029A000094907481FF0A3FE05480FB030BD00BF1E
:1029B00014020024A00700904C5D0208545D020838
:1029C000180200240000002499270008704710B561
:1029D000044604211FF090FE204610BD012908B5D1
:1029E00008D003D3022909D0002002E000F012F839
:1029F000006808BD00F00EF84068FAE700F00AF839
:102A00008068F6E700487047444802080520704790
:102A100008207047004870474402002410B5054C58
:102A2000FFF794FF2060FFF753FF6060FFF712FF8E
:102A3000A06010BD440200240020704700207047B1
:102A40000EB403B503AB002153F8042B01930FF030
:102A500027FE02B05DF804EB03B070470CB407B575
:102A600004AB53F8042B01930FF01AFE03B05DF88A
:102A700004EB02B07047000010B5436C044673B31A
:102A8000038F2BB9184BC521184A19481FF040FE77
:102A9000C38E00EB43035B8C0BB311F0D3F9238F90
:102AA000012B03D8134BCB21134AEEE7E28E40F6FD
:102AB0003F10531C9BB2092B194688BFA3F10A0192
:102AC00004EB4101498C814209D10A2B04EB4202FB
:102AD00028BF0023508C04EB4303588451842046C4
:102AE000BDE8104011F0B0B8A8480208D549020866
:102AF000B1480208F54802080349020811F06DB810
:102B000010B586B002AC84E806001A460AAB21462E
:102B100005930193099B0093089B0EF0CDF906B035
:102B200010BD000038B5D8B9114B12481B681249C6
:102B3000BBB11A689C681A441C4402605A681A4463
:102B40000A606CB10D4B00221A80FFF763FF054647
:102B5000FFF75EFF0A4B1C600A4B1D600A4B188092
:102B600038BD0A4B03600A4B0B600A4B1C68E8E750
:102B70005002002454020024580200245C02002465
:102B8000D4E10024DCE10024D8E1002424090090F1
:102B9000F008009020090090044B1B6853F82100B6
:102BA000034B1B6803EB4000704700BF5802002432
:102BB00054020024012380F8781080F8793070479F
:102BC0000020704741640031024B18BF0121197089
:102BD000704700BF7BE1002400207047836B0BB17E
:102BE0000846184770474FF6FF7070474068036803
:102BF0009B69184780F82610704790F826007047A8
:102C000010B50022B1F90840B1F90A1002804280E3
:102C10008480C18010BD0022028042808280C280F8
:102C200070470000034B902283F85A2383F85823FF
:102C3000704700BF00E100E0094A0A49D3680A482A
:102C4000C3F30A03013B9BB20B801169C1F30A0174
:102C5000013901801364536B43F0010353637047E0
:102C600000100050600200245E020024014B986AAC
:102C7000704700BF84100050024B0122996243F854
:102C8000602C70478410005010B531B90A4B40F2E7
:102C9000D2210A4A0A481FF03BFDC0E90F12003258
:102CA000084918BF01220A7019460268BDE81040A1
:102CB000D2F88C20104700BFE34A02089D4B02085F
:102CC0001B4B02087AE1002408B5094B1B888B4294
:102CD00003D8084B1B88934205D9074B9E21074A0E
:102CE00007481FF015FD074B1980074B1A8008BDD8
:102CF00070E1002472E10024804A02085A4B020865
:102D00001B4B020876E1002478E1002470B50446EC
:102D100009F015F823685D6E0EF04CFD0146204663
:102D2000A84723682046054AD3F888504FF0504101
:102D30000023AC46BDE87040604700BF006009D08A
:102D400008F0E4BF08F0EEBF08F0AABF09F00BB925
:102D500010B5044609F032FD23682046D3F8AC30A4
:102D6000BDE81040184790F87A301BB140680368FE
:102D70001B6818471846704710B590F8784090F8CF
:102D800034100C4B8C421A7809D03AB90A490B4AD4
:102D900008881488108001220C801A7010BD002A47
:102DA000FCD0064A0449148808880C801080002250
:102DB000F3E700BF74E1002472E1002470E1002415
:102DC000134A0023F0B5C2F88430BFF34F8FD2F816
:102DD000803043F6E076C3F3C904C3F34E33A5074E
:102DE0005B0103EA060C284621464CEA000701393C
:102DF00000F14040C2F874724F1CF6D1203B13F131
:102E0000200FEED1BFF34F8FBFF36F8FF0BD00BF28
:102E100000ED00E0034B5B69DB0301D5FFF7D0BF9A
:102E2000704700BF00ED00E0034B5B69DB0301D599
:102E3000FFF7C6BF704700BF00ED00E0034B4FF047
:102E400080629A604FF080729A60704700E100E003
:102E5000084B4FF08062C3F88820BFF34F8FBFF359
:102E60006F8F4FF08072C3F88820BFF34F8FBFF38E
:102E70006F8F704700E100E010B5144C236823B356
:102E8000134B144A1B6C11888B4213D1124B1988B7
:102E900004F00CF9226892F86A30013382F86A3043
:102EA00000F03AFA206809F089FC0020BDE81040E3
:102EB00000F08CBC04F0FAF8206803681B6A98479D
:102EC0000020BDE8104000F0AFBC10BD7CE1002444
:102ED00000100050600200245E02002403685B6C56
:102EE00018470120704703689B6A18470F4B82B050
:102EF000D3F8D42042F01002C3F8D420D3F8D42061
:102F000002F010020192019ADA6F42F01002DA67C1
:102F1000DA6F22F01002DA67054B064A1A62064B96
:102F20004FF080629A6002B0704700BF00440258C0
:102F3000B0EB0024452F000800E100E040F2EF3044
:102F400070470000024B1B68586803685B691847AC
:102F50007CE1002408B50B280BD8DFE800F012064E
:102F6000100A0A0A0A0808080808012008BD0520F6
:102F7000FCE7054B6521054A05481FF0C9FB002009
:102F8000F4E70220F2E700BF054C0208D64C020825
:102F9000204C020808B50A2809D8DFE800F010061E
:102FA0000E080808080606060600012008BD054BA5
:102FB0008621054A05481FF0ABFB0020F6E70220FA
:102FC000F4E700BF054C0208204D0208204C02081F
:102FD000F8B50C46487FFFF7BDFF0546A77F38468A
:102FE000FFF7B8FF06463846FFF7D4FFA38A628B87
:102FF000D21A494B1A64A18A628B521A9A61A18A29
:10300000228B521A1A615863A18AE28A42EA01426B
:103010005A642269DA636268DA602268402A70D0F2
:1030200010D8042A3BD0202A6BD0237F45EA0365C1
:10303000394B45F40035DD61617FA27F914267D055
:10304000364A4BE0B2F5807F1BD0B2F5007F23D02B
:10305000802AEAD1A068021DDA62227F45EA026571
:1030600045F40035DD615E6222695A610278EAB199
:10307000012A35D02A4B4FF488712A4A2A481FF07A
:1030800047FB217F294A42EA0162DA61E2681A625B
:103090005E6222695A6120E0217F254AF3E7227FA0
:1030A00045EA026545F40035DD61F1E7D9694288FA
:1030B000501E21F47F42012122F0100242EA002238
:1030C000DA61154BDA6942F02002DA61DA699206B8
:1030D000FCD410229A600029B2D0164A1A60F8BDBA
:1030E000DA69408822F47F42217F013822F0100201
:1030F000FF3942F0100218BF012142EA0022DA61D2
:10310000DFE7237F45EA0365034B45F40035CBE752
:1031100040F20122E2E700BF00100052010201006C
:10312000EB4B0208984C0208204C02080A000200EF
:10313000090002000102020010B5887F0C46FFF76B
:1031400029FF1C4B5863A18AE28A42EA01425A6471
:103150002269DA63628BA18A521A1A642268082AE9
:1031600016D1A18A628B521A9A61A18A628B521A75
:103170001A615862104A217F42EA0162DA61E2680C
:103180001A6222695A612269DA600C4A1A6010BD1B
:103190000022D8611A61E1680A0A4809C1F3C40132
:1031A00002F4784200F4FC6002430A439A63044A42
:1031B000ECE700BF0010005209000100010202000C
:1031C00001020300054B4FF080620360044BC3F81B
:1031D0008820BFF34F8FBFF36F8F7047504C0208AA
:1031E00000E100E010B50446FFF7ECFF4FF45A6130
:1031F00020461FF081FA204610BD000070B505463C
:103200000A4B0C3000262C46602268602E726E72CB
:1032100044F8203B214609F041FC05F55A63E6607D
:103220002434A342FBD1284670BD00BF504C020895
:10323000034B1A68D207FCD423229A60704700BF60
:103240000010005230B5104C2568ED07FCD4232542
:103250000904FF2BA56041F001014FF002056563F1
:103260006164E0630AD00949656241EA0363E3618E
:10327000074B22626061E060236030BDE561039B23
:10328000A363044BF8E700BF0010005209000100DF
:1032900001000200010003000121002208B50846D8
:1032A00006F0BFFA0A4B186028B90A4B28210A4ACF
:1032B0000A481FF02DFA00220421012006F052FBDB
:1032C000074B186018B9074B2C21034AF0E708BDDB
:1032D000680200246B4D02081F4E0208B44D02081C
:1032E00064020024DD4D0208024B4FF0FF311868E4
:1032F00006F0E2BA68020024014B186806F008BB29
:1033000068020024024B0021186806F0D5BA00BFFD
:1033100068020024FFF7F0BF0023034803491A4660
:10332000006806F05BBB00BF6402002404000024B8
:1033300013B50023074C01A91A46206806F080FB4C
:103340004FF0FF33002201A9206806F079FB02B09C
:1033500010BD00BF64020024704770477047012011
:1033600070474020704700EB81100830704700EB39
:103370008110083070470120704743F2B850704701
:1033800043F2B85303FB01000830704743F2B853CF
:1033900003FB010008307047012070471020704780
:1033A00000EB01100830704700EB01100830704747
:1033B0000846FEF749BE0000034B10B50446036003
:1033C00008F0C0F9204610BDC04E020810B50446F2
:1033D000FFF7F2FF482120461FF08EF9204610BD6E
:1033E000034B10B50446036008F0ACF9204610BD4D
:1033F0008C4E020810B50446FFF7F2FF4FF4575108
:1034000020461FF079F9204610BD0000034B10B58F
:103410000446036008F096F9204610BD584E020895
:1034200010B50446FFF7F2FF182120461FF064F99B
:10343000204610BD094B10B50446036000F55750F7
:103440002C30FFF7B9FF04F12C00FFF7C9FF04F19E
:103450001400FFF7DBFF204610BD00BFF44E02084A
:1034600010B50446FFF7E6FF43F2947120461FF0C3
:1034700043F9204610BD00002DE9F341FFF7C2FAE1
:1034800000240546FFF7C2FA234601462246284695
:10349000009410F0ABFF264B264A2046264D1A60BA
:1034A000FFF740FB254810F009FF2B78BFF35B8F37
:1034B000DB0737D428461FF0F6F8002832D0204C1E
:1034C000204B04F12C0804F11400236008F5575731
:1034D0006060C4F8088007F14C06E760266108F0D8
:1034E00033F9194B4046636108F02EF9174B384603
:1034F000E36208F029F9164B07F148003B60FDF73D
:103500007BF9224607F148013046FDF7A9F930461C
:10351000FEF79AFD28461FF0D2F80E4A0E492046C3
:103520001FF0E5F80D4802B0BDE8F04100F0DCB84E
:10353000E0E10024304800246C020024080000244C
:1035400070020024F44E0208584E02088C4E020805
:10355000C04E02080000002435340008A8470024AB
:1035600070470000014800F0D9B800BFA847002408
:1035700010B5044604211FF0BFF8204610BD10B559
:10358000044684211FF0B8F8204610BD10B504464B
:1035900088211FF0B1F8204610BD0000F8B53D4C61
:1035A0003D4D3E4B22463E4F28463E492B601FF084
:1035B0009EF83D4E3846FFF721FE22463B493846ED
:1035C0001FF095F8304615F0C3FA224638493046C8
:1035D0001FF08DF82246374937481FF088F83748E2
:1035E000002301223649C560038580F82A30C36272
:1035F000038680F8483080F8492080F84A3080F807
:103600004B30436580F858304366816680F86C30F3
:1036100080F86D3080F86E302A49C0E90176C0E943
:103620000433C0E90633C0E90833C0E90E33C0E90A
:103630001033C0E91333C0E9173380F86F3080F8D6
:103640007A2080F87B20204AC0F8803010604FF448
:10365000207280F870300A801C4943670A804FF45A
:10366000F0721B4980F878300A801A4980F8793066
:103670000A80194A80F834301370C0F88430174A31
:10368000174B02602246C3671649BDE8F8401FF099
:103690002EB800BF00000024043A00242450020881
:1036A000083A00245933000834480024C531000882
:1036B0005B330008CD29000808000024A847002437
:1036C0000100000170E100247CE1002476E1002487
:1036D00072E1002478E1002474E10024084F02081C
:1036E000685002085D33000838B5044600F000F960
:1036F000204604F17C05FFF709FB236806492046B4
:10370000D3F88C309847284600F064F901232561EE
:1037100084F8703038BD00BF00C012D008B503680F
:103720000446D3F88030984723689B6F204698471B
:10373000FFF7FEFD23681B6FF8E7FFF797BAFFF767
:103740009BBA0000F8B5FFF7FFFA134A0023C2F84E
:103750008430BFF34F8FD2F8803043F6E076C3F366
:10376000C904C3F34E33A5075B0103EA060C2846E0
:1037700021464CEA0007013900F14040C2F874725A
:103780004F1CF6D1203B13F1200FEED1BFF34F8F2A
:10379000BFF36F8FF8BD00BF00ED00E0FFF742BA46
:1037A000FFF74CBBFFF754BBFFF746BA08F072BAFD
:1037B00008B5054B01461B6800B10121184609F008
:1037C00017F8012008BD00BF7CE10024032823D89E
:1037D000DFE800F0020A131A104B08211A68B2FA47
:1037E00082F252090E4806E00C4B04215A68B2FAE4
:1037F00082F252090B4804F045B8084B02219A683E
:10380000B2FA82F25209F5E7044B4FF48071DA689C
:10381000B2FA82F25209E5E7704700BFB8480024C7
:103820000004025800080258032823D8DFE800F0FB
:10383000020A131A104B08211A68003218BF01221D
:103840000E4806E00C4B04215A68003218BF0122D2
:103850000B4804F017B8084B02219A68003218BFD1
:103860000122F5E7044B4FF48071DA68003218BF8B
:103870000122E5E7704700BFB84800240004025861
:103880000008025803280FD8DFE800F00205090BF2
:103890000821064801E00421054803F0F8BF022191
:1038A000FAE74FF48071F4E7704700BF0004025854
:1038B0000008025808B5032813D8DFE800F0020515
:1038C0000D0F0821084801E00421084803F0D4FF47
:1038D000431E5842584108BD0221F6E74FF480715B
:1038E000F0E70020F4E700BF000402580008025887
:1038F00070B50024074D0126E0B2FFF7DBFF28B1C9
:1039000055F82430012B18BF45F824600134052CEC
:10391000F2D170BDB848002430B54FF4F07385B0D3
:103920004FF4207201210B24CDE900230523CDE9BA
:1039300002136946002007F057F905460A2000F0F7
:10394000F3FE15F0FF0F07D0013CF2D1034B2E21FF
:10395000034A04481EF0DCFE05B030BDD84F020813
:1039600034500208F14F0208F0B585B00E46002031
:10397000154601A9124F07F0EDF9019C74B1029BA5
:10398000104A33601360039B0F4A2B60136000F0F2
:10399000C5FE38600124204605B0F0BD00F0BEFE33
:1039A0003B6878338342F6D9064B1A68002AF2DD69
:1039B000054B1B68002BEEDD32602B60EAE700BF91
:1039C000D0480024C8480024CC48002440687047F0
:1039D00041607047094A136843F080731360A2F591
:1039E0004E42074B4C3A11680B431360A2F57B62C1
:1039F000136843F001031360704700BFFCED00E063
:103A000055CEACC5521A02EB5302B2FBF3F070472D
:103A1000014B1868704700BF041000E0704710B5F4
:103A200004460C211EF068FE204610BD10B5036848
:103A300004461B6931B19847A26863689B1A184411
:103A4000606010BD9847A060FBE77047FEE7FEE7A7
:103A5000FEE7FEE770470000014804F039B800BFF8
:103A60004CEC0024014803F097BA00BF04EB00249B
:103A7000014803F057BF00BFB0EB002418491948B4
:103A800010B5D1F8883043F47003C1F88830164B74
:103A90001A6842F001021A6000221A611C68204074
:103AA00018609A61DA611A629A62DA621A635A637A
:103AB0009A63DA631A645A64186820F480201860E4
:103AC0001A660A4B1B681B0C1B04B3F1005F02D281
:103AD000074B01221A604FF000638B6010BD00BFDE
:103AE00000ED00E07FEDF6EA004402580010005CB3
:103AF0000881005108B5642005F087FEFBE700004F
:103B000070B59CB04C22002109A81EF076FE202240
:103B1000002101A81EF071FE022001F0DBFC002351
:103B20000093204BDA6A22F00102DA62DB6A03F0CA
:103B3000010300931C4B9A6942F440429A619A69CE
:103B400002F440420092009A9A699404FCD5012242
:103B50004FF48033052102240025082609A8169475
:103B60001B95CDE90923A023CDE914130423CDE946
:103B70001244CDE91734CDE9196501F093FD3F20DA
:103B800003234FF480622146CDE90103402301A8BD
:103B9000CDE90356CDE90533CDE9072302F0C6F898
:103BA0001CB070BD00040058004802580123DA4AD6
:103BB0002DE980481360A2F5783299B01360D74B95
:103BC0005A6912F4003211D1BFF34F8FBFF36F8FD8
:103BD000C3F85022BFF34F8FBFF36F8F5A6942F47F
:103BE00000325A61BFF34F8FBFF36F8FCB4A5369D7
:103BF00013F4803328D1C2F88430BFF34F8FD2F84A
:103C0000803043F6E076C3F3C904C3F34E33A5070F
:103C10005B0103EA060C2846214640EA0C070139FD
:103C200000F14040C2F860724F1CF6D1203B13F106
:103C3000200FEED1BFF34F8F536943F480335361AC
:103C4000BFF34F8FBFF36F8F102600F02DFD0021C3
:103C50000BA8324601251EF0D0FD002403F090FB96
:103C60004FF01052AE4B0BA84FF01C09ADF82C5082
:103C70004FF0020803274FF01A0A4FF0400BCDE92E
:103C80000C23A84B0E9303F09DFB4FF050430BA861
:103C90008DF834900C938DF82D508DF83740ADF899
:103CA0003A4003F08FFB18230BA88DF82D808DF878
:103CB000343040F201138DF83770ADF83A3003F02C
:103CC00081FB4FF010438DF834900BA84FF004099E
:103CD0000C938DF82D708DF83740ADF83A4003F015
:103CE00071FB0BA88DF82D908DF834A08DF83770EE
:103CF0008DF83A5003F066FB484603F051FBFFF79E
:103D0000FFFE142221460BA81EF077FD864B4FF4D0
:103D100084718648D3F8E02042F48072C3F8E02032
:103D2000D3F8E02002F480720092009AD3F8E020E9
:103D300042EA0802C3F8E020D3F8E02002EA0802D1
:103D40000192019AD3F8E02042F48062C3F8E020A7
:103D5000D3F8E02002F480620292029AD3F8E020C5
:103D600042F04002C3F8E020D3F8E02002F0400225
:103D70000392039AD3F8E0203243C3F8E020D3F84B
:103D8000E02032400492049AD3F8E02042F400721A
:103D9000C3F8E020D3F8E02002F400720592059AFF
:103DA000D3F8E02042EA0902C3F8E020D3F8E0208B
:103DB00002EA09020692069AD3F8E02042F0800255
:103DC000C3F8E020D3F8E02002F080020792079ABF
:103DD000D3F8E02042F00802C3F8E020D3F8E02056
:103DE00002F008020892089AD3F8E02042F020027C
:103DF000C3F8E020D3F8E02002F020020992099AEB
:103E0000D3F8E0202A43C3F8E0202246D3F8E0307C
:103E10002B400A930A9B03F035FD224606214448B5
:103E200003F030FD49462246424803F02BFD2A4666
:103E30004021404803F026FD4FF484730BA93B4812
:103E4000CDE90B35CDE90D4703F084FB06230BA923
:103E50003748CDE90B35CDE90D4703F07BFB0BA9C6
:103E60003448CDE90B95CDE90D4403F073FB0BA964
:103E70003048DFF8D090CDE90BB5CDE90D4803F01F
:103E800069FB2D482D4A848002600562C0E9054423
:103E900001F0E4FA342221460BA81EF0AEFC284AB9
:103EA0008F2140F20F3040F21F3CC9F81040A9F8B2
:103EB000344089F83640C9E900241D22C9E90528A3
:103EC0002222C9E9071240F20222C9E909024FF48D
:103ED00003724846C9E90BC2C9E9024402F0E0FF97
:103EE000FF204FF4806E4FF050434FF420714FF499
:103EF000F0720B941692ADF85C408DF85E40CDE9FF
:103F000010040520CDE91431CDE912E0CDE90C14FF
:103F1000CDE90E2818E000BF0861045100ED00E073
:103F2000120000030100010100440258000402587D
:103F30000008025800000258E0EA0024004C025831
:103F40000010005004EB00240BA922464846DFF87D
:103F5000049103F082F83348334A0BA98462119626
:103F6000C0E900252022C0E904248022C0E90244DF
:103F7000C0E90624C0E90844CDE90B66CDE90D6629
:103F8000CDE90F6601F0CAFA284920460A6822F0F6
:103F900001020A6006F0DCFC204606F023FD2448FE
:103FA0004FF44032C0E90284C0E9009203F078FC8B
:103FB0002048214AC0F810A0C0F820B0C0E900276E
:103FC0004FF44072C0E90254C0E9052402F086FCB7
:103FD000204606F045FA0BA920468DF82C708DF886
:103FE0002D508DF82EB006F0E3FA204606F0ECF9DD
:103FF0005C2003F0B1F903F0DBFE03F0D8FE05F01E
:104000008FFB0E4A21460E4805F0B6FB0D4B0E4ABB
:10401000214618600D4805F0AFFB0D4B186005F008
:1040200091FBFEE718EC0024404100520040005292
:10403000B0EB00243CED002400500052BC500208BC
:10404000F53A0008DCEA002498500208BF7D000819
:10405000ACEB0024001000520268034B9A4201D1DD
:1040600000F050BB704700BF0010004070470000D8
:104070000F2810B504468AB002D901200AB010BD3D
:1040800001460022362003F027F9362003F056F9C6
:10409000184B694602A81C60174BD3F8E82042F081
:1040A0001002C3F8E820D3F8E83003F010030193BE
:1040B000019B01F09FFF079BC3B901F089FF0F4CE3
:1040C0000F4B236040F2E733E3600E4BB0FBF3F09D
:1040D00001380023606020462361A36003F012FED4
:1040E0000028CAD1204603F0AFFCC7E701F070FFFB
:1040F0004000E4E718000024004402584CEC00247F
:104100000010004040420F000A4B82B00F216FF0B8
:104110000100D3F8F42042F00202C3F8F420002298
:10412000D3F8F43003F002030193019B02B003F0D3
:10413000D3B800BF00440258026882B0094B9A42CB
:104140000DD1A3F50063D3F8E02042F40022C3F8B8
:10415000E020D3F8E03003F400230193019B02B088
:10416000704700BF004C025807B50F4B02689A42D7
:1041700017D10E4B05215A20D3F8D42042F010025B
:10418000C3F8D4200022D3F8D43003F010030193F5
:10419000019B03F0A1F85A2003B05DF804EB03F093
:1041A000CDB803B05DF804FB001000520044025883
:1041B000F0B51422BBB0044600210DEB02001EF046
:1041C0001CFBC02200210AA81EF017FB22683C4BF2
:1041D0009A4273D14FF00052002320210AA8CDE962
:1041E0000A23A0230522CDE914230223CDE91633A7
:1041F0004FF40063CDE9181300F09EFB08B1FFF700
:1042000035FF304B002402270326D3F8E4200E2587
:1042100005A92D4842F00802C3F8E420D3F8E420B1
:1042200002F008020192019AD3F8E02042F4806281
:10423000C3F8E020D3F8E02002F480620292029AF0
:10424000D3F8E02042F40072C3F8E020D3F8E02075
:1042500002F400720392039AD3F8E02042F48072D1
:10426000C3F8E020D3F8E030099503F48073049399
:10427000049BFF23CDE90746CDE9053703F06AF932
:1042800048F67D6305A911480995CDE90537CDE9C3
:10429000074603F05FF94FF4704305A90C480995F0
:1042A000CDE90537CDE9074603F054F958202246F9
:1042B0000F2103F011F8582003F040F83BB0F0BD97
:1042C00000100050004402580028025800240258F0
:1042D000002002582DE9F041BCB004461422002110
:1042E00007A81EF08AFAC02200210CA81EF085FA49
:1042F0002268574B9A4240F0A7804FF0007200238B
:104300000CA8CDE90C2300F017FB08B1FFF7AEFEB7
:10431000504B022503240027D3F8D420092607A9EF
:104320004D4842F480424FF00108C3F8D420D3F83E
:10433000D42002F480420192019AD3F8E02042F0A6
:104340004002C3F8E020D3F8E02002F040020292DD
:10435000029AD3F8E02042F00402C3F8E020D3F838
:10436000E02002F004020392039AD3F8E02042F026
:104370002002C3F8E020D3F8E02002F020020492EB
:10438000049AD3F8E02042F08002C3F8E020D3F88A
:10439000E02002F080020592059AD3F8E02042F076
:1043A0000202C3F8E020D3F8E03003F002030693E2
:1043B000069B4FF48443CDE90735CDE909740B968C
:1043C00003F0C8F84FF4006307A924480B96CDE921
:1043D0000735CDE9098403F0BDF8402307A91E483D
:1043E000CDE909844FF00A08CDE90735CDF82C80D6
:1043F00003F0B0F8C02307A919480B96CDE907359B
:10440000CDE9097403F0A6F84FF4407307A91448E6
:10441000CDF82C80CDE90735CDE9097403F09AF881
:104420000C2307A90F480B96CDE90735CDE9097490
:1044300003F090F8042307A90B480B96CDE9073544
:10444000CDE9097403F086F83CB0BDE8F08100BF07
:104450000050005200440258001802580008025848
:1044600000140258001C02580004025808B5124BF0
:1044700002689A421FD1114A44F240211048D2F8F2
:10448000D43023F48043C2F8D43003F051F94FF410
:1044900000610C4803F04CF94FF470710A4803F0C6
:1044A00047F90C21094803F043F904210848BDE805
:1044B000084003F03DB908BD0050005200440258C6
:1044C000001802580008025800140258001C025834
:1044D00000040258F0B5B7B00021142201A81EF064
:1044E0008CF93F4B1968002977D1012208A81A607E
:1044F000B8221EF082F936A84FF08072002360E9DE
:10450000302300F019FA08B1FFF7B0FD354B022750
:1045100000260325D3F8D4200C2401A9324842F404
:104520008052C3F8D420D3F8D430059403F48053D8
:104530000093009B40F2FF63CDE90365CDE90137AD
:1045400003F008F8602301A928480594CDE9013754
:10455000CDE9036502F0FEFF4FF6837301A92448FD
:104560000594CDE90137CDE9036502F0F3FF4FF47F
:104570007F4301A91F480594CDE90137CDE90365C3
:1045800002F0E8FF48F2111301A91B480594CDE998
:104590000137CDE9036502F0DDFF4CF2037301A999
:1045A00016480594CDE90137CDE9036502F0D2FF45
:1045B0004FF63F0301A912480594CDE90137CDE933
:1045C000036502F0C7FF012301A90E480594CDE958
:1045D0000137CDE9036502F0BDFF37B0F0BD00BF84
:1045E000D848002400440258002002580004025811
:1045F00000100258001C025800180258000C025803
:1046000000140258000802581A4B10B51A6882BBF1
:10461000194A012440F2FF6118481C60D2F8D430D6
:1046200023F48053C2F8D43003F082F86021144898
:1046300003F07EF84FF68371124803F079F84FF4D7
:104640007F41114803F074F848F211110F4803F04C
:104650006FF84CF203710E4803F06AF84FF63F0111
:104660000C4803F065F821460B48BDE8104003F004
:104670005FB810BDD44800240044025800200258FE
:104680000004025800100258001C0258001802587A
:10469000000C02580014025800080258014900207A
:1046A00004F0D0BBB137000810B5032002F002FEC1
:1046B00001F0A0FA0F49104A8B69C3F30323D35CBE
:1046C00003F01F03D8408B6903F00F03D35C0B4A40
:1046D00003F01F0320FA03F31360094B1860002056
:1046E000FFF7C6FC044618B9FFF70EFD204610BDC3
:1046F0000124FBE7004402588850020810000024FF
:104700000C000024034A044B11681B780B4413600F
:10471000704700BF98EC002414000024014B186877
:10472000704700BF98EC002438B50446FFF7F6FF49
:104730000546631C1EBF044B1B78E418FFF7EEFF11
:10474000401BA042FAD338BD14000024014B186866
:10475000000C70470010005CF8B53A4C06460D4658
:10476000A36A03F00303032B69D0236823F080635B
:104770002360FFF7D3FF074623681A014BD4A36ACF
:10478000326823F47C3343EA0233A362B368F268ED
:10479000013B013A5B0212049BB202F4FE02134396
:1047A0007268013AC2F3080213433269013A1206F1
:1047B00002F0FE421343A363E36A726923F0C0036D
:1047C0001343E362E36AB26923F020031343E36215
:1047D000E36A23F01003E362E36BF26923F47F439F
:1047E00023F0F80343EAC203E363E36A43F01003F0
:1047F000E362E36AB5B943F40023E362114C236832
:1048000043F080632360FFF789FF054623681B019F
:104810000FD5002005E0FFF781FFC01B0228ABD9B0
:104820000320F8BD012D0CBF43F4801343F40013A3
:10483000E3E7FFF773FF401B0228E7D9F0E7012009
:10484000EFE700BF00440258F8B53A4C06460D4663
:10485000A36A03F00303032B69D0236823F080537A
:104860002360FFF75BFF074623689A004BD4A36AD7
:10487000326823F07C7343EA0253A362B368F268A0
:10488000013B013A5B0212049BB202F4FE021343A5
:104890007268013AC2F3080213433269013A120600
:1048A00002F0FE4213432364E36A726923F4406317
:1048B0001343E362E36AB26923F400731343E362D0
:1048C000E36A23F48073E362636CF26923F47F4349
:1048D00023F0F80343EAC2036364E36A43F480739A
:1048E000E362E36AB5B943F48003E362114C2368E1
:1048F00043F080532360FFF711FF054623689B00B8
:104900000FD5002005E0FFF709FFC01B0228ABD937
:104910000320F8BD012D0CBF43F4000343F0807366
:10492000E3E7FFF7FBFE401B0228E7D9F0E7012091
:10493000EFE700BF004402582DE9F843D0E9002317
:104940000446002102F0006050EA010314D0A36E77
:10495000B3F5801F18D002D883B101261CE0B3F54F
:10496000001F29D0B3F5401FF7D19A4AA16E136DED
:1049700023F440130B43136500260DE0954AD36AD8
:1049800043F40033D362F0E7022104F10800FFF79B
:10499000E3FE06460028E8D00021D4E9002302F413
:1049A000807050EA01033BD0A36D042B37D8DFE8B9
:1049B00003F00910300E0E00022104F12800FFF769
:1049C00043FFE6E7834AD36A43F40033D3623546B4
:1049D00005E0002104F10800FFF7BEFE05460DBB0F
:1049E0007C4AA16D136D23F007030B43136500216F
:1049F000D4E9002302F4007050EA010321D0E36DF2
:104A0000802B41D010D893B3402B36D001263546A9
:104A100017E0002104F12800FFF716FFDEE701266A
:104A20003546E4E72E46E2E7C02B02D0B3F5807F9F
:104A3000ECD17DBB674AE16D136D23F4E0730B434A
:104A400013650021D4E9002302F4806050EA0103D9
:104A500031D0D4F8A830B3F5800F4FD01CD8002B3C
:104A60003FD0B3F5001F42D00126354623E0594A16
:104A7000D36A43F40033D362DBE7002104F108007A
:104A8000FFF76AFE0546D4E7002104F12800FFF78E
:104A9000DBFEF7E72E46D4E7B3F5C00F02D0B3F53F
:104AA000000FE1D185BB4B4AD4F8A810936D23F4D5
:104AB00060030B4393650021D4E9002302F40060F6
:104AC00050EA010331D0D4F8AC30B3F1007F49D0C3
:104AD0001CD8002B39D0B3F1807F3CD0012635465D
:104AE00023E03C4AD36A43F40033D362DAE700217F
:104AF00004F10800FFF730FE0546D3E7002104F17A
:104B00002800FFF7A1FEF7E72E46D4E7B3F1407F78
:104B100002D0B3F1806FE1D155BB2E4AD4F8AC106E
:104B2000936D23F0E0630B4393650021D4E90023E8
:104B300002F0007050EA010328D0E36C102B3AD049
:104B400018D8DBB10126354620E0224AD36A43F467
:104B50000033D362E0E7002104F10800FFF7FCFD19
:104B60000546D9E7002104F12800FFF76DFEF7E7BD
:104B70002E46DAE7202B24D0302BE3D145BB154A53
:104B8000E16CD36C23F030030B43D3640021D4E9F0
:104B9000002302F4805050EA01032BD0236EB3F5BA
:104BA000005F48D018D8002B38D0B3F5805F3BD0D9
:104BB000012635461EE0074AD36A43F40033D36228
:104BC000DCE7022104F10800FFF7C6FD0546D5E742
:104BD0002E46DBE700440258B3F5405F02D0B3F540
:104BE000804FE5D16DBBAA4A216E136D23F4E043DB
:104BF0000B4313650021D4E9002302F4005050EA6E
:104C0000010331D0636EB3F5003F49D01BD81BB30D
:104C1000B3F5803F3DD00126354625E09C4AD36A56
:104C200043F40033D362DDE7002104F10800FFF70D
:104C300093FD0546D6E7002104F12800FFF704FEA6
:104C4000F7E72E46D6E7B3F5802F05D0B3F5A02FB2
:104C500002D0B3F5403FDED145BB8D4A616E136D86
:104C600023F4E0230B4313650021D4E9002302F46D
:104C7000804050EA01032ED0D4F8B030B3F1005F89
:104C80005AD015D8EBB1B3F1805F4ED0012635462E
:104C900021E0012104F10800FFF75EFD0546DBE796
:104CA000012104F12800FFF7CFFDF7E72E46DBE7EF
:104CB000B3F1804F05D0B3F1A04F02D0B3F1405F04
:104CC000E4D1002D3ED1724AD4F8B010936D23F098
:104CD000E0430B4393650021D4E9002302F4004034
:104CE00050EA010311D0236FB3F1805F2CD0B3F1F0
:104CF000005F2FD0002B34D1002D35D1644A216FB5
:104D0000136D23F040530B4313650021D4E90023B6
:104D100002F0807050EA010336D0A36C032B00F23E
:104D20008180DFE803F028237828012104F10800BE
:104D3000FFF712FD0546C4E7012104F12800FFF743
:104D400083FDF7E72E46C6E7514AD36A43F40033A2
:104D5000D362D1E7012104F10800FFF7FDFC05460D
:104D6000CAE701263546D0E72E46CEE7484AD36A41
:104D700043F40033D362002D57D1454AA16CD36C64
:104D800023F003030B43D3640021D4E9002302F48E
:104D9000800050EA010352D03E4F3B6843F48073D9
:104DA0003B60FFF7BBFC80463B68DA053FD5002D32
:104DB0006BD1374BD4F8B4101A6F4A4012F4407FCD
:104DC0000BD01A6F196F22F4407241F480311967C9
:104DD000196F21F4803119671A67D4F8B430B3F52C
:104DE000807F3ED0D4F8B400294A00F44073B3F574
:104DF000407F46D11169284B21F47C5103EA1013FE
:104E00000B431361224AD4F8B430116FC3F30B0380
:104E10000B43136713E0022104F10800FFF79CFC29
:104E20000546A8E701263546AEE72E46ACE7FFF774
:104E300075FCA0EB08006428B6D90326354600218E
:104E4000D4E9002302F0010050EA010334D0E36FFB
:104E5000102B48D022D83BB3082B3DD00126354635
:104E60002AE0FFF75BFC0A4F804641F288393B6F2E
:104E70009B07B7D4FFF752FCA0EB08004845F6D9D2
:104E8000DBE7136923F47C53BBE72E46D7E700BF6B
:104E90000044025800480258CFFFFF00202B03D0E7
:104EA000282B01D0182BD9D11DBB764AE16F536D49
:104EB00023F038030B4353650021D4E9002302F0AB
:104EC000020050EA010324D0A36F052B38D8DFE895
:104ED00003F0181231181818012104F10800FFF727
:104EE0003BFC0546E0E7012104F12800FFF7ACFC9C
:104EF000F7E72E46E0E7012104F10800FFF72CFC5C
:104F0000054605BB5F4AA16F536D23F007030B43B2
:104F100053650021D4E9002302F0040050EA0103A4
:104F200022D0D4F89430052B39D8DFE803F0140EE2
:104F300032141414012104F12800FFF785FCDFE787
:104F400001263546E5E72E46E3E7012104F1080096
:104F5000FFF702FC05462DBB4A4AD4F89410936D26
:104F600023F007030B4393650021D4E9002302F0EB
:104F7000200050EA010329D0D4F89030B3F1005F4B
:104F800040D011D8CBB1B3F1805F34D00126354683
:104F90001CE0012104F12800FFF756FCDAE70126A6
:104FA0003546E1E72E46DFE7B3F1804F05D0B3F198
:104FB000A04F02D0B3F1405FE8D14DBB314AD4F8E5
:104FC0009010536D23F0E0430B4353650021D4E967
:104FD000002302F0400050EA01032DD0D4F89C30A9
:104FE000B3F5006F46D015D8EBB1B3F5806F3AD06A
:104FF0000126354620E0002104F10800FFF7ACFB54
:105000000546DAE7022104F12800FFF71DFCF7E767
:105010002E46DBE7B3F5805F05D0B3F5A05F02D085
:10502000B3F5406FE4D15DBB164AD4F89C10936D84
:1050300023F4E0530B4393650021D4E9002302F0ED
:10504000800050EA010333D0D4F8A030B3F5804F8C
:1050500000F0C38018D803B3B3F5005F00F0B6804A
:105060000126354624E0002104F10800FFF774FB17
:105070000546D8E7022104F12800FFF7E5FBF7E732
:105080002E46D9E700440258B3F5004F05D0B3F5DA
:10509000204F02D0B3F5C04FE2D1002D40F0A380E5
:1050A0005D4AD4F8A010936D23F460430B439365DD
:1050B0000021D4E9002302F0080050EA010314D0D3
:1050C000D4F88430B3F5805F07D1022104F12800C1
:1050D000FFF7BAFB002818BF01264F4AD4F8841006
:1050E000536D23F440530B4353650021D4E900234F
:1050F00002F0100050EA010314D0D4F89830B3F550
:10510000807F07D1022104F12800FFF79DFB0028D2
:1051100018BF0126404AD4F89810936D23F44073C9
:105120000B4393650021D4E9002302F4002050EAE8
:10513000010318D0D4F8A410B1F5803F55D0B1F5D3
:10514000003F06D0002956D104F10800FFF704FB08
:105150000546002D52D1304AD4F8A410936D23F4A3
:1051600040330B4393650021D4E9002302F48020EF
:1051700050EA010319D0D4F88830B3F5001F3FD0AE
:10518000B3F5401F07D0B3F5801F40D1224AD36A40
:1051900043F40033D362002D3CD11F4AD4F8881069
:1051A000536D23F440130B4353650021D4E90023CE
:1051B00002F4803050EA01033FD0236D73B3B3F59E
:1051C000803F00F024810126354636E0002104F1BD
:1051D0000800FFF7C1FA05465FE7022104F1280045
:1051E000FFF732FBF7E72E4662E7022104F12800C1
:1051F000FFF72AFBACE701263546B4E72E46B2E7B7
:10520000012104F12800FFF71FFB0546C3E7012633
:105210003546CAE72E46C8E7004402588E4AD36A8C
:1052200043F40033D362002D40F0F8808A4A216DA8
:10523000D36C23F480330B43D3640021D4E90023DF
:1052400002F0005050EA010307D0022104F12800C7
:10525000FFF7FAFA002818BF01260021D4E900233D
:1052600002F4003050EA010315D0D4F88030B3F5D1
:10527000807F00F0DF8000F2D380002B40F0D880E8
:10528000002D40F0DD80744AD4F88010536D23F473
:1052900040730B4353650021D4E9002302F48010CE
:1052A00050EA010306D06C4A616F136D23F000438E
:1052B0000B4313650021D4E9002302F0805050EA2B
:1052C000010307D0644AD4F8B810136923F480436B
:1052D0000B4313610021D4E9002302F4001050EACB
:1052E000010306D05C4AE16E136D23F080730B431B
:1052F00013650021D4E9002302F0804050EA010345
:1053000009D0554B1A6922F400421A611A69D4F87F
:10531000BC100A431A610021D4E9002302F00040C6
:1053200050EA010306D04C4A616DD36C23F0405320
:105330000B43D3640021D4E9002302F4000050EAB7
:10534000010307D0444AD4F88C10536D23F4400372
:105350000B4353650020D4E9002303F0010150EA18
:10536000010307D0002104F10800FFF7F5F9002838
:1053700018BF06460020D4E9002303F0020150EADA
:10538000010307D0012104F10800FFF7E5F9002827
:1053900018BF06460020D4E9002303F0040150EAB8
:1053A000010307D0022104F10800FFF7D5F9002816
:1053B00018BF06460020D4E9002303F0080150EA94
:1053C000010307D0002104F12800FFF73DFA00286F
:1053D00018BF06460020D4E9002303F0100150EA6C
:1053E000010307D0012104F12800FFF72DFA00285E
:1053F00018BF06460020D4E9002303F0200150EA3C
:1054000001031FD1301C18BF0120BDE8F883022121
:1054100004F10800FFF7A0F9054604E72E460CE763
:10542000B3F5007F3FF42CAFB3F5407F3FF428AFD6
:10543000012630E7084AD36A43F40033D3621FE7FA
:105440002E4628E7022104F12800FFF7FDF9002885
:10545000D8D00120D9E700BF0044025810B5044657
:1054600008B9012010BD437F03F0FF0213B9027792
:10547000FEF762FE022363772379FBB92368144A9F
:105480005A612268936823F0180393606279236855
:10549000E2B94FF0FF321A61002022686169936817
:1054A00023F060030B4393602268A169936823F0A3
:1054B00080030B43936001236377D3E7D4E902129F
:1054C000204602F04FFC0028E0D0CAE72269E2E75C
:1054D000B71DC10438B5104CE36813F0040FE3683E
:1054E00005D103F00703181A18BF012038BD23F0B7
:1054F00007031843E060FFF711F9054663689B0452
:1055000001D50020F2E7FFF709F9401BB0F57A7FDB
:10551000F4D90120EAE700BF0048025838B50D462B
:105520000446F0B190F82C3003F0FF021BB980F86C
:105530002D20FEF7CFFF0223211D206884F82C3098
:1055400001F066FF62682946206801F095FF064A6F
:105550000020136843F000431360012384F82C30CB
:1055600038BD0120FCE700BF0040005210B50446E2
:10557000FFF74AF8D4E9000101F0C0FF002084F8E9
:105580002C0084F82D0010BD70B5054690F82C0055
:105590000E46C0B2022810D000F0FB04012C10D13E
:1055A0000223286885F82C3001F0B7FF3368022BFE
:1055B00004D1052385F82C30002070BD85F82C40DF
:1055C000FAE70120F9E738B5044690F82C00C0B29C
:1055D00002280DD094F82C50EDB2012D09D10223F0
:1055E000206884F82C3001F0AAFF002084F82C50A9
:1055F00038BD0120FCE710B590F84130DBB2202B1C
:1056000023D190F84020012A1FD00122046880F89D
:105610004020242280F84120226822F001022260EA
:105620000468226822F480522260046822681143D0
:10563000216001680A6842F001020A6080F8413086
:10564000002380F84030184610BD0220FCE710B55A
:1056500090F84120D2B2202A21D190F84030012B7D
:105660001DD00123046880F84030242380F84130A5
:10567000236823F0010323600468236823F4706324
:1056800043EA0121216001680B6843F001030B60CC
:10569000002380F8412080F84030184610BD0220D9
:1056A000FCE70000F8B5044608B9012092E0036861
:1056B000D90762D423689A0700F1AC802368DA0620
:1056C00027D5A54B1A69996A02F03802082A07D033
:1056D000182A40F0038101F00302012A40F0FE8005
:1056E0001B68DB0502D5E369802BDED1FFF72EF8BE
:1056F00041F20303216A9842974B00F2E8805A680E
:10570000202922F0F8420CBF42F0804242EA816236
:105710005A602368190700F1238123689A0600F173
:10572000448123685D0722D58C4D2B6843F4807338
:105730002B60FEF7F3FF06462B68DA0540F15A812D
:10574000A268854B012A40F05C811A6F42F0010289
:105750001A67A368002B00F06B81FEF7DFFF7E4D18
:10576000064641F288372B6F9B0740F15A81606AE9
:10577000002840F06D8100202CE0774B1A69996A6F
:1057800002F03802102A05D0182A0AD101F00302CB
:10579000022A06D11B689B038CD56368002B89D134
:1057A00083E762686C4BB2F5803F14D11A6842F40B
:1057B00080321A606368FBB1FEF7B0FF664D0646A3
:1057C0002B689F033FF576AFFEF7A8FF801B642888
:1057D000F6D90320F8BD3AB91A6822F480321A606B
:1057E0001A6822F48022E4E7B2F5A02F1A68F4D1F7
:1057F00042F480221A60D9E7FEF790FF564D064624
:105800002B6898037FF556AFFEF788FF801B64284E
:10581000F6D9DEE7504BE2681969986A11F0380151
:1058200003D018292BD1810729D11B685B0702D52A
:10583000002A3FF43AAF484D2B6823F01903134375
:105840002B60FEF76BFF06462B685F0711D5FEF74E
:105850007DFF41F20303226998426B6822D823F44A
:105860007C33402A0CBF43F4003343EA02336B60BD
:1058700024E7FEF753FF801B0228E5D9A9E7364D40
:105880002B68A2B123F0190313432B60FEF746FFE8
:1058900006462B685807DAD4FEF740FF801B022823
:1058A000F7D996E723F0FE4343EA0263DFE723F0EC
:1058B00001032B60FEF732FF06462B6859077FF580
:1058C000FDAEFEF72BFF801B0228F6D981E7DA68D0
:1058D00022F07C5242EA0162DA601AE7E3691E4D67
:1058E00043B32B6843F080032B60FEF717FF064697
:1058F0002B68DF0511D5FEF729FF41F20303226A69
:10590000984210D86B68202A23F0F8430CBF43F06C
:10591000804343EA82636B60FBE6FEF7FFFE801B79
:105920000228E5D955E7EB6823F07C5343EA02638C
:10593000EB60EEE62B6823F080032B60FEF7EEFEB3
:1059400006462B68D8057FF5E4AEFEF7E7FE801B20
:105950000228F6D93DE700BF00440258004802582B
:105960006369A34D83B16B6F43F001036B67FEF76F
:10597000D5FE06466B6F9B073FF5CFAEFEF7CEFE1A
:10598000801B0228F6D924E76B6F23F001036B67B5
:10599000FEF7C4FE06466B6F9F077FF5BEAEFEF7AF
:1059A000BDFE801B0228F6D913E7A369904D83B191
:1059B0002B6843F480532B60FEF7B0FE06462B683D
:1059C00098043FF5AEAEFEF7A9FE801B0228F6D97B
:1059D000FFE62B6823F480532B60FEF79FFE0646FC
:1059E0002B6899047FF59DAEFEF798FE801B022878
:1059F000F6D9EEE6FEF792FE801B64287FF69CAE99
:105A0000E7E63AB91A6F22F001021A671A6F22F01C
:105A100004029DE6052A1A6FF5D142F004021A67C6
:105A200093E6FEF77BFE801BB8427FF69CAED0E685
:105A3000FEF774FE6E4D064641F288372B6F9807CD
:105A40007FF595AEFEF76AFE801BB842F6D9C0E638
:105A5000674D2B6903F03803182B7AD02B68022886
:105A600023F080732B6067D1FEF758FE06462B6843
:105A700099015BD4AB6AA26A23F47C7323F003031D
:105A80001343E26A43EA0213AB62636BA26B013B0E
:105A9000013A5B0212049BB202F4FE021343226B32
:105AA000013AC2F308021343E26B013A120602F014
:105AB000FE4213432B63EB6A23F00103EB626B6B33
:105AC000A26C23F47F4323F0F80343EAC2036B6321
:105AD000EB6A226C23F00C031343EB62EB6A626CFB
